{
  "contractName": "PRIVIPodERC721RoyaltyToken",
  "abi": [
    {
      "inputs": [
        {
          "internalType": "string",
          "name": "name",
          "type": "string"
        },
        {
          "internalType": "string",
          "name": "symbol",
          "type": "string"
        },
        {
          "internalType": "string",
          "name": "baseURI",
          "type": "string"
        },
        {
          "internalType": "address",
          "name": "factory",
          "type": "address"
        },
        {
          "internalType": "uint256",
          "name": "royaltyAmount",
          "type": "uint256"
        },
        {
          "internalType": "address",
          "name": "creator",
          "type": "address"
        }
      ],
      "stateMutability": "nonpayable",
      "type": "constructor"
    },
    {
      "anonymous": false,
      "inputs": [
        {
          "indexed": true,
          "internalType": "address",
          "name": "owner",
          "type": "address"
        },
        {
          "indexed": true,
          "internalType": "address",
          "name": "approved",
          "type": "address"
        },
        {
          "indexed": true,
          "internalType": "uint256",
          "name": "tokenId",
          "type": "uint256"
        }
      ],
      "name": "Approval",
      "type": "event"
    },
    {
      "anonymous": false,
      "inputs": [
        {
          "indexed": true,
          "internalType": "address",
          "name": "owner",
          "type": "address"
        },
        {
          "indexed": true,
          "internalType": "address",
          "name": "operator",
          "type": "address"
        },
        {
          "indexed": false,
          "internalType": "bool",
          "name": "approved",
          "type": "bool"
        }
      ],
      "name": "ApprovalForAll",
      "type": "event"
    },
    {
      "anonymous": false,
      "inputs": [
        {
          "indexed": true,
          "internalType": "address",
          "name": "creator",
          "type": "address"
        },
        {
          "indexed": true,
          "internalType": "address",
          "name": "buyer",
          "type": "address"
        },
        {
          "indexed": true,
          "internalType": "uint256",
          "name": "amount",
          "type": "uint256"
        }
      ],
      "name": "RecievedRoyalties",
      "type": "event"
    },
    {
      "anonymous": false,
      "inputs": [
        {
          "indexed": true,
          "internalType": "address",
          "name": "from",
          "type": "address"
        },
        {
          "indexed": true,
          "internalType": "address",
          "name": "to",
          "type": "address"
        },
        {
          "indexed": true,
          "internalType": "uint256",
          "name": "tokenId",
          "type": "uint256"
        }
      ],
      "name": "Transfer",
      "type": "event"
    },
    {
      "inputs": [
        {
          "internalType": "address",
          "name": "to",
          "type": "address"
        },
        {
          "internalType": "uint256",
          "name": "tokenId",
          "type": "uint256"
        }
      ],
      "name": "approve",
      "outputs": [],
      "stateMutability": "nonpayable",
      "type": "function"
    },
    {
      "inputs": [
        {
          "internalType": "address",
          "name": "owner",
          "type": "address"
        }
      ],
      "name": "balanceOf",
      "outputs": [
        {
          "internalType": "uint256",
          "name": "",
          "type": "uint256"
        }
      ],
      "stateMutability": "view",
      "type": "function"
    },
    {
      "inputs": [
        {
          "internalType": "uint256",
          "name": "tokenId",
          "type": "uint256"
        }
      ],
      "name": "burn",
      "outputs": [],
      "stateMutability": "nonpayable",
      "type": "function"
    },
    {
      "inputs": [
        {
          "internalType": "uint256",
          "name": "tokenId",
          "type": "uint256"
        }
      ],
      "name": "getApproved",
      "outputs": [
        {
          "internalType": "address",
          "name": "",
          "type": "address"
        }
      ],
      "stateMutability": "view",
      "type": "function"
    },
    {
      "inputs": [],
      "name": "hasRoyalties",
      "outputs": [
        {
          "internalType": "bool",
          "name": "",
          "type": "bool"
        }
      ],
      "stateMutability": "pure",
      "type": "function"
    },
    {
      "inputs": [
        {
          "internalType": "address",
          "name": "owner",
          "type": "address"
        },
        {
          "internalType": "address",
          "name": "operator",
          "type": "address"
        }
      ],
      "name": "isApprovedForAll",
      "outputs": [
        {
          "internalType": "bool",
          "name": "",
          "type": "bool"
        }
      ],
      "stateMutability": "view",
      "type": "function"
    },
    {
      "inputs": [],
      "name": "name",
      "outputs": [
        {
          "internalType": "string",
          "name": "",
          "type": "string"
        }
      ],
      "stateMutability": "view",
      "type": "function"
    },
    {
      "inputs": [
        {
          "internalType": "uint256",
          "name": "tokenId",
          "type": "uint256"
        }
      ],
      "name": "ownerOf",
      "outputs": [
        {
          "internalType": "address",
          "name": "",
          "type": "address"
        }
      ],
      "stateMutability": "view",
      "type": "function"
    },
    {
      "inputs": [],
      "name": "parentFactory",
      "outputs": [
        {
          "internalType": "address",
          "name": "",
          "type": "address"
        }
      ],
      "stateMutability": "view",
      "type": "function"
    },
    {
      "inputs": [
        {
          "internalType": "address",
          "name": "_creator",
          "type": "address"
        },
        {
          "internalType": "address",
          "name": "_buyer",
          "type": "address"
        },
        {
          "internalType": "uint256",
          "name": "_amount",
          "type": "uint256"
        }
      ],
      "name": "royaltiesRecieved",
      "outputs": [],
      "stateMutability": "nonpayable",
      "type": "function"
    },
    {
      "inputs": [],
      "name": "royaltyAmount",
      "outputs": [
        {
          "internalType": "uint256",
          "name": "",
          "type": "uint256"
        }
      ],
      "stateMutability": "view",
      "type": "function"
    },
    {
      "inputs": [],
      "name": "royaltyCreator",
      "outputs": [
        {
          "internalType": "address",
          "name": "",
          "type": "address"
        }
      ],
      "stateMutability": "view",
      "type": "function"
    },
    {
      "inputs": [],
      "name": "royaltyInfo",
      "outputs": [
        {
          "internalType": "uint256",
          "name": "",
          "type": "uint256"
        },
        {
          "internalType": "address",
          "name": "",
          "type": "address"
        }
      ],
      "stateMutability": "view",
      "type": "function"
    },
    {
      "inputs": [
        {
          "internalType": "address",
          "name": "from",
          "type": "address"
        },
        {
          "internalType": "address",
          "name": "to",
          "type": "address"
        },
        {
          "internalType": "uint256",
          "name": "tokenId",
          "type": "uint256"
        }
      ],
      "name": "safeTransferFrom",
      "outputs": [],
      "stateMutability": "nonpayable",
      "type": "function"
    },
    {
      "inputs": [
        {
          "internalType": "address",
          "name": "from",
          "type": "address"
        },
        {
          "internalType": "address",
          "name": "to",
          "type": "address"
        },
        {
          "internalType": "uint256",
          "name": "tokenId",
          "type": "uint256"
        },
        {
          "internalType": "bytes",
          "name": "_data",
          "type": "bytes"
        }
      ],
      "name": "safeTransferFrom",
      "outputs": [],
      "stateMutability": "nonpayable",
      "type": "function"
    },
    {
      "inputs": [
        {
          "internalType": "address",
          "name": "operator",
          "type": "address"
        },
        {
          "internalType": "bool",
          "name": "approved",
          "type": "bool"
        }
      ],
      "name": "setApprovalForAll",
      "outputs": [],
      "stateMutability": "nonpayable",
      "type": "function"
    },
    {
      "inputs": [
        {
          "internalType": "bytes4",
          "name": "interfaceId",
          "type": "bytes4"
        }
      ],
      "name": "supportsInterface",
      "outputs": [
        {
          "internalType": "bool",
          "name": "",
          "type": "bool"
        }
      ],
      "stateMutability": "view",
      "type": "function"
    },
    {
      "inputs": [],
      "name": "symbol",
      "outputs": [
        {
          "internalType": "string",
          "name": "",
          "type": "string"
        }
      ],
      "stateMutability": "view",
      "type": "function"
    },
    {
      "inputs": [
        {
          "internalType": "uint256",
          "name": "tokenId",
          "type": "uint256"
        }
      ],
      "name": "tokenURI",
      "outputs": [
        {
          "internalType": "string",
          "name": "",
          "type": "string"
        }
      ],
      "stateMutability": "view",
      "type": "function"
    },
    {
      "inputs": [
        {
          "internalType": "address",
          "name": "from",
          "type": "address"
        },
        {
          "internalType": "address",
          "name": "to",
          "type": "address"
        },
        {
          "internalType": "uint256",
          "name": "tokenId",
          "type": "uint256"
        }
      ],
      "name": "transferFrom",
      "outputs": [],
      "stateMutability": "nonpayable",
      "type": "function"
    },
    {
      "inputs": [
        {
          "internalType": "address",
          "name": "to",
          "type": "address"
        },
        {
          "internalType": "uint256",
          "name": "tokenId",
          "type": "uint256"
        }
      ],
      "name": "mint",
      "outputs": [],
      "stateMutability": "nonpayable",
      "type": "function"
    },
    {
      "inputs": [
        {
          "internalType": "uint256",
          "name": "sellAmount",
          "type": "uint256"
        },
        {
          "internalType": "uint256",
          "name": "tokenId",
          "type": "uint256"
        },
        {
          "internalType": "address",
          "name": "from",
          "type": "address"
        },
        {
          "internalType": "address",
          "name": "to",
          "type": "address"
        }
      ],
      "name": "marketSell",
      "outputs": [],
      "stateMutability": "payable",
      "type": "function"
    }
  ],
  "bytecode": "0x60806040523480156200001157600080fd5b5060405162001e2338038062001e2383398101604081905262000034916200022e565b81818787816000908051906020019062000050929190620000c0565b50805162000066906001906020840190620000c0565b505050600691909155600780546001600160a01b03199081166001600160a01b0393841617909155600880549091169185169190911790558351620000b3906009906020870190620000c0565b505050505050506200033c565b828054620000ce90620002e9565b90600052602060002090601f016020900481019282620000f257600085556200013d565b82601f106200010d57805160ff19168380011785556200013d565b828001600101855582156200013d579182015b828111156200013d57825182559160200191906001019062000120565b506200014b9291506200014f565b5090565b5b808211156200014b576000815560010162000150565b80516001600160a01b03811681146200017e57600080fd5b919050565b600082601f83011262000194578081fd5b81516001600160401b0380821115620001b157620001b162000326565b6040516020601f8401601f1916820181018381118382101715620001d957620001d962000326565b6040528382528584018101871015620001f0578485fd5b8492505b83831015620002135785830181015182840182015291820191620001f4565b838311156200022457848185840101525b5095945050505050565b60008060008060008060c0878903121562000247578182fd5b86516001600160401b03808211156200025e578384fd5b6200026c8a838b0162000183565b9750602089015191508082111562000282578384fd5b620002908a838b0162000183565b96506040890151915080821115620002a6578384fd5b50620002b589828a0162000183565b945050620002c66060880162000166565b925060808701519150620002dd60a0880162000166565b90509295509295509295565b600281046001821680620002fe57607f821691505b602082108114156200032057634e487b7160e01b600052602260045260246000fd5b50919050565b634e487b7160e01b600052604160045260246000fd5b611ad7806200034c6000396000f3fe6080604052600436106101555760003560e01c806370a08231116100bb5780639d35c1611161007f578063c87b56dd11610059578063c87b56dd146103ba578063cfd0244b146103da578063e985e9c5146103ed57610155565b80639d35c16114610365578063a22cb4651461037a578063b88d4fde1461039a57610155565b806370a08231146102d95780637c6e551d1461030657806384a09c271461031b57806395d89b411461033b5780639822e8c01461035057610155565b806340c10f191161011d57806346e80720116100f757806346e80720146102815780636352211e146102a4578063656605d6146102c457610155565b806340c10f191461022157806342842e0e1461024157806342966c681461026157610155565b806301ffc9a71461015a57806306fdde0314610190578063081812fc146101b2578063095ea7b3146101df57806323b872dd14610201575b600080fd5b34801561016657600080fd5b5061017a6101753660046112ac565b61040d565b60405161018791906113ec565b60405180910390f35b34801561019c57600080fd5b506101a5610455565b60405161018791906113f7565b3480156101be57600080fd5b506101d26101cd3660046112e4565b6104e7565b604051610187919061139c565b3480156101eb57600080fd5b506101ff6101fa366004611283565b610533565b005b34801561020d57600080fd5b506101ff61021c366004611142565b6105cb565b34801561022d57600080fd5b506101ff61023c366004611283565b610603565b34801561024d57600080fd5b506101ff61025c366004611142565b61064b565b34801561026d57600080fd5b506101ff61027c3660046112e4565b610666565b34801561028d57600080fd5b50610296610699565b60405161018792919061193a565b3480156102b057600080fd5b506101d26102bf3660046112e4565b6106ac565b3480156102d057600080fd5b5061017a6106e1565b3480156102e557600080fd5b506102f96102f43660046110f6565b6106e6565b6040516101879190611931565b34801561031257600080fd5b506102f961072a565b34801561032757600080fd5b506101ff610336366004611142565b610730565b34801561034757600080fd5b506101a5610776565b34801561035c57600080fd5b506101d2610785565b34801561037157600080fd5b506101d2610794565b34801561038657600080fd5b506101ff610395366004611249565b6107a3565b3480156103a657600080fd5b506101ff6103b536600461117d565b610871565b3480156103c657600080fd5b506101a56103d53660046112e4565b6108b0565b6101ff6103e83660046112fc565b610933565b3480156103f957600080fd5b5061017a610408366004611110565b610a3b565b60006001600160e01b031982166380ac58cd60e01b148061043e57506001600160e01b03198216635b5e139f60e01b145b8061044d575061044d82610a69565b90505b919050565b606060008054610464906119df565b80601f0160208091040260200160405190810160405280929190818152602001828054610490906119df565b80156104dd5780601f106104b2576101008083540402835291602001916104dd565b820191906000526020600020905b8154815290600101906020018083116104c057829003601f168201915b5050505050905090565b60006104f282610a82565b6105175760405162461bcd60e51b815260040161050e90611744565b60405180910390fd5b506000908152600460205260409020546001600160a01b031690565b600061053e826106ac565b9050806001600160a01b0316836001600160a01b031614156105725760405162461bcd60e51b815260040161050e90611836565b806001600160a01b0316610584610a9f565b6001600160a01b031614806105a057506105a081610408610a9f565b6105bc5760405162461bcd60e51b815260040161050e906115c2565b6105c68383610aa3565b505050565b6105dc6105d6610a9f565b82610b11565b6105f85760405162461bcd60e51b815260040161050e90611877565b6105c6838383610b96565b6008546001600160a01b0316610617610a9f565b6001600160a01b03161461063d5760405162461bcd60e51b815260040161050e9061149e565b6106478282610cc3565b5050565b6105c683838360405180602001604052806000815250610871565b6106716105d6610a9f565b61068d5760405162461bcd60e51b815260040161050e906118d4565b61069681610da2565b50565b6006546007546001600160a01b03169091565b6000818152600260205260408120546001600160a01b03168061044d5760405162461bcd60e51b815260040161050e90611669565b600190565b60006001600160a01b03821661070e5760405162461bcd60e51b815260040161050e9061161f565b506001600160a01b031660009081526003602052604090205490565b60065490565b80826001600160a01b0316846001600160a01b03167f06cb0b9d04d0ac2a93b9b9a93ee6c2511e069efb107c06eee43c85021fbc04ed60405160405180910390a4505050565b606060018054610464906119df565b6007546001600160a01b031690565b6008546001600160a01b031681565b6107ab610a9f565b6001600160a01b0316826001600160a01b031614156107dc5760405162461bcd60e51b815260040161050e9061153f565b80600560006107e9610a9f565b6001600160a01b03908116825260208083019390935260409182016000908120918716808252919093529120805460ff19169215159290921790915561082d610a9f565b6001600160a01b03167f17307eab39ab6107e8899845ad3d59bd9653f200f220920489ca2b5937696c318360405161086591906113ec565b60405180910390a35050565b61088261087c610a9f565b83610b11565b61089e5760405162461bcd60e51b815260040161050e90611877565b6108aa84848484610e49565b50505050565b60606108bb82610a82565b6108d75760405162461bcd60e51b815260040161050e906117d9565b60006108e1610e7c565b90506000815111610901576040518060200160405280600081525061092c565b8061090b84610e8b565b60405160200161091c92919061136d565b6040516020818303038152906040525b9392505050565b8334146109525760405162461bcd60e51b815260040161050e906116b2565b6000606460065434610964919061197d565b61096e9190611969565b6007546040519192506001600160a01b031690819083156108fc029084906000818181858888f193505050501580156109ab573d6000803e3d6000fd5b506001600160a01b0384166108fc6109c3843461199c565b6040518115909202916000818181858888f193505050501580156109eb573d6000803e3d6000fd5b50610a1c8484876040518060400160405280600c81526020016b1c9bde585b1d1e481c185a5960a21b815250610871565b600754610a33906001600160a01b03168484610730565b505050505050565b6001600160a01b03918216600090815260056020908152604080832093909416825291909152205460ff1690565b6001600160e01b031981166301ffc9a760e01b14919050565b6000908152600260205260409020546001600160a01b0316151590565b3390565b600081815260046020526040902080546001600160a01b0319166001600160a01b0384169081179091558190610ad8826106ac565b6001600160a01b03167f8c5be1e5ebec7d5bd14f71427d1e84f3dd0314c0f7b2291e5b200ac8c7c3b92560405160405180910390a45050565b6000610b1c82610a82565b610b385760405162461bcd60e51b815260040161050e90611576565b6000610b43836106ac565b9050806001600160a01b0316846001600160a01b03161480610b7e5750836001600160a01b0316610b73846104e7565b6001600160a01b0316145b80610b8e5750610b8e8185610a3b565b949350505050565b826001600160a01b0316610ba9826106ac565b6001600160a01b031614610bcf5760405162461bcd60e51b815260040161050e90611790565b6001600160a01b038216610bf55760405162461bcd60e51b815260040161050e906114fb565b610c008383836105c6565b610c0b600082610aa3565b6001600160a01b0383166000908152600360205260408120805460019290610c3490849061199c565b90915550506001600160a01b0382166000908152600360205260408120805460019290610c62908490611951565b909155505060008181526002602052604080822080546001600160a01b0319166001600160a01b0386811691821790925591518493918716917fddf252ad1be2c89b69c2b068fc378daa952ba7f163c4a11628f55a4df523b3ef91a4505050565b6001600160a01b038216610ce95760405162461bcd60e51b815260040161050e9061170f565b610cf281610a82565b15610d0f5760405162461bcd60e51b815260040161050e90611467565b610d1b600083836105c6565b6001600160a01b0382166000908152600360205260408120805460019290610d44908490611951565b909155505060008181526002602052604080822080546001600160a01b0319166001600160a01b03861690811790915590518392907fddf252ad1be2c89b69c2b068fc378daa952ba7f163c4a11628f55a4df523b3ef908290a45050565b6000610dad826106ac565b9050610dbb816000846105c6565b610dc6600083610aa3565b6001600160a01b0381166000908152600360205260408120805460019290610def90849061199c565b909155505060008281526002602052604080822080546001600160a01b0319169055518391906001600160a01b038416907fddf252ad1be2c89b69c2b068fc378daa952ba7f163c4a11628f55a4df523b3ef908390a45050565b610e54848484610b96565b610e6084848484610fbe565b6108aa5760405162461bcd60e51b815260040161050e9061140a565b606060098054610464906119df565b606081610eb057506040805180820190915260018152600360fc1b6020820152610450565b8160005b8115610eda5780610ec481611a1a565b9150610ed39050600a83611969565b9150610eb4565b60008167ffffffffffffffff811115610f0357634e487b7160e01b600052604160045260246000fd5b6040519080825280601f01601f191660200182016040528015610f2d576020820181803683370190505b5090505b8415610b8e57610f4260018361199c565b9150610f4f600a86611a35565b610f5a906030611951565b60f81b818381518110610f7d57634e487b7160e01b600052603260045260246000fd5b60200101907effffffffffffffffffffffffffffffffffffffffffffffffffffffffffffff1916908160001a905350610fb7600a86611969565b9450610f31565b6000610fd2846001600160a01b03166110d9565b156110ce57836001600160a01b031663150b7a02610fee610a9f565b8786866040518563ffffffff1660e01b815260040161101094939291906113b0565b602060405180830381600087803b15801561102a57600080fd5b505af192505050801561105a575060408051601f3d908101601f19168201909252611057918101906112c8565b60015b6110b4573d808015611088576040519150601f19603f3d011682016040523d82523d6000602084013e61108d565b606091505b5080516110ac5760405162461bcd60e51b815260040161050e9061140a565b805181602001fd5b6001600160e01b031916630a85bd0160e11b149050610b8e565b506001949350505050565b3b151590565b80356001600160a01b038116811461045057600080fd5b600060208284031215611107578081fd5b61092c826110df565b60008060408385031215611122578081fd5b61112b836110df565b9150611139602084016110df565b90509250929050565b600080600060608486031215611156578081fd5b61115f846110df565b925061116d602085016110df565b9150604084013590509250925092565b60008060008060808587031215611192578081fd5b61119b856110df565b935060206111aa8187016110df565b935060408601359250606086013567ffffffffffffffff808211156111cd578384fd5b818801915088601f8301126111e0578384fd5b8135818111156111f2576111f2611a75565b604051601f8201601f191681018501838111828210171561121557611215611a75565b60405281815283820185018b101561122b578586fd5b81858501868301379081019093019390935250939692955090935050565b6000806040838503121561125b578182fd5b611264836110df565b915060208301358015158114611278578182fd5b809150509250929050565b60008060408385031215611295578182fd5b61129e836110df565b946020939093013593505050565b6000602082840312156112bd578081fd5b813561092c81611a8b565b6000602082840312156112d9578081fd5b815161092c81611a8b565b6000602082840312156112f5578081fd5b5035919050565b60008060008060808587031215611311578384fd5b8435935060208501359250611328604086016110df565b9150611336606086016110df565b905092959194509250565b600081518084526113598160208601602086016119b3565b601f01601f19169290920160200192915050565b6000835161137f8184602088016119b3565b8351908301906113938183602088016119b3565b01949350505050565b6001600160a01b0391909116815260200190565b60006001600160a01b038087168352808616602084015250836040830152608060608301526113e26080830184611341565b9695505050505050565b901515815260200190565b60006020825261092c6020830184611341565b60208082526032908201527f4552433732313a207472616e7366657220746f206e6f6e20455243373231526560408201527f63656976657220696d706c656d656e7465720000000000000000000000000000606082015260800190565b6020808252601c908201527f4552433732313a20746f6b656e20616c7265616479206d696e74656400000000604082015260600190565b60208082526039908201527f5052495649506f64455243373231546f6b656e3a204f6e6c7920466163746f7260408201527f792063616e2063616c6c20746869732066756e6374696f6e2e00000000000000606082015260800190565b60208082526024908201527f4552433732313a207472616e7366657220746f20746865207a65726f206164646040820152637265737360e01b606082015260800190565b60208082526019908201527f4552433732313a20617070726f766520746f2063616c6c657200000000000000604082015260600190565b6020808252602c908201527f4552433732313a206f70657261746f7220717565727920666f72206e6f6e657860408201526b34b9ba32b73a103a37b5b2b760a11b606082015260800190565b60208082526038908201527f4552433732313a20617070726f76652063616c6c6572206973206e6f74206f7760408201527f6e6572206e6f7220617070726f76656420666f7220616c6c0000000000000000606082015260800190565b6020808252602a908201527f4552433732313a2062616c616e636520717565727920666f7220746865207a65604082015269726f206164647265737360b01b606082015260800190565b60208082526029908201527f4552433732313a206f776e657220717565727920666f72206e6f6e657869737460408201526832b73a103a37b5b2b760b91b606082015260800190565b60208082526039908201527f5052495649506f64455243373231526f79616c7479546f6b656e3a20726f796160408201527f6c747920616d6f756e74206973206e6f7420636f727265637400000000000000606082015260800190565b6020808252818101527f4552433732313a206d696e7420746f20746865207a65726f2061646472657373604082015260600190565b6020808252602c908201527f4552433732313a20617070726f76656420717565727920666f72206e6f6e657860408201526b34b9ba32b73a103a37b5b2b760a11b606082015260800190565b60208082526029908201527f4552433732313a207472616e73666572206f6620746f6b656e2074686174206960408201526839903737ba1037bbb760b91b606082015260800190565b6020808252602f908201527f4552433732314d657461646174613a2055524920717565727920666f72206e6f60408201527f6e6578697374656e7420746f6b656e0000000000000000000000000000000000606082015260800190565b60208082526021908201527f4552433732313a20617070726f76616c20746f2063757272656e74206f776e656040820152603960f91b606082015260800190565b60208082526031908201527f4552433732313a207472616e736665722063616c6c6572206973206e6f74206f60408201527f776e6572206e6f7220617070726f766564000000000000000000000000000000606082015260800190565b60208082526030908201527f4552433732314275726e61626c653a2063616c6c6572206973206e6f74206f7760408201527f6e6572206e6f7220617070726f76656400000000000000000000000000000000606082015260800190565b90815260200190565b9182526001600160a01b0316602082015260400190565b6000821982111561196457611964611a49565b500190565b60008261197857611978611a5f565b500490565b600081600019048311821515161561199757611997611a49565b500290565b6000828210156119ae576119ae611a49565b500390565b60005b838110156119ce5781810151838201526020016119b6565b838111156108aa5750506000910152565b6002810460018216806119f357607f821691505b60208210811415611a1457634e487b7160e01b600052602260045260246000fd5b50919050565b6000600019821415611a2e57611a2e611a49565b5060010190565b600082611a4457611a44611a5f565b500690565b634e487b7160e01b600052601160045260246000fd5b634e487b7160e01b600052601260045260246000fd5b634e487b7160e01b600052604160045260246000fd5b6001600160e01b03198116811461069657600080fdfea264697066735822122072e828ef59f89c8ef4b4daab5ed37dc47bda6acb44aad24fb9eb695fc8af16b064736f6c63430008000033",
  "immutableReferences": {},
  "source": "// SPDX-License-Identifier: MIT\npragma solidity ^0.8.0;\n\nimport \"@openzeppelin/contracts/token/ERC721/ERC721.sol\";\nimport \"@openzeppelin/contracts/token/ERC721/extensions/ERC721Burnable.sol\";\nimport \"../abstracts/NFTRoyalty.sol\";\n\n/**\n * @dev {ERC20} token, including:\n *\n *  - ability for holders to burn (destroy) their tokens\n *  - a factoryOnly modifier, that grants mint capabilities only to factory who deployed this pod token contract\n *\n */\ncontract PRIVIPodERC721RoyaltyToken is Context, ERC721Burnable, NFTRoyalty {\n\n  address public parentFactory;\n\n  string private _baseTokenURI;\n\n  /**\n   * @dev Sets factory address\n   *\n   * See {ERC20-constructor}.\n   */\n  constructor(\n    string memory name,\n    string memory symbol,\n    string memory baseURI,\n    address factory,\n    uint256 royaltyAmount,\n    address creator\n  ) ERC721(name, symbol) NFTRoyalty(royaltyAmount, creator) {\n    parentFactory = factory;\n    _baseTokenURI = baseURI;\n  }\n\n  modifier onlyFactory() {\n    require(\n      _msgSender() == parentFactory,\n      \"PRIVIPodERC721Token: Only Factory can call this function.\"\n    );\n    _;\n  }\n\n  function _baseURI() internal view virtual override returns (string memory) {\n    return _baseTokenURI;\n  }\n\n  /**\n   * @dev Creates `amount` new tokens for `to`.\n   *\n   * See {ERC20-_mint}.\n   *\n   * Requirements:\n   *\n   * - the caller must be factory only.\n   */\n  function mint(address to, uint256 tokenId) public virtual onlyFactory {\n    // We cannot just use balanceOf to create the new tokenId because tokens\n    // can be burned (destroyed)\n    _mint(to, tokenId);\n  }\n\n  /**\n   * @dev Safely transfers `tokenId` token from `from` to `to`, checking first that contract recipients\n   * are aware of the ERC721 protocol to prevent tokens from being forever locked.\n   * Then pay royalty amount.\n   *\n   * Requirements:\n   *\n   * - approval from current owner of token id\n   *\n   * Emits a {RecievedRoyalties} event.\n   *\n   * Problems: TODO: may have reentrancy\n   */\n  function marketSell(\n    uint256 sellAmount,\n    uint256 tokenId,\n    address from,\n    address to\n  ) public payable {\n    // make sure all the fund is deposited here first\n    require(\n      msg.value == sellAmount,\n      \"PRIVIPodERC721RoyaltyToken: royalty amount is not correct\"\n    );\n\n    // pay creator\n    // TODO: needs testing for very low and hi amount\n    uint256 creatorShare = (msg.value * royalty_amount) / 100;\n    address payable royaltyOwner = payable(creator);\n    royaltyOwner.transfer(creatorShare);\n\n    // pay current owner\n    payable(from).transfer(msg.value - creatorShare);\n\n    // transfer token\n    safeTransferFrom(from, to, tokenId, bytes(\"royalty paid\"));\n\n    // event\n    royaltiesRecieved(creator, to, creatorShare);\n  }\n\n  /*\n  function _beforeTokenTransfer(\n    address from,\n    address to,\n    uint256 tokenId\n  ) internal virtual override(ERC721) {\n    super._beforeTokenTransfer(from, to, tokenId);\n  }\n  */\n}\n",
  "sourcePath": "/Volumes/Workspace/PRIVI/PRIVIethereum/contracts/token/PRIVIPodERC721RoyaltyToken.sol",
  "compiler": {
    "name": "solc",
    "version": "0.8.0+commit.c7dfd78e.Emscripten.clang"
  },
  "schemaVersion": "3.3.4",
  "updatedAt": "2021-04-21T21:39:46.705Z",
  "devdoc": {
    "details": "{ERC20} token, including:  - ability for holders to burn (destroy) their tokens  - a factoryOnly modifier, that grants mint capabilities only to factory who deployed this pod token contract",
    "kind": "dev",
    "methods": {
      "approve(address,uint256)": {
        "details": "See {IERC721-approve}."
      },
      "balanceOf(address)": {
        "details": "See {IERC721-balanceOf}."
      },
      "burn(uint256)": {
        "details": "Burns `tokenId`. See {ERC721-_burn}. Requirements: - The caller must own `tokenId` or be an approved operator."
      },
      "constructor": {
        "details": "Sets factory address See {ERC20-constructor}."
      },
      "getApproved(uint256)": {
        "details": "See {IERC721-getApproved}."
      },
      "isApprovedForAll(address,address)": {
        "details": "See {IERC721-isApprovedForAll}."
      },
      "marketSell(uint256,uint256,address,address)": {
        "details": "Safely transfers `tokenId` token from `from` to `to`, checking first that contract recipients are aware of the ERC721 protocol to prevent tokens from being forever locked. Then pay royalty amount. Requirements: - approval from current owner of token id Emits a {RecievedRoyalties} event. Problems: TODO: may have reentrancy"
      },
      "mint(address,uint256)": {
        "details": "Creates `amount` new tokens for `to`. See {ERC20-_mint}. Requirements: - the caller must be factory only."
      },
      "name()": {
        "details": "See {IERC721Metadata-name}."
      },
      "ownerOf(uint256)": {
        "details": "See {IERC721-ownerOf}."
      },
      "safeTransferFrom(address,address,uint256)": {
        "details": "See {IERC721-safeTransferFrom}."
      },
      "safeTransferFrom(address,address,uint256,bytes)": {
        "details": "See {IERC721-safeTransferFrom}."
      },
      "setApprovalForAll(address,bool)": {
        "details": "See {IERC721-setApprovalForAll}."
      },
      "supportsInterface(bytes4)": {
        "details": "See {IERC165-supportsInterface}."
      },
      "symbol()": {
        "details": "See {IERC721Metadata-symbol}."
      },
      "tokenURI(uint256)": {
        "details": "See {IERC721Metadata-tokenURI}."
      },
      "transferFrom(address,address,uint256)": {
        "details": "See {IERC721-transferFrom}."
      }
    },
    "version": 1
  },
  "userdoc": {
    "events": {
      "RecievedRoyalties(address,address,uint256)": {
        "notice": "(Mandatory) This event is emitted when royalties are transfered."
      }
    },
    "kind": "user",
    "methods": {
      "hasRoyalties()": {
        "notice": "(optional) check if NFT has royalty"
      },
      "royaltiesRecieved(address,address,uint256)": {
        "notice": "(optional) check if NFT has royalty"
      },
      "royaltyAmount()": {
        "notice": "(optional) get royalty amount"
      },
      "royaltyCreator()": {
        "notice": "(optional) get royalty creator address"
      },
      "royaltyInfo()": {
        "notice": "(Mandatory) This Function retrieve royalty info."
      }
    },
    "version": 1
  }
}