{
  "contractName": "PRIVIPodERC721Factory",
  "abi": [
    {
      "inputs": [
        {
          "internalType": "address",
          "name": "bridgeAddress",
          "type": "address"
        }
      ],
      "stateMutability": "nonpayable",
      "type": "constructor"
    },
    {
      "anonymous": false,
      "inputs": [
        {
          "indexed": true,
          "internalType": "string",
          "name": "podId",
          "type": "string"
        },
        {
          "indexed": false,
          "internalType": "string",
          "name": "podTokenName",
          "type": "string"
        },
        {
          "indexed": false,
          "internalType": "string",
          "name": "podTokenSymbol",
          "type": "string"
        }
      ],
      "name": "PodCreated",
      "type": "event"
    },
    {
      "anonymous": false,
      "inputs": [
        {
          "indexed": true,
          "internalType": "bytes32",
          "name": "role",
          "type": "bytes32"
        },
        {
          "indexed": true,
          "internalType": "bytes32",
          "name": "previousAdminRole",
          "type": "bytes32"
        },
        {
          "indexed": true,
          "internalType": "bytes32",
          "name": "newAdminRole",
          "type": "bytes32"
        }
      ],
      "name": "RoleAdminChanged",
      "type": "event"
    },
    {
      "anonymous": false,
      "inputs": [
        {
          "indexed": true,
          "internalType": "bytes32",
          "name": "role",
          "type": "bytes32"
        },
        {
          "indexed": true,
          "internalType": "address",
          "name": "account",
          "type": "address"
        },
        {
          "indexed": true,
          "internalType": "address",
          "name": "sender",
          "type": "address"
        }
      ],
      "name": "RoleGranted",
      "type": "event"
    },
    {
      "anonymous": false,
      "inputs": [
        {
          "indexed": true,
          "internalType": "bytes32",
          "name": "role",
          "type": "bytes32"
        },
        {
          "indexed": true,
          "internalType": "address",
          "name": "account",
          "type": "address"
        },
        {
          "indexed": true,
          "internalType": "address",
          "name": "sender",
          "type": "address"
        }
      ],
      "name": "RoleRevoked",
      "type": "event"
    },
    {
      "inputs": [],
      "name": "DEFAULT_ADMIN_ROLE",
      "outputs": [
        {
          "internalType": "bytes32",
          "name": "",
          "type": "bytes32"
        }
      ],
      "stateMutability": "view",
      "type": "function",
      "constant": true
    },
    {
      "inputs": [],
      "name": "MODERATOR_ROLE",
      "outputs": [
        {
          "internalType": "bytes32",
          "name": "",
          "type": "bytes32"
        }
      ],
      "stateMutability": "view",
      "type": "function",
      "constant": true
    },
    {
      "inputs": [],
      "name": "bridgeManagerAddress",
      "outputs": [
        {
          "internalType": "address",
          "name": "",
          "type": "address"
        }
      ],
      "stateMutability": "view",
      "type": "function",
      "constant": true
    },
    {
      "inputs": [
        {
          "internalType": "bytes32",
          "name": "role",
          "type": "bytes32"
        }
      ],
      "name": "getRoleAdmin",
      "outputs": [
        {
          "internalType": "bytes32",
          "name": "",
          "type": "bytes32"
        }
      ],
      "stateMutability": "view",
      "type": "function",
      "constant": true
    },
    {
      "inputs": [
        {
          "internalType": "bytes32",
          "name": "role",
          "type": "bytes32"
        },
        {
          "internalType": "address",
          "name": "account",
          "type": "address"
        }
      ],
      "name": "grantRole",
      "outputs": [],
      "stateMutability": "nonpayable",
      "type": "function"
    },
    {
      "inputs": [
        {
          "internalType": "bytes32",
          "name": "role",
          "type": "bytes32"
        },
        {
          "internalType": "address",
          "name": "account",
          "type": "address"
        }
      ],
      "name": "hasRole",
      "outputs": [
        {
          "internalType": "bool",
          "name": "",
          "type": "bool"
        }
      ],
      "stateMutability": "view",
      "type": "function",
      "constant": true
    },
    {
      "inputs": [
        {
          "internalType": "bytes32",
          "name": "role",
          "type": "bytes32"
        },
        {
          "internalType": "address",
          "name": "account",
          "type": "address"
        }
      ],
      "name": "renounceRole",
      "outputs": [],
      "stateMutability": "nonpayable",
      "type": "function"
    },
    {
      "inputs": [
        {
          "internalType": "bytes32",
          "name": "role",
          "type": "bytes32"
        },
        {
          "internalType": "address",
          "name": "account",
          "type": "address"
        }
      ],
      "name": "revokeRole",
      "outputs": [],
      "stateMutability": "nonpayable",
      "type": "function"
    },
    {
      "inputs": [
        {
          "internalType": "bytes4",
          "name": "interfaceId",
          "type": "bytes4"
        }
      ],
      "name": "supportsInterface",
      "outputs": [
        {
          "internalType": "bool",
          "name": "",
          "type": "bool"
        }
      ],
      "stateMutability": "view",
      "type": "function",
      "constant": true
    },
    {
      "inputs": [
        {
          "internalType": "address",
          "name": "swapManagerAddress",
          "type": "address"
        }
      ],
      "name": "assignRoleSwapManager",
      "outputs": [],
      "stateMutability": "nonpayable",
      "type": "function"
    },
    {
      "inputs": [],
      "name": "getTotalTokenCreated",
      "outputs": [
        {
          "internalType": "uint256",
          "name": "totalPods",
          "type": "uint256"
        }
      ],
      "stateMutability": "view",
      "type": "function",
      "constant": true
    },
    {
      "inputs": [
        {
          "internalType": "string",
          "name": "podId",
          "type": "string"
        }
      ],
      "name": "getPodAddressById",
      "outputs": [
        {
          "internalType": "address",
          "name": "podAddress",
          "type": "address"
        }
      ],
      "stateMutability": "view",
      "type": "function",
      "constant": true
    },
    {
      "inputs": [
        {
          "internalType": "string",
          "name": "tokenSymbol",
          "type": "string"
        }
      ],
      "name": "getPodAddressBySymbol",
      "outputs": [
        {
          "internalType": "address",
          "name": "podAddress",
          "type": "address"
        }
      ],
      "stateMutability": "view",
      "type": "function",
      "constant": true
    },
    {
      "inputs": [
        {
          "internalType": "string",
          "name": "podId",
          "type": "string"
        },
        {
          "internalType": "string",
          "name": "podTokenName",
          "type": "string"
        },
        {
          "internalType": "string",
          "name": "podTokenSymbol",
          "type": "string"
        },
        {
          "internalType": "string",
          "name": "baseURI",
          "type": "string"
        }
      ],
      "name": "createPod",
      "outputs": [
        {
          "internalType": "address",
          "name": "podAddress",
          "type": "address"
        }
      ],
      "stateMutability": "nonpayable",
      "type": "function"
    },
    {
      "inputs": [
        {
          "internalType": "string",
          "name": "podId",
          "type": "string"
        },
        {
          "internalType": "uint256",
          "name": "tokenId",
          "type": "uint256"
        },
        {
          "internalType": "address",
          "name": "account",
          "type": "address"
        }
      ],
      "name": "mintPodTokenById",
      "outputs": [],
      "stateMutability": "nonpayable",
      "type": "function"
    },
    {
      "inputs": [
        {
          "internalType": "string",
          "name": "tokenSymbol",
          "type": "string"
        },
        {
          "internalType": "uint256",
          "name": "tokenId",
          "type": "uint256"
        },
        {
          "internalType": "address",
          "name": "account",
          "type": "address"
        }
      ],
      "name": "mintPodTokenBySymbol",
      "outputs": [],
      "stateMutability": "nonpayable",
      "type": "function"
    }
  ],
  "bytecode": "0x60806040523480156200001157600080fd5b5060405162002ca238038062002ca2833981016040819052620000349162000166565b6200004a6000620000446200009f565b620000a3565b620000797f71f3d55856e4058ed06ee057d79ada615f65cdf5f9ee88181b914225088f834f620000446200009f565b600180546001600160a01b0319166001600160a01b039290921691909117905562000196565b3390565b620000af8282620000b3565b5050565b620000bf82826200013d565b620000af576000828152602081815260408083206001600160a01b03851684529091529020805460ff19166001179055620000f96200009f565b6001600160a01b0316816001600160a01b0316837f2f8788117e7eff1d82e926ec794901d17c78024a50270940304540a733656f0d60405160405180910390a45050565b6000918252602082815260408084206001600160a01b0393909316845291905290205460ff1690565b60006020828403121562000178578081fd5b81516001600160a01b03811681146200018f578182fd5b9392505050565b612afc80620001a66000396000f3fe60806040523480156200001157600080fd5b5060043610620001185760003560e01c8063797669c911620000a5578063cc6365fd116200006f578063cc6365fd1462000242578063d547741f1462000259578063db3b8f711462000270578063e792b19414620002875762000118565b8063797669c914620002005780638d1909ed146200020a57806391d148541462000221578063a217fddf14620002385762000118565b80632f2ff15d11620000e75780632f2ff15d14620001a25780633325a4e414620001bb57806336568abe14620001d257806354f32c6414620001e95762000118565b806301ffc9a7146200011d5780630fc09e2e146200014c57806322b2edeb1462000165578063248a9ca3146200018b575b600080fd5b620001346200012e36600462000ada565b62000291565b60405162000143919062000cdc565b60405180910390f35b62000156620002c1565b60405162000143919062000ce7565b6200017c6200017636600462000b04565b620002c7565b60405162000143919062000caf565b620001566200019c36600462000a93565b620002fd565b620001b9620001b336600462000aac565b62000312565b005b6200017c620001cc36600462000b04565b62000363565b620001b9620001e336600462000aac565b62000379565b620001b9620001fa36600462000c14565b620003c2565b62000156620004c3565b620001b96200021b36600462000a6f565b620004e7565b620001346200023236600462000aac565b62000564565b620001566200058d565b620001b96200025336600462000c14565b62000592565b620001b96200026a36600462000aac565b6200061d565b6200017c6200028136600462000b48565b6200064b565b6200017c620008c1565b60006001600160e01b03198216637965db0b60e01b1480620002b95750620002b982620008d0565b90505b919050565b60025490565b600060038383604051620002dd92919062000c9f565b908152604051908190036020019020546001600160a01b03169392505050565b60009081526020819052604090206001015490565b6200032b6200032183620002fd565b62000232620008e9565b620003535760405162461bcd60e51b81526004016200034a9062000dcd565b60405180910390fd5b6200035f8282620008ed565b5050565b600060048383604051620002dd92919062000c9f565b62000383620008e9565b6001600160a01b0316816001600160a01b031614620003b65760405162461bcd60e51b81526004016200034a906200106c565b6200035f828262000977565b620003f17f71f3d55856e4058ed06ee057d79ada615f65cdf5f9ee88181b914225088f834f62000232620008e9565b620004105760405162461bcd60e51b81526004016200034a9062000fb4565b6001600160a01b038116620004395760405162461bcd60e51b81526004016200034a9062000e87565b600384846040516200044d92919062000c9f565b908152604051908190036020018120546340c10f1960e01b82526001600160a01b0316906340c10f199062000489908490869060040162000cc3565b600060405180830381600087803b158015620004a457600080fd5b505af1158015620004b9573d6000803e3d6000fd5b5050505050505050565b7f71f3d55856e4058ed06ee057d79ada615f65cdf5f9ee88181b914225088f834f81565b620005167f71f3d55856e4058ed06ee057d79ada615f65cdf5f9ee88181b914225088f834f62000232620008e9565b620005355760405162461bcd60e51b81526004016200034a9062000f41565b620005617f71f3d55856e4058ed06ee057d79ada615f65cdf5f9ee88181b914225088f834f8262000353565b50565b6000918252602082815260408084206001600160a01b0393909316845291905290205460ff1690565b600081565b620005c17f71f3d55856e4058ed06ee057d79ada615f65cdf5f9ee88181b914225088f834f62000232620008e9565b620005e05760405162461bcd60e51b81526004016200034a9062000fb4565b6001600160a01b038116620006095760405162461bcd60e51b81526004016200034a9062000e87565b600484846040516200044d92919062000c9f565b6200062c6200032183620002fd565b620003b65760405162461bcd60e51b81526004016200034a9062000e2a565b6000806001600160a01b031660038a8a6040516200066b92919062000c9f565b908152604051908190036020019020546001600160a01b031614620006a45760405162461bcd60e51b81526004016200034a9062001020565b60006001600160a01b031660048686604051620006c392919062000c9f565b908152604051908190036020019020546001600160a01b031614620006fc5760405162461bcd60e51b81526004016200034a9062000ee4565b6000878787878787306040516200071390620009ff565b62000725979695949392919062000d6d565b604051809103906000f08015801562000742573d6000803e3d6000fd5b5090508091506001600260008282546200075d9190620010c9565b925050819055508160038b8b6040516200077992919062000c9f565b908152602001604051809103902060006101000a8154816001600160a01b0302191690836001600160a01b031602179055508160048787604051620007c092919062000c9f565b90815260405190819003602001812080546001600160a01b0393841673ffffffffffffffffffffffffffffffffffffffff1990911617905560015463c082713b60e01b82529091169063c082713b9062000827908b908b908b908b90899060040162000d26565b600060405180830381600087803b1580156200084257600080fd5b505af115801562000857573d6000803e3d6000fd5b5050505089896040516200086d92919062000c9f565b60405180910390207fc0512f6474c9ee949f1cbdc88e43ca774f79b5f1f07d8484696e1cf1a0bd87ce89898989604051620008ac949392919062000cf0565b60405180910390a25098975050505050505050565b6001546001600160a01b031681565b6001600160e01b031981166301ffc9a760e01b14919050565b3390565b620008f9828262000564565b6200035f576000828152602081815260408083206001600160a01b03851684529091529020805460ff1916600117905562000933620008e9565b6001600160a01b0316816001600160a01b0316837f2f8788117e7eff1d82e926ec794901d17c78024a50270940304540a733656f0d60405160405180910390a45050565b62000983828262000564565b156200035f576000828152602081815260408083206001600160a01b03851684529091529020805460ff19169055620009bb620008e9565b6001600160a01b0316816001600160a01b0316837ff6391f5c32d9c69d2a47ea670b442974b53935d1edc7fd64eb21e047a839171b60405160405180910390a45050565b6119d880620010ef83390190565b80356001600160a01b0381168114620002bc57600080fd5b60008083601f84011262000a37578182fd5b50813567ffffffffffffffff81111562000a4f578182fd5b60208301915083602082850101111562000a6857600080fd5b9250929050565b60006020828403121562000a81578081fd5b62000a8c8262000a0d565b9392505050565b60006020828403121562000aa5578081fd5b5035919050565b6000806040838503121562000abf578081fd5b8235915062000ad16020840162000a0d565b90509250929050565b60006020828403121562000aec578081fd5b81356001600160e01b03198116811462000a8c578182fd5b6000806020838503121562000b17578182fd5b823567ffffffffffffffff81111562000b2e578283fd5b62000b3c8582860162000a25565b90969095509350505050565b6000806000806000806000806080898b03121562000b64578384fd5b883567ffffffffffffffff8082111562000b7c578586fd5b62000b8a8c838d0162000a25565b909a50985060208b013591508082111562000ba3578586fd5b62000bb18c838d0162000a25565b909850965060408b013591508082111562000bca578586fd5b62000bd88c838d0162000a25565b909650945060608b013591508082111562000bf1578384fd5b5062000c008b828c0162000a25565b999c989b5096995094979396929594505050565b6000806000806060858703121562000c2a578384fd5b843567ffffffffffffffff81111562000c41578485fd5b62000c4f8782880162000a25565b9095509350506020850135915062000c6a6040860162000a0d565b905092959194509250565b60008284528282602086013780602084860101526020601f19601f85011685010190509392505050565b6000828483379101908152919050565b6001600160a01b0391909116815260200190565b6001600160a01b03929092168252602082015260400190565b901515815260200190565b90815260200190565b60006040825262000d0660408301868862000c75565b828103602084015262000d1b81858762000c75565b979650505050505050565b60006060825262000d3c60608301878962000c75565b828103602084015262000d5181868862000c75565b9150506001600160a01b03831660408301529695505050505050565b60006080825262000d8360808301898b62000c75565b828103602084015262000d9881888a62000c75565b9050828103604084015262000daf81868862000c75565b9150506001600160a01b038316606083015298975050505050505050565b6020808252602f908201527f416363657373436f6e74726f6c3a2073656e646572206d75737420626520616e60408201527f2061646d696e20746f206772616e740000000000000000000000000000000000606082015260800190565b60208082526030908201527f416363657373436f6e74726f6c3a2073656e646572206d75737420626520616e60408201527f2061646d696e20746f207265766f6b6500000000000000000000000000000000606082015260800190565b60208082526039908201527f5052495649506f64455243373231466163746f72793a204163636f756e74206160408201527f6464726573732073686f756c64206e6f74206265207a65726f00000000000000606082015260800190565b60208082526030908201527f5052495649506f64455243373231466163746f72793a20506f642073796d626f60408201527f6c20616c72656164792065786973747300000000000000000000000000000000606082015260800190565b6020808252604d908201527f5052495649506f64455243373231466163746f72793a206d757374206861766560408201527f204d4f44455241544f525f524f4c4520746f2061737369676e20537761704d6160608201526c6e61676572206164647265737360981b608082015260a00190565b60208082526046908201527f5052495649506f64455243373231466163746f72793a206d757374206861766560408201527f204d4f44455241544f525f524f4c4520746f20696e7665737420666f7220696e6060820152653b32b9ba37b960d11b608082015260a00190565b6020808252602c908201527f5052495649506f64455243373231466163746f72793a20506f6420696420616c60408201526b72656164792065786973747360a01b606082015260800190565b6020808252602f908201527f416363657373436f6e74726f6c3a2063616e206f6e6c792072656e6f756e636560408201527f20726f6c657320666f722073656c660000000000000000000000000000000000606082015260800190565b60008219821115620010e957634e487b7160e01b81526011600452602481fd5b50019056fe60806040523480156200001157600080fd5b50604051620019d8380380620019d88339810160408190526200003491620001f2565b8351849084906200004d906000906020850190620000a1565b50805162000063906001906020840190620000a1565b5050600680546001600160a01b0319166001600160a01b03841617905550815162000096906007906020850190620000a1565b5050505050620002f3565b828054620000af90620002a0565b90600052602060002090601f016020900481019282620000d357600085556200011e565b82601f10620000ee57805160ff19168380011785556200011e565b828001600101855582156200011e579182015b828111156200011e57825182559160200191906001019062000101565b506200012c92915062000130565b5090565b5b808211156200012c576000815560010162000131565b600082601f83011262000158578081fd5b81516001600160401b0380821115620001755762000175620002dd565b6040516020601f8401601f19168201810183811183821017156200019d576200019d620002dd565b6040528382528584018101871015620001b4578485fd5b8492505b83831015620001d75785830181015182840182015291820191620001b8565b83831115620001e857848185840101525b5095945050505050565b6000806000806080858703121562000208578384fd5b84516001600160401b03808211156200021f578586fd5b6200022d8883890162000147565b9550602087015191508082111562000243578485fd5b620002518883890162000147565b9450604087015191508082111562000267578384fd5b50620002768782880162000147565b606087015190935090506001600160a01b038116811462000295578182fd5b939692955090935050565b600281046001821680620002b557607f821691505b60208210811415620002d757634e487b7160e01b600052602260045260246000fd5b50919050565b634e487b7160e01b600052604160045260246000fd5b6116d580620003036000396000f3fe608060405234801561001057600080fd5b50600436106101005760003560e01c80636352211e11610097578063a22cb46511610066578063a22cb46514610207578063b88d4fde1461021a578063c87b56dd1461022d578063e985e9c51461024057610100565b80636352211e146101c457806370a08231146101d757806395d89b41146101f75780639d35c161146101ff57610100565b806323b872dd116100d357806323b872dd1461017857806340c10f191461018b57806342842e0e1461019e57806342966c68146101b157610100565b806301ffc9a71461010557806306fdde031461012e578063081812fc14610143578063095ea7b314610163575b600080fd5b610118610113366004610f82565b610253565b604051610125919061107d565b60405180910390f35b61013661029b565b6040516101259190611088565b610156610151366004610fba565b61032d565b604051610125919061102d565b610176610171366004610f59565b610379565b005b610176610186366004610e18565b610411565b610176610199366004610f59565b610449565b6101766101ac366004610e18565b610491565b6101766101bf366004610fba565b6104ac565b6101566101d2366004610fba565b6104df565b6101ea6101e5366004610dcc565b610514565b6040516101259190611565565b610136610558565b610156610567565b610176610215366004610f1f565b610576565b610176610228366004610e53565b610644565b61013661023b366004610fba565b610683565b61011861024e366004610de6565b610706565b60006001600160e01b031982166380ac58cd60e01b148061028457506001600160e01b03198216635b5e139f60e01b145b80610293575061029382610734565b90505b919050565b6060600080546102aa906115dd565b80601f01602080910402602001604051908101604052809291908181526020018280546102d6906115dd565b80156103235780601f106102f857610100808354040283529160200191610323565b820191906000526020600020905b81548152906001019060200180831161030657829003601f168201915b5050505050905090565b60006103388261074d565b61035d5760405162461bcd60e51b815260040161035490611378565b60405180910390fd5b506000908152600460205260409020546001600160a01b031690565b6000610384826104df565b9050806001600160a01b0316836001600160a01b031614156103b85760405162461bcd60e51b81526004016103549061146a565b806001600160a01b03166103ca61076a565b6001600160a01b031614806103e657506103e68161024e61076a565b6104025760405162461bcd60e51b815260040161035490611253565b61040c838361076e565b505050565b61042261041c61076a565b826107dc565b61043e5760405162461bcd60e51b8152600401610354906114ab565b61040c838383610861565b6006546001600160a01b031661045d61076a565b6001600160a01b0316146104835760405162461bcd60e51b81526004016103549061112f565b61048d828261098e565b5050565b61040c83838360405180602001604052806000815250610644565b6104b761041c61076a565b6104d35760405162461bcd60e51b815260040161035490611508565b6104dc81610a6d565b50565b6000818152600260205260408120546001600160a01b0316806102935760405162461bcd60e51b8152600401610354906112fa565b60006001600160a01b03821661053c5760405162461bcd60e51b8152600401610354906112b0565b506001600160a01b031660009081526003602052604090205490565b6060600180546102aa906115dd565b6006546001600160a01b031681565b61057e61076a565b6001600160a01b0316826001600160a01b031614156105af5760405162461bcd60e51b8152600401610354906111d0565b80600560006105bc61076a565b6001600160a01b03908116825260208083019390935260409182016000908120918716808252919093529120805460ff19169215159290921790915561060061076a565b6001600160a01b03167f17307eab39ab6107e8899845ad3d59bd9653f200f220920489ca2b5937696c3183604051610638919061107d565b60405180910390a35050565b61065561064f61076a565b836107dc565b6106715760405162461bcd60e51b8152600401610354906114ab565b61067d84848484610b14565b50505050565b606061068e8261074d565b6106aa5760405162461bcd60e51b81526004016103549061140d565b60006106b4610b47565b905060008151116106d457604051806020016040528060008152506106ff565b806106de84610b56565b6040516020016106ef929190610ffe565b6040516020818303038152906040525b9392505050565b6001600160a01b03918216600090815260056020908152604080832093909416825291909152205460ff1690565b6001600160e01b031981166301ffc9a760e01b14919050565b6000908152600260205260409020546001600160a01b0316151590565b3390565b600081815260046020526040902080546001600160a01b0319166001600160a01b03841690811790915581906107a3826104df565b6001600160a01b03167f8c5be1e5ebec7d5bd14f71427d1e84f3dd0314c0f7b2291e5b200ac8c7c3b92560405160405180910390a45050565b60006107e78261074d565b6108035760405162461bcd60e51b815260040161035490611207565b600061080e836104df565b9050806001600160a01b0316846001600160a01b031614806108495750836001600160a01b031661083e8461032d565b6001600160a01b0316145b8061085957506108598185610706565b949350505050565b826001600160a01b0316610874826104df565b6001600160a01b03161461089a5760405162461bcd60e51b8152600401610354906113c4565b6001600160a01b0382166108c05760405162461bcd60e51b81526004016103549061118c565b6108cb838383610c89565b6108d660008261076e565b6001600160a01b03831660009081526003602052604081208054600192906108ff90849061159a565b90915550506001600160a01b038216600090815260036020526040812080546001929061092d90849061156e565b909155505060008181526002602052604080822080546001600160a01b0319166001600160a01b0386811691821790925591518493918716917fddf252ad1be2c89b69c2b068fc378daa952ba7f163c4a11628f55a4df523b3ef91a4505050565b6001600160a01b0382166109b45760405162461bcd60e51b815260040161035490611343565b6109bd8161074d565b156109da5760405162461bcd60e51b8152600401610354906110f8565b6109e660008383610c89565b6001600160a01b0382166000908152600360205260408120805460019290610a0f90849061156e565b909155505060008181526002602052604080822080546001600160a01b0319166001600160a01b03861690811790915590518392907fddf252ad1be2c89b69c2b068fc378daa952ba7f163c4a11628f55a4df523b3ef908290a45050565b6000610a78826104df565b9050610a8681600084610c89565b610a9160008361076e565b6001600160a01b0381166000908152600360205260408120805460019290610aba90849061159a565b909155505060008281526002602052604080822080546001600160a01b0319169055518391906001600160a01b038416907fddf252ad1be2c89b69c2b068fc378daa952ba7f163c4a11628f55a4df523b3ef908390a45050565b610b1f848484610861565b610b2b84848484610c94565b61067d5760405162461bcd60e51b81526004016103549061109b565b6060600780546102aa906115dd565b606081610b7b57506040805180820190915260018152600360fc1b6020820152610296565b8160005b8115610ba55780610b8f81611618565b9150610b9e9050600a83611586565b9150610b7f565b60008167ffffffffffffffff811115610bce57634e487b7160e01b600052604160045260246000fd5b6040519080825280601f01601f191660200182016040528015610bf8576020820181803683370190505b5090505b841561085957610c0d60018361159a565b9150610c1a600a86611633565b610c2590603061156e565b60f81b818381518110610c4857634e487b7160e01b600052603260045260246000fd5b60200101907effffffffffffffffffffffffffffffffffffffffffffffffffffffffffffff1916908160001a905350610c82600a86611586565b9450610bfc565b61040c83838361040c565b6000610ca8846001600160a01b0316610daf565b15610da457836001600160a01b031663150b7a02610cc461076a565b8786866040518563ffffffff1660e01b8152600401610ce69493929190611041565b602060405180830381600087803b158015610d0057600080fd5b505af1925050508015610d30575060408051601f3d908101601f19168201909252610d2d91810190610f9e565b60015b610d8a573d808015610d5e576040519150601f19603f3d011682016040523d82523d6000602084013e610d63565b606091505b508051610d825760405162461bcd60e51b81526004016103549061109b565b805181602001fd5b6001600160e01b031916630a85bd0160e11b149050610859565b506001949350505050565b3b151590565b80356001600160a01b038116811461029657600080fd5b600060208284031215610ddd578081fd5b6106ff82610db5565b60008060408385031215610df8578081fd5b610e0183610db5565b9150610e0f60208401610db5565b90509250929050565b600080600060608486031215610e2c578081fd5b610e3584610db5565b9250610e4360208501610db5565b9150604084013590509250925092565b60008060008060808587031215610e68578081fd5b610e7185610db5565b93506020610e80818701610db5565b935060408601359250606086013567ffffffffffffffff80821115610ea3578384fd5b818801915088601f830112610eb6578384fd5b813581811115610ec857610ec8611673565b604051601f8201601f1916810185018381118282101715610eeb57610eeb611673565b60405281815283820185018b1015610f01578586fd5b81858501868301379081019093019390935250939692955090935050565b60008060408385031215610f31578182fd5b610f3a83610db5565b915060208301358015158114610f4e578182fd5b809150509250929050565b60008060408385031215610f6b578182fd5b610f7483610db5565b946020939093013593505050565b600060208284031215610f93578081fd5b81356106ff81611689565b600060208284031215610faf578081fd5b81516106ff81611689565b600060208284031215610fcb578081fd5b5035919050565b60008151808452610fea8160208601602086016115b1565b601f01601f19169290920160200192915050565b600083516110108184602088016115b1565b8351908301906110248183602088016115b1565b01949350505050565b6001600160a01b0391909116815260200190565b60006001600160a01b038087168352808616602084015250836040830152608060608301526110736080830184610fd2565b9695505050505050565b901515815260200190565b6000602082526106ff6020830184610fd2565b60208082526032908201527f4552433732313a207472616e7366657220746f206e6f6e20455243373231526560408201527f63656976657220696d706c656d656e7465720000000000000000000000000000606082015260800190565b6020808252601c908201527f4552433732313a20746f6b656e20616c7265616479206d696e74656400000000604082015260600190565b60208082526039908201527f5052495649506f64455243373231546f6b656e3a204f6e6c7920466163746f7260408201527f792063616e2063616c6c20746869732066756e6374696f6e2e00000000000000606082015260800190565b60208082526024908201527f4552433732313a207472616e7366657220746f20746865207a65726f206164646040820152637265737360e01b606082015260800190565b60208082526019908201527f4552433732313a20617070726f766520746f2063616c6c657200000000000000604082015260600190565b6020808252602c908201527f4552433732313a206f70657261746f7220717565727920666f72206e6f6e657860408201526b34b9ba32b73a103a37b5b2b760a11b606082015260800190565b60208082526038908201527f4552433732313a20617070726f76652063616c6c6572206973206e6f74206f7760408201527f6e6572206e6f7220617070726f76656420666f7220616c6c0000000000000000606082015260800190565b6020808252602a908201527f4552433732313a2062616c616e636520717565727920666f7220746865207a65604082015269726f206164647265737360b01b606082015260800190565b60208082526029908201527f4552433732313a206f776e657220717565727920666f72206e6f6e657869737460408201526832b73a103a37b5b2b760b91b606082015260800190565b6020808252818101527f4552433732313a206d696e7420746f20746865207a65726f2061646472657373604082015260600190565b6020808252602c908201527f4552433732313a20617070726f76656420717565727920666f72206e6f6e657860408201526b34b9ba32b73a103a37b5b2b760a11b606082015260800190565b60208082526029908201527f4552433732313a207472616e73666572206f6620746f6b656e2074686174206960408201526839903737ba1037bbb760b91b606082015260800190565b6020808252602f908201527f4552433732314d657461646174613a2055524920717565727920666f72206e6f60408201527f6e6578697374656e7420746f6b656e0000000000000000000000000000000000606082015260800190565b60208082526021908201527f4552433732313a20617070726f76616c20746f2063757272656e74206f776e656040820152603960f91b606082015260800190565b60208082526031908201527f4552433732313a207472616e736665722063616c6c6572206973206e6f74206f60408201527f776e6572206e6f7220617070726f766564000000000000000000000000000000606082015260800190565b60208082526030908201527f4552433732314275726e61626c653a2063616c6c6572206973206e6f74206f7760408201527f6e6572206e6f7220617070726f76656400000000000000000000000000000000606082015260800190565b90815260200190565b6000821982111561158157611581611647565b500190565b6000826115955761159561165d565b500490565b6000828210156115ac576115ac611647565b500390565b60005b838110156115cc5781810151838201526020016115b4565b8381111561067d5750506000910152565b6002810460018216806115f157607f821691505b6020821081141561161257634e487b7160e01b600052602260045260246000fd5b50919050565b600060001982141561162c5761162c611647565b5060010190565b6000826116425761164261165d565b500690565b634e487b7160e01b600052601160045260246000fd5b634e487b7160e01b600052601260045260246000fd5b634e487b7160e01b600052604160045260246000fd5b6001600160e01b0319811681146104dc57600080fdfea2646970667358221220a5219ae71e1c1e266b4f48e912ddaf04f5ebc2d82e65c2e2f5d73aefb171cee164736f6c63430008000033a2646970667358221220dbd54356055f97cf4762989c681f95a62a2e1d141b9803c7d7b98e0743419f3464736f6c63430008000033",
  "immutableReferences": {},
  "source": "// SPDX-License-Identifier: MIT\npragma solidity ^0.8.0;\n\nimport \"@openzeppelin/contracts/access/AccessControl.sol\";\nimport \"./token/PRIVIPodERC721Token.sol\";\nimport \"./interfaces/IBridgeManager.sol\";\n\n/**\n * @title   PRIVIPodERC721Factory contract\n * @dev     Creates new ERC721 tokens using a factory pattern\n * @author  PRIVI\n **/\ncontract PRIVIPodERC721Factory is AccessControl {\n  bytes32 public constant MODERATOR_ROLE = keccak256(\"MODERATOR_ROLE\");\n  address public bridgeManagerAddress;\n  uint256 private totalPodCreated;\n  mapping(string => address) private podTokenAddressesById;\n  mapping(string => address) private podTokenAddressesBySymbol;\n\n  event PodCreated(\n    string indexed podId,\n    string podTokenName,\n    string podTokenSymbol\n  );\n\n  /**\n   * @dev\n   * - Grants `DEFAULT_ADMIN_ROLE` and `MODERATOR_ROLE` to the\n   *   account that deploys the contract\n   * - Assigns the bridgeManager address\n   */\n  constructor(address bridgeAddress) {\n    _setupRole(DEFAULT_ADMIN_ROLE, _msgSender());\n    _setupRole(MODERATOR_ROLE, _msgSender());\n    bridgeManagerAddress = bridgeAddress;\n  }\n\n  /**\n   * @notice  Assigns `MODERATOR_ROLE` to SwapManager contract\n   * @param   swapManagerAddress The SwapManager contract address\n   */\n  function assignRoleSwapManager(address swapManagerAddress) external {\n    require(\n      hasRole(MODERATOR_ROLE, _msgSender()),\n      \"PRIVIPodERC721Factory: must have MODERATOR_ROLE to assign SwapManager address\"\n    );\n    _setupRole(MODERATOR_ROLE, swapManagerAddress);\n  }\n\n  /**\n   * @notice  Returns the total amount of Pod tokens created\n   */\n  function getTotalTokenCreated() external view returns (uint256 totalPods) {\n    totalPods = totalPodCreated;\n  }\n\n  /**\n   * @notice Returns the contract address of the Pod token\n   * @param  podId The Pod token identifier\n   * @return podAddress The contract address of the Pod token\n   */\n  function getPodAddressById(string calldata podId)\n    external\n    view\n    returns (address podAddress)\n  {\n    podAddress = podTokenAddressesById[podId];\n  }\n\n  /**\n   * @notice Returns the contract address of the Pod token\n   * @param  tokenSymbol The Pod token symbol (ticker)\n   * @return podAddress The contract address of the Pod token\n   */\n  function getPodAddressBySymbol(string calldata tokenSymbol)\n    external\n    view\n    returns (address podAddress)\n  {\n    podAddress = podTokenAddressesBySymbol[tokenSymbol];\n  }\n\n  /**\n   * @notice Creates an ERC721 Pod token and registers it in the BridgeManager\n   * @dev    - Pod id must not exist\n   *         - Pod name & symbol must not exist\n   *         - Pod name & symbol can't be empty\n   *         - Pod symbol can't be greater than 25 characters\n   * @param  podId The Pod token identifier\n   * @param  podTokenName The Pod token name\n   * @param  podTokenSymbol The Pod token symbol (ticker)\n   * @param  baseURI The base URI\n   * @return podAddress The contract address of the Pod token created\n   */\n  function createPod(\n    string calldata podId,\n    string calldata podTokenName,\n    string calldata podTokenSymbol,\n    string calldata baseURI\n  ) external returns (address podAddress) {\n    // TODO: Check restrictions to create POD tokens\n    // require(hasRole(MODERATOR_ROLE, _msgSender()), \"PRIVIPodERC721TokenFactory: must have MODERATOR_ROLE to create pod.\");\n    require(\n      podTokenAddressesById[podId] == address(0),\n      \"PRIVIPodERC721Factory: Pod id already exists\"\n    );\n    require(\n      podTokenAddressesBySymbol[podTokenSymbol] == address(0),\n      \"PRIVIPodERC721Factory: Pod symbol already exists\"\n    );\n\n    PRIVIPodERC721Token podToken =\n      new PRIVIPodERC721Token(\n        podTokenName,\n        podTokenSymbol,\n        baseURI,\n        address(this)\n      );\n    podAddress = address(podToken);\n\n    totalPodCreated += 1;\n\n    podTokenAddressesById[podId] = podAddress;\n    podTokenAddressesBySymbol[podTokenSymbol] = podAddress;\n\n    IBridgeManager(bridgeManagerAddress).registerTokenERC721(\n      podTokenName,\n      podTokenSymbol,\n      podAddress\n    );\n\n    emit PodCreated(podId, podTokenName, podTokenSymbol);\n  }\n\n  /**\n   * @notice Mints ERC721 Pod tokens\n   * @dev    - The caller must be MODERATOR_ROLE\n   *         - `account` address can't be zero\n   * @param  podId The Pod token identifier\n   * @param  account The destination account to receive minted tokens\n   */\n  function mintPodTokenById(string calldata podId, uint256 tokenId, address account) external {\n    require(\n      hasRole(MODERATOR_ROLE, _msgSender()),\n      \"PRIVIPodERC721Factory: must have MODERATOR_ROLE to invest for investor\"\n    );\n    require(\n      account != address(0),\n      \"PRIVIPodERC721Factory: Account address should not be zero\"\n    );\n    PRIVIPodERC721Token(podTokenAddressesById[podId]).mint(account, tokenId);\n  }\n\n  /**\n   * @notice Mints ERC721 Pod tokens\n   * @dev    - The caller must be MODERATOR_ROLE\n   *         - `account` address can't be zero\n   * @param  tokenSymbol The Pod token symbol (sticker)\n   * @param  account The destination account to receive minted tokens\n   */\n  function mintPodTokenBySymbol(string calldata tokenSymbol, uint256 tokenId, address account)\n    external\n  {\n    require(\n      hasRole(MODERATOR_ROLE, _msgSender()),\n      \"PRIVIPodERC721Factory: must have MODERATOR_ROLE to invest for investor\"\n    );\n    require(\n      account != address(0),\n      \"PRIVIPodERC721Factory: Account address should not be zero\"\n    );\n    PRIVIPodERC721Token(podTokenAddressesBySymbol[tokenSymbol]).mint(account, tokenId);\n  }\n}\n",
  "sourcePath": "/Volumes/Workspace/PRIVI/PRIVIethereum/contracts/PRIVIPodERC721Factory.sol",
  "compiler": {
    "name": "solc",
    "version": "0.8.0+commit.c7dfd78e.Emscripten.clang"
  },
  "schemaVersion": "3.3.4",
  "updatedAt": "2021-04-21T22:08:26.612Z",
  "networkType": "ethereum",
  "devdoc": {
    "author": "PRIVI*",
    "details": "Creates new ERC721 tokens using a factory pattern",
    "kind": "dev",
    "methods": {
      "assignRoleSwapManager(address)": {
        "params": {
          "swapManagerAddress": "The SwapManager contract address"
        }
      },
      "constructor": {
        "details": "- Grants `DEFAULT_ADMIN_ROLE` and `MODERATOR_ROLE` to the   account that deploys the contract - Assigns the bridgeManager address"
      },
      "createPod(string,string,string,string)": {
        "details": "- Pod id must not exist         - Pod name & symbol must not exist         - Pod name & symbol can't be empty         - Pod symbol can't be greater than 25 characters",
        "params": {
          "baseURI": "The base URI",
          "podId": "The Pod token identifier",
          "podTokenName": "The Pod token name",
          "podTokenSymbol": "The Pod token symbol (ticker)"
        },
        "returns": {
          "podAddress": "The contract address of the Pod token created"
        }
      },
      "getPodAddressById(string)": {
        "params": {
          "podId": "The Pod token identifier"
        },
        "returns": {
          "podAddress": "The contract address of the Pod token"
        }
      },
      "getPodAddressBySymbol(string)": {
        "params": {
          "tokenSymbol": "The Pod token symbol (ticker)"
        },
        "returns": {
          "podAddress": "The contract address of the Pod token"
        }
      },
      "getRoleAdmin(bytes32)": {
        "details": "Returns the admin role that controls `role`. See {grantRole} and {revokeRole}. To change a role's admin, use {_setRoleAdmin}."
      },
      "grantRole(bytes32,address)": {
        "details": "Grants `role` to `account`. If `account` had not been already granted `role`, emits a {RoleGranted} event. Requirements: - the caller must have ``role``'s admin role."
      },
      "hasRole(bytes32,address)": {
        "details": "Returns `true` if `account` has been granted `role`."
      },
      "mintPodTokenById(string,uint256,address)": {
        "details": "- The caller must be MODERATOR_ROLE         - `account` address can't be zero",
        "params": {
          "account": "The destination account to receive minted tokens",
          "podId": "The Pod token identifier"
        }
      },
      "mintPodTokenBySymbol(string,uint256,address)": {
        "details": "- The caller must be MODERATOR_ROLE         - `account` address can't be zero",
        "params": {
          "account": "The destination account to receive minted tokens",
          "tokenSymbol": "The Pod token symbol (sticker)"
        }
      },
      "renounceRole(bytes32,address)": {
        "details": "Revokes `role` from the calling account. Roles are often managed via {grantRole} and {revokeRole}: this function's purpose is to provide a mechanism for accounts to lose their privileges if they are compromised (such as when a trusted device is misplaced). If the calling account had been granted `role`, emits a {RoleRevoked} event. Requirements: - the caller must be `account`."
      },
      "revokeRole(bytes32,address)": {
        "details": "Revokes `role` from `account`. If `account` had been granted `role`, emits a {RoleRevoked} event. Requirements: - the caller must have ``role``'s admin role."
      },
      "supportsInterface(bytes4)": {
        "details": "See {IERC165-supportsInterface}."
      }
    },
    "title": "PRIVIPodERC721Factory contract",
    "version": 1
  },
  "userdoc": {
    "kind": "user",
    "methods": {
      "assignRoleSwapManager(address)": {
        "notice": "Assigns `MODERATOR_ROLE` to SwapManager contract"
      },
      "createPod(string,string,string,string)": {
        "notice": "Creates an ERC721 Pod token and registers it in the BridgeManager"
      },
      "getPodAddressById(string)": {
        "notice": "Returns the contract address of the Pod token"
      },
      "getPodAddressBySymbol(string)": {
        "notice": "Returns the contract address of the Pod token"
      },
      "getTotalTokenCreated()": {
        "notice": "Returns the total amount of Pod tokens created"
      },
      "mintPodTokenById(string,uint256,address)": {
        "notice": "Mints ERC721 Pod tokens"
      },
      "mintPodTokenBySymbol(string,uint256,address)": {
        "notice": "Mints ERC721 Pod tokens"
      }
    },
    "version": 1
  }
}