{
  "contractName": "PRIVIPodERC721RoyaltyFactory",
  "abi": [
    {
      "inputs": [
        {
          "internalType": "address",
          "name": "bridgeAddress",
          "type": "address"
        }
      ],
      "stateMutability": "nonpayable",
      "type": "constructor"
    },
    {
      "anonymous": false,
      "inputs": [
        {
          "indexed": true,
          "internalType": "string",
          "name": "podId",
          "type": "string"
        },
        {
          "indexed": false,
          "internalType": "string",
          "name": "podTokenName",
          "type": "string"
        },
        {
          "indexed": false,
          "internalType": "string",
          "name": "podTokenSymbol",
          "type": "string"
        }
      ],
      "name": "PodCreated",
      "type": "event"
    },
    {
      "anonymous": false,
      "inputs": [
        {
          "indexed": true,
          "internalType": "bytes32",
          "name": "role",
          "type": "bytes32"
        },
        {
          "indexed": true,
          "internalType": "bytes32",
          "name": "previousAdminRole",
          "type": "bytes32"
        },
        {
          "indexed": true,
          "internalType": "bytes32",
          "name": "newAdminRole",
          "type": "bytes32"
        }
      ],
      "name": "RoleAdminChanged",
      "type": "event"
    },
    {
      "anonymous": false,
      "inputs": [
        {
          "indexed": true,
          "internalType": "bytes32",
          "name": "role",
          "type": "bytes32"
        },
        {
          "indexed": true,
          "internalType": "address",
          "name": "account",
          "type": "address"
        },
        {
          "indexed": true,
          "internalType": "address",
          "name": "sender",
          "type": "address"
        }
      ],
      "name": "RoleGranted",
      "type": "event"
    },
    {
      "anonymous": false,
      "inputs": [
        {
          "indexed": true,
          "internalType": "bytes32",
          "name": "role",
          "type": "bytes32"
        },
        {
          "indexed": true,
          "internalType": "address",
          "name": "account",
          "type": "address"
        },
        {
          "indexed": true,
          "internalType": "address",
          "name": "sender",
          "type": "address"
        }
      ],
      "name": "RoleRevoked",
      "type": "event"
    },
    {
      "inputs": [],
      "name": "DEFAULT_ADMIN_ROLE",
      "outputs": [
        {
          "internalType": "bytes32",
          "name": "",
          "type": "bytes32"
        }
      ],
      "stateMutability": "view",
      "type": "function",
      "constant": true
    },
    {
      "inputs": [],
      "name": "MODERATOR_ROLE",
      "outputs": [
        {
          "internalType": "bytes32",
          "name": "",
          "type": "bytes32"
        }
      ],
      "stateMutability": "view",
      "type": "function",
      "constant": true
    },
    {
      "inputs": [],
      "name": "bridgeManagerAddress",
      "outputs": [
        {
          "internalType": "address",
          "name": "",
          "type": "address"
        }
      ],
      "stateMutability": "view",
      "type": "function",
      "constant": true
    },
    {
      "inputs": [
        {
          "internalType": "bytes32",
          "name": "role",
          "type": "bytes32"
        }
      ],
      "name": "getRoleAdmin",
      "outputs": [
        {
          "internalType": "bytes32",
          "name": "",
          "type": "bytes32"
        }
      ],
      "stateMutability": "view",
      "type": "function",
      "constant": true
    },
    {
      "inputs": [
        {
          "internalType": "bytes32",
          "name": "role",
          "type": "bytes32"
        },
        {
          "internalType": "address",
          "name": "account",
          "type": "address"
        }
      ],
      "name": "grantRole",
      "outputs": [],
      "stateMutability": "nonpayable",
      "type": "function"
    },
    {
      "inputs": [
        {
          "internalType": "bytes32",
          "name": "role",
          "type": "bytes32"
        },
        {
          "internalType": "address",
          "name": "account",
          "type": "address"
        }
      ],
      "name": "hasRole",
      "outputs": [
        {
          "internalType": "bool",
          "name": "",
          "type": "bool"
        }
      ],
      "stateMutability": "view",
      "type": "function",
      "constant": true
    },
    {
      "inputs": [
        {
          "internalType": "bytes32",
          "name": "role",
          "type": "bytes32"
        },
        {
          "internalType": "address",
          "name": "account",
          "type": "address"
        }
      ],
      "name": "renounceRole",
      "outputs": [],
      "stateMutability": "nonpayable",
      "type": "function"
    },
    {
      "inputs": [
        {
          "internalType": "bytes32",
          "name": "role",
          "type": "bytes32"
        },
        {
          "internalType": "address",
          "name": "account",
          "type": "address"
        }
      ],
      "name": "revokeRole",
      "outputs": [],
      "stateMutability": "nonpayable",
      "type": "function"
    },
    {
      "inputs": [
        {
          "internalType": "bytes4",
          "name": "interfaceId",
          "type": "bytes4"
        }
      ],
      "name": "supportsInterface",
      "outputs": [
        {
          "internalType": "bool",
          "name": "",
          "type": "bool"
        }
      ],
      "stateMutability": "view",
      "type": "function",
      "constant": true
    },
    {
      "inputs": [
        {
          "internalType": "address",
          "name": "swapManagerAddress",
          "type": "address"
        }
      ],
      "name": "assignRoleSwapManager",
      "outputs": [],
      "stateMutability": "nonpayable",
      "type": "function"
    },
    {
      "inputs": [],
      "name": "getTotalTokenCreated",
      "outputs": [
        {
          "internalType": "uint256",
          "name": "totalPods",
          "type": "uint256"
        }
      ],
      "stateMutability": "view",
      "type": "function",
      "constant": true
    },
    {
      "inputs": [
        {
          "internalType": "string",
          "name": "podId",
          "type": "string"
        }
      ],
      "name": "getPodAddressById",
      "outputs": [
        {
          "internalType": "address",
          "name": "podAddress",
          "type": "address"
        }
      ],
      "stateMutability": "view",
      "type": "function",
      "constant": true
    },
    {
      "inputs": [
        {
          "internalType": "string",
          "name": "tokenSymbol",
          "type": "string"
        }
      ],
      "name": "getPodAddressBySymbol",
      "outputs": [
        {
          "internalType": "address",
          "name": "podAddress",
          "type": "address"
        }
      ],
      "stateMutability": "view",
      "type": "function",
      "constant": true
    },
    {
      "inputs": [
        {
          "internalType": "string",
          "name": "podId",
          "type": "string"
        },
        {
          "internalType": "string",
          "name": "podTokenName",
          "type": "string"
        },
        {
          "internalType": "string",
          "name": "podTokenSymbol",
          "type": "string"
        },
        {
          "internalType": "string",
          "name": "baseURI",
          "type": "string"
        },
        {
          "internalType": "uint256",
          "name": "royaltyAmount",
          "type": "uint256"
        },
        {
          "internalType": "address",
          "name": "creator",
          "type": "address"
        }
      ],
      "name": "createPod",
      "outputs": [
        {
          "internalType": "address",
          "name": "podAddress",
          "type": "address"
        }
      ],
      "stateMutability": "nonpayable",
      "type": "function"
    },
    {
      "inputs": [
        {
          "internalType": "string",
          "name": "podId",
          "type": "string"
        },
        {
          "internalType": "string",
          "name": "podTokenName",
          "type": "string"
        },
        {
          "internalType": "string",
          "name": "podTokenSymbol",
          "type": "string"
        },
        {
          "internalType": "string",
          "name": "baseURI",
          "type": "string"
        },
        {
          "internalType": "uint256",
          "name": "royaltyAmount",
          "type": "uint256"
        },
        {
          "internalType": "uint256[]",
          "name": "royaltyShares",
          "type": "uint256[]"
        },
        {
          "internalType": "address[]",
          "name": "creators",
          "type": "address[]"
        }
      ],
      "name": "createMultiCreatorPod",
      "outputs": [
        {
          "internalType": "address",
          "name": "podAddress",
          "type": "address"
        }
      ],
      "stateMutability": "nonpayable",
      "type": "function"
    },
    {
      "inputs": [
        {
          "internalType": "string",
          "name": "podId",
          "type": "string"
        },
        {
          "internalType": "uint256",
          "name": "tokenId",
          "type": "uint256"
        },
        {
          "internalType": "address",
          "name": "account",
          "type": "address"
        }
      ],
      "name": "mintPodTokenById",
      "outputs": [],
      "stateMutability": "nonpayable",
      "type": "function"
    },
    {
      "inputs": [
        {
          "internalType": "string",
          "name": "tokenSymbol",
          "type": "string"
        },
        {
          "internalType": "uint256",
          "name": "tokenId",
          "type": "uint256"
        },
        {
          "internalType": "address",
          "name": "account",
          "type": "address"
        }
      ],
      "name": "mintPodTokenBySymbol",
      "outputs": [],
      "stateMutability": "nonpayable",
      "type": "function"
    }
  ],
  "bytecode": "0x60806040523480156200001157600080fd5b5060405162003fdd38038062003fdd833981016040819052620000349162000166565b6200004a6000620000446200009f565b620000a3565b620000797f71f3d55856e4058ed06ee057d79ada615f65cdf5f9ee88181b914225088f834f620000446200009f565b600180546001600160a01b0319166001600160a01b039290921691909117905562000196565b3390565b620000af8282620000b3565b5050565b620000bf82826200013d565b620000af576000828152602081815260408083206001600160a01b03851684529091529020805460ff19166001179055620000f96200009f565b6001600160a01b0316816001600160a01b0316837f2f8788117e7eff1d82e926ec794901d17c78024a50270940304540a733656f0d60405160405180910390a45050565b6000918252602082815260408084206001600160a01b0393909316845291905290205460ff1690565b60006020828403121562000178578081fd5b81516001600160a01b03811681146200018f578182fd5b9392505050565b613e3780620001a66000396000f3fe60806040523480156200001157600080fd5b5060043610620001245760003560e01c8063797669c911620000b1578063a217fddf116200007b578063a217fddf146200025b578063cc6365fd1462000265578063d547741f146200027c578063e792b1941462000293578063e80cae26146200029d5762000124565b8063797669c9146200020c5780638d1909ed146200021657806391d14854146200022d578063972d08cf14620002445762000124565b80632f2ff15d11620000f35780632f2ff15d14620001ae5780633325a4e414620001c757806336568abe14620001de57806354f32c6414620001f55762000124565b806301ffc9a714620001295780630fc09e2e146200015857806322b2edeb1462000171578063248a9ca31462000197575b600080fd5b620001406200013a36600462000eac565b620002b4565b6040516200014f919062001269565b60405180910390f35b62000162620002e4565b6040516200014f919062001274565b620001886200018236600462000ed6565b620002ea565b6040516200014f9190620011c2565b62000162620001a836600462000e65565b62000320565b620001c5620001bf36600462000e7e565b62000335565b005b62000188620001d836600462000ed6565b62000386565b620001c5620001ef36600462000e7e565b6200039c565b620001c56200020636600462001127565b620003e5565b62000162620004e6565b620001c56200022736600462000e41565b6200050a565b620001406200023e36600462000e7e565b62000587565b620001886200025536600462001001565b620005b0565b620001626200086d565b620001c56200027636600462001127565b62000872565b620001c56200028d36600462000e7e565b620008fd565b620001886200092b565b62000188620002ae36600462000f1a565b6200093a565b60006001600160e01b03198216637965db0b60e01b1480620002dc5750620002dc8262000bb6565b90505b919050565b60025490565b60006003838360405162000300929190620011b2565b908152604051908190036020019020546001600160a01b03169392505050565b60009081526020819052604090206001015490565b6200034e620003448362000320565b6200023e62000bcf565b620003765760405162461bcd60e51b81526004016200036d906200136b565b60405180910390fd5b62000382828262000bd3565b5050565b60006004838360405162000300929190620011b2565b620003a662000bcf565b6001600160a01b0316816001600160a01b031614620003d95760405162461bcd60e51b81526004016200036d906200164c565b62000382828262000c5d565b620004147f71f3d55856e4058ed06ee057d79ada615f65cdf5f9ee88181b914225088f834f6200023e62000bcf565b620004335760405162461bcd60e51b81526004016200036d90620015c9565b6001600160a01b0381166200045c5760405162461bcd60e51b81526004016200036d9062001562565b6003848460405162000470929190620011b2565b908152604051908190036020018120546340c10f1960e01b82526001600160a01b0316906340c10f1990620004ac9084908690600401620011d6565b600060405180830381600087803b158015620004c757600080fd5b505af1158015620004dc573d6000803e3d6000fd5b5050505050505050565b7f71f3d55856e4058ed06ee057d79ada615f65cdf5f9ee88181b914225088f834f81565b620005397f71f3d55856e4058ed06ee057d79ada615f65cdf5f9ee88181b914225088f834f6200023e62000bcf565b620005585760405162461bcd60e51b81526004016200036d90620014df565b620005847f71f3d55856e4058ed06ee057d79ada615f65cdf5f9ee88181b914225088f834f8262000376565b50565b6000918252602082815260408084206001600160a01b0393909316845291905290205460ff1690565b6000806001600160a01b031660038d8d604051620005d0929190620011b2565b908152604051908190036020019020546001600160a01b031614620006095760405162461bcd60e51b81526004016200036d9062001482565b60006001600160a01b03166004898960405162000628929190620011b2565b908152604051908190036020019020546001600160a01b031614620006615760405162461bcd60e51b81526004016200036d90620013c8565b60008284604051620006739062000ce5565b62000680929190620011ef565b604051809103906000f0801580156200069d573d6000803e3d6000fd5b50905060008b8b8b8b8b8b308c89604051620006b99062000cf3565b620006cd99989796959493929190620012fa565b604051809103906000f080158015620006ea573d6000803e3d6000fd5b509050809250600160026000828254620007059190620016fd565b925050819055508260038f8f60405162000721929190620011b2565b908152602001604051809103902060006101000a8154816001600160a01b0302191690836001600160a01b031602179055508260048b8b60405162000768929190620011b2565b90815260405190819003602001812080546001600160a01b0393841673ffffffffffffffffffffffffffffffffffffffff1990911617905560015463c082713b60e01b82529091169063c082713b90620007cf908f908f908f908f908a90600401620012b3565b600060405180830381600087803b158015620007ea57600080fd5b505af1158015620007ff573d6000803e3d6000fd5b505050508d8d60405162000815929190620011b2565b60405180910390207fc0512f6474c9ee949f1cbdc88e43ca774f79b5f1f07d8484696e1cf1a0bd87ce8d8d8d8d6040516200085494939291906200127d565b60405180910390a250509b9a5050505050505050505050565b600081565b620008a17f71f3d55856e4058ed06ee057d79ada615f65cdf5f9ee88181b914225088f834f6200023e62000bcf565b620008c05760405162461bcd60e51b81526004016200036d90620015c9565b6001600160a01b038116620008e95760405162461bcd60e51b81526004016200036d9062001562565b6004848460405162000470929190620011b2565b6200090c620003448362000320565b620003d95760405162461bcd60e51b81526004016200036d9062001425565b6001546001600160a01b031681565b6000806001600160a01b031660038c8c6040516200095a929190620011b2565b908152604051908190036020019020546001600160a01b031614620009935760405162461bcd60e51b81526004016200036d9062001482565b60006001600160a01b031660048888604051620009b2929190620011b2565b908152604051908190036020019020546001600160a01b031614620009eb5760405162461bcd60e51b81526004016200036d90620013c8565b6000898989898989308a8a60405162000a049062000cf3565b62000a1899989796959493929190620012fa565b604051809103906000f08015801562000a35573d6000803e3d6000fd5b50905080915060016002600082825462000a509190620016fd565b925050819055508160038d8d60405162000a6c929190620011b2565b908152602001604051809103902060006101000a8154816001600160a01b0302191690836001600160a01b03160217905550816004898960405162000ab3929190620011b2565b90815260405190819003602001812080546001600160a01b0393841673ffffffffffffffffffffffffffffffffffffffff1990911617905560015463c082713b60e01b82529091169063c082713b9062000b1a908d908d908d908d908990600401620012b3565b600060405180830381600087803b15801562000b3557600080fd5b505af115801562000b4a573d6000803e3d6000fd5b505050508b8b60405162000b60929190620011b2565b60405180910390207fc0512f6474c9ee949f1cbdc88e43ca774f79b5f1f07d8484696e1cf1a0bd87ce8b8b8b8b60405162000b9f94939291906200127d565b60405180910390a2509a9950505050505050505050565b6001600160e01b031981166301ffc9a760e01b14919050565b3390565b62000bdf828262000587565b62000382576000828152602081815260408083206001600160a01b03851684529091529020805460ff1916600117905562000c1962000bcf565b6001600160a01b0316816001600160a01b0316837f2f8788117e7eff1d82e926ec794901d17c78024a50270940304540a733656f0d60405160405180910390a45050565b62000c69828262000587565b1562000382576000828152602081815260408083206001600160a01b03851684529091529020805460ff1916905562000ca162000bcf565b6001600160a01b0316816001600160a01b0316837ff6391f5c32d9c69d2a47ea670b442974b53935d1edc7fd64eb21e047a839171b60405160405180910390a45050565b6108a6806200173983390190565b611e238062001fdf83390190565b80356001600160a01b0381168114620002df57600080fd5b600082601f83011262000d2a578081fd5b8135602062000d4362000d3d83620016d6565b620016a9565b828152818101908583018385028701840188101562000d60578586fd5b855b8581101562000d895762000d768262000d01565b8452928401929084019060010162000d62565b5090979650505050505050565b600082601f83011262000da7578081fd5b8135602062000dba62000d3d83620016d6565b828152818101908583018385028701840188101562000dd7578586fd5b855b8581101562000d895781358452928401929084019060010162000dd9565b60008083601f84011262000e09578182fd5b50813567ffffffffffffffff81111562000e21578182fd5b60208301915083602082850101111562000e3a57600080fd5b9250929050565b60006020828403121562000e53578081fd5b62000e5e8262000d01565b9392505050565b60006020828403121562000e77578081fd5b5035919050565b6000806040838503121562000e91578081fd5b8235915062000ea36020840162000d01565b90509250929050565b60006020828403121562000ebe578081fd5b81356001600160e01b03198116811462000e5e578182fd5b6000806020838503121562000ee9578182fd5b823567ffffffffffffffff81111562000f00578283fd5b62000f0e8582860162000df7565b90969095509350505050565b60008060008060008060008060008060c08b8d03121562000f39578586fd5b8a3567ffffffffffffffff8082111562000f51578788fd5b62000f5f8e838f0162000df7565b909c509a5060208d013591508082111562000f78578788fd5b62000f868e838f0162000df7565b909a50985060408d013591508082111562000f9f578788fd5b62000fad8e838f0162000df7565b909850965060608d013591508082111562000fc6578586fd5b5062000fd58d828e0162000df7565b90955093505060808b0135915062000ff060a08c0162000d01565b90509295989b9194979a5092959850565b600080600080600080600080600080600060e08c8e03121562001022578081fd5b67ffffffffffffffff808d35111562001039578182fd5b620010488e8e358f0162000df7565b909c509a5060208d01358110156200105e578182fd5b620010708e60208f01358f0162000df7565b909a50985060408d013581101562001086578182fd5b620010988e60408f01358f0162000df7565b909850965060608d0135811015620010ae578182fd5b620010c08e60608f01358f0162000df7565b909650945060808d0135935060a08d0135811015620010dd578182fd5b620010ef8e60a08f01358f0162000d96565b92508060c08e0135111562001102578182fd5b50620011158d60c08e01358e0162000d19565b90509295989b509295989b9093969950565b600080600080606085870312156200113d578384fd5b843567ffffffffffffffff81111562001154578485fd5b620011628782880162000df7565b909550935050602085013591506200117d6040860162000d01565b905092959194509250565b60008284528282602086013780602084860101526020601f19601f85011685010190509392505050565b6000828483379101908152919050565b6001600160a01b0391909116815260200190565b6001600160a01b03929092168252602082015260400190565b604080825283519082018190526000906020906060840190828701845b82811015620012335781516001600160a01b0316845292840192908401906001016200120c565b50505083810382850152845180825285830191830190845b8181101562000d89578351835292840192918401916001016200124b565b901515815260200190565b90815260200190565b6000604082526200129360408301868862001188565b8281036020840152620012a881858762001188565b979650505050505050565b600060608252620012c960608301878962001188565b8281036020840152620012de81868862001188565b9150506001600160a01b03831660408301529695505050505050565b600060c082526200131060c083018b8d62001188565b828103602084015262001325818a8c62001188565b905082810360408401526200133c81888a62001188565b6001600160a01b03968716606085015260808401959095525050921660a0909201919091529695505050505050565b6020808252602f908201527f416363657373436f6e74726f6c3a2073656e646572206d75737420626520616e60408201527f2061646d696e20746f206772616e740000000000000000000000000000000000606082015260800190565b60208082526038908201527f5052495649506f64455243373231526f79616c7479466163746f72793a20506f60408201527f642073796d626f6c20616c7265616479206578697374732e0000000000000000606082015260800190565b60208082526030908201527f416363657373436f6e74726f6c3a2073656e646572206d75737420626520616e60408201527f2061646d696e20746f207265766f6b6500000000000000000000000000000000606082015260800190565b60208082526034908201527f5052495649506f64455243373231526f79616c7479466163746f72793a20506f60408201527f6420696420616c7265616479206578697374732e000000000000000000000000606082015260800190565b60208082526054908201527f5052495649506f64455243373231526f79616c7479466163746f72793a206d7560408201527f73742068617665204d4f44455241544f525f524f4c4520746f2061737369676e60608201527f20537761704d616e616765722061646472657373000000000000000000000000608082015260a00190565b60208082526041908201527f5052495649506f64455243373231526f79616c7479466163746f72793a20416360408201527f636f756e7420616464726573732073686f756c64206e6f74206265207a65726f6060820152601760f91b608082015260a00190565b6020808252604e908201527f5052495649506f64455243373231526f79616c7479466163746f72793a206d7560408201527f73742068617665204d4f44455241544f525f524f4c4520746f20696e7665737460608201527f20666f7220696e766573746f722e000000000000000000000000000000000000608082015260a00190565b6020808252602f908201527f416363657373436f6e74726f6c3a2063616e206f6e6c792072656e6f756e636560408201527f20726f6c657320666f722073656c660000000000000000000000000000000000606082015260800190565b60405181810167ffffffffffffffff81118282101715620016ce57620016ce62001722565b604052919050565b600067ffffffffffffffff821115620016f357620016f362001722565b5060209081020190565b600082198211156200171d57634e487b7160e01b81526011600452602481fd5b500190565b634e487b7160e01b600052604160045260246000fdfe608060405234801561001057600080fd5b506040516108a63803806108a683398101604081905261002f916101a9565b80518251146100595760405162461bcd60e51b815260040161005090610276565b60405180910390fd5b815161006c906000906020850190610088565b5080516100809060019060208401906100ed565b505050610341565b8280548282559060005260206000209081019282156100dd579160200282015b828111156100dd57825182546001600160a01b0319166001600160a01b039091161782556020909201916001909101906100a8565b506100e9929150610128565b5090565b8280548282559060005260206000209081019282156100dd579160200282015b828111156100dd57825182559160200191906001019061010d565b5b808211156100e95760008155600101610129565b600082601f83011261014d578081fd5b8151602061016261015d83610308565b6102df565b828152818101908583018385028701840188101561017e578586fd5b855b8581101561019c57815184529284019290840190600101610180565b5090979650505050505050565b600080604083850312156101bb578182fd5b82516001600160401b03808211156101d1578384fd5b818501915085601f8301126101e4578384fd5b815160206101f461015d83610308565b82815281810190858301838502870184018b1015610210578889fd5b8896505b848710156102465780516001600160a01b038116811461023257898afd5b835260019690960195918301918301610214565b509188015191965090935050508082111561025f578283fd5b5061026c8582860161013d565b9150509250929050565b60208082526043908201527f4d756c746943726561746f724e66744d616e616765723a2043726561746f727360408201527f20616e642053686172657320617265206e6f74206f662073616d65206c656e676060820152623a341760e91b608082015260a00190565b6040518181016001600160401b03811182821017156103005761030061032b565b604052919050565b60006001600160401b038211156103215761032161032b565b5060209081020190565b634e487b7160e01b600052604160045260246000fd5b610556806103506000396000f3fe60806040526004361061007f5760003560e01c8063ad9adcdc1161004e578063ad9adcdc14610135578063c760a23714610155578063cd53d08e14610175578063d3b97417146101a2576100b0565b80632e1a7d4d146100b557806357a858fc146100d55780636f9fb98a1461010b57806392e6c00414610120576100b0565b366100b057346003600061009360026101c2565b81526020810191909152604001600020556100ae60026101c6565b005b600080fd5b3480156100c157600080fd5b506100ae6100d0366004610406565b6101cf565b3480156100e157600080fd5b506100f56100f0366004610406565b610286565b604051610102919061048f565b60405180910390f35b34801561011757600080fd5b506100f56102a7565b34801561012c57600080fd5b506100f56102ab565b34801561014157600080fd5b506100f56101503660046103d8565b6102b1565b34801561016157600080fd5b506100f5610170366004610406565b6102c3565b34801561018157600080fd5b50610195610190366004610406565b6102d5565b604051610102919061041e565b3480156101ae57600080fd5b506100f56101bd366004610406565b6102ff565b5490565b80546001019055565b600081815481106101f057634e487b7160e01b600052603260045260246000fd5b6000918252602090912001546001600160a01b0316331461022c5760405162461bcd60e51b815260040161022390610432565b60405180910390fd5b6000610237826102ff565b905061024360026101c2565b33600081815260046020526040808220939093559151909183156108fc02918491818181858888f19350505050158015610281573d6000803e3d6000fd5b505050565b6001818154811061029657600080fd5b600091825260209091200154905081565b4790565b60025481565b60046020526000908152604090205481565b60036020526000908152604090205481565b600081815481106102e557600080fd5b6000918252602090912001546001600160a01b0316905081565b6000806004600080858154811061032657634e487b7160e01b600052603260045260246000fd5b60009182526020808320909101546001600160a01b0316835282019290925260400190205490505b61035860026101c2565b81116103d257606460036000838152602001908152602001600020546001858154811061039557634e487b7160e01b600052603260045260246000fd5b90600052602060002001546103aa91906104d0565b6103b491906104b0565b6103be9083610498565b9150806103ca816104ef565b91505061034e565b50919050565b6000602082840312156103e9578081fd5b81356001600160a01b03811681146103ff578182fd5b9392505050565b600060208284031215610417578081fd5b5035919050565b6001600160a01b0391909116815260200190565b60208082526038908201527f4d756c746943726561746f724e66744d616e616765723a20596f75206172652060408201527f6e6f74206f6e65206f66207468652063726561746f72732e0000000000000000606082015260800190565b90815260200190565b600082198211156104ab576104ab61050a565b500190565b6000826104cb57634e487b7160e01b81526012600452602481fd5b500490565b60008160001904831182151516156104ea576104ea61050a565b500290565b60006000198214156105035761050361050a565b5060010190565b634e487b7160e01b600052601160045260246000fdfea2646970667358221220614c7152c64e16c76e68b6b48f879a82ad1463160d1256a69a0ad1f1313eee9364736f6c6343000800003360806040523480156200001157600080fd5b5060405162001e2338038062001e2383398101604081905262000034916200022e565b81818787816000908051906020019062000050929190620000c0565b50805162000066906001906020840190620000c0565b505050600691909155600780546001600160a01b03199081166001600160a01b0393841617909155600880549091169185169190911790558351620000b3906009906020870190620000c0565b505050505050506200033c565b828054620000ce90620002e9565b90600052602060002090601f016020900481019282620000f257600085556200013d565b82601f106200010d57805160ff19168380011785556200013d565b828001600101855582156200013d579182015b828111156200013d57825182559160200191906001019062000120565b506200014b9291506200014f565b5090565b5b808211156200014b576000815560010162000150565b80516001600160a01b03811681146200017e57600080fd5b919050565b600082601f83011262000194578081fd5b81516001600160401b0380821115620001b157620001b162000326565b6040516020601f8401601f1916820181018381118382101715620001d957620001d962000326565b6040528382528584018101871015620001f0578485fd5b8492505b83831015620002135785830181015182840182015291820191620001f4565b838311156200022457848185840101525b5095945050505050565b60008060008060008060c0878903121562000247578182fd5b86516001600160401b03808211156200025e578384fd5b6200026c8a838b0162000183565b9750602089015191508082111562000282578384fd5b620002908a838b0162000183565b96506040890151915080821115620002a6578384fd5b50620002b589828a0162000183565b945050620002c66060880162000166565b925060808701519150620002dd60a0880162000166565b90509295509295509295565b600281046001821680620002fe57607f821691505b602082108114156200032057634e487b7160e01b600052602260045260246000fd5b50919050565b634e487b7160e01b600052604160045260246000fd5b611ad7806200034c6000396000f3fe6080604052600436106101555760003560e01c806370a08231116100bb5780639d35c1611161007f578063c87b56dd11610059578063c87b56dd146103ba578063cfd0244b146103da578063e985e9c5146103ed57610155565b80639d35c16114610365578063a22cb4651461037a578063b88d4fde1461039a57610155565b806370a08231146102d95780637c6e551d1461030657806384a09c271461031b57806395d89b411461033b5780639822e8c01461035057610155565b806340c10f191161011d57806346e80720116100f757806346e80720146102815780636352211e146102a4578063656605d6146102c457610155565b806340c10f191461022157806342842e0e1461024157806342966c681461026157610155565b806301ffc9a71461015a57806306fdde0314610190578063081812fc146101b2578063095ea7b3146101df57806323b872dd14610201575b600080fd5b34801561016657600080fd5b5061017a6101753660046112ac565b61040d565b60405161018791906113ec565b60405180910390f35b34801561019c57600080fd5b506101a5610455565b60405161018791906113f7565b3480156101be57600080fd5b506101d26101cd3660046112e4565b6104e7565b604051610187919061139c565b3480156101eb57600080fd5b506101ff6101fa366004611283565b610533565b005b34801561020d57600080fd5b506101ff61021c366004611142565b6105cb565b34801561022d57600080fd5b506101ff61023c366004611283565b610603565b34801561024d57600080fd5b506101ff61025c366004611142565b61064b565b34801561026d57600080fd5b506101ff61027c3660046112e4565b610666565b34801561028d57600080fd5b50610296610699565b60405161018792919061193a565b3480156102b057600080fd5b506101d26102bf3660046112e4565b6106ac565b3480156102d057600080fd5b5061017a6106e1565b3480156102e557600080fd5b506102f96102f43660046110f6565b6106e6565b6040516101879190611931565b34801561031257600080fd5b506102f961072a565b34801561032757600080fd5b506101ff610336366004611142565b610730565b34801561034757600080fd5b506101a5610776565b34801561035c57600080fd5b506101d2610785565b34801561037157600080fd5b506101d2610794565b34801561038657600080fd5b506101ff610395366004611249565b6107a3565b3480156103a657600080fd5b506101ff6103b536600461117d565b610871565b3480156103c657600080fd5b506101a56103d53660046112e4565b6108b0565b6101ff6103e83660046112fc565b610933565b3480156103f957600080fd5b5061017a610408366004611110565b610a3b565b60006001600160e01b031982166380ac58cd60e01b148061043e57506001600160e01b03198216635b5e139f60e01b145b8061044d575061044d82610a69565b90505b919050565b606060008054610464906119df565b80601f0160208091040260200160405190810160405280929190818152602001828054610490906119df565b80156104dd5780601f106104b2576101008083540402835291602001916104dd565b820191906000526020600020905b8154815290600101906020018083116104c057829003601f168201915b5050505050905090565b60006104f282610a82565b6105175760405162461bcd60e51b815260040161050e90611744565b60405180910390fd5b506000908152600460205260409020546001600160a01b031690565b600061053e826106ac565b9050806001600160a01b0316836001600160a01b031614156105725760405162461bcd60e51b815260040161050e90611836565b806001600160a01b0316610584610a9f565b6001600160a01b031614806105a057506105a081610408610a9f565b6105bc5760405162461bcd60e51b815260040161050e906115c2565b6105c68383610aa3565b505050565b6105dc6105d6610a9f565b82610b11565b6105f85760405162461bcd60e51b815260040161050e90611877565b6105c6838383610b96565b6008546001600160a01b0316610617610a9f565b6001600160a01b03161461063d5760405162461bcd60e51b815260040161050e9061149e565b6106478282610cc3565b5050565b6105c683838360405180602001604052806000815250610871565b6106716105d6610a9f565b61068d5760405162461bcd60e51b815260040161050e906118d4565b61069681610da2565b50565b6006546007546001600160a01b03169091565b6000818152600260205260408120546001600160a01b03168061044d5760405162461bcd60e51b815260040161050e90611669565b600190565b60006001600160a01b03821661070e5760405162461bcd60e51b815260040161050e9061161f565b506001600160a01b031660009081526003602052604090205490565b60065490565b80826001600160a01b0316846001600160a01b03167f06cb0b9d04d0ac2a93b9b9a93ee6c2511e069efb107c06eee43c85021fbc04ed60405160405180910390a4505050565b606060018054610464906119df565b6007546001600160a01b031690565b6008546001600160a01b031681565b6107ab610a9f565b6001600160a01b0316826001600160a01b031614156107dc5760405162461bcd60e51b815260040161050e9061153f565b80600560006107e9610a9f565b6001600160a01b03908116825260208083019390935260409182016000908120918716808252919093529120805460ff19169215159290921790915561082d610a9f565b6001600160a01b03167f17307eab39ab6107e8899845ad3d59bd9653f200f220920489ca2b5937696c318360405161086591906113ec565b60405180910390a35050565b61088261087c610a9f565b83610b11565b61089e5760405162461bcd60e51b815260040161050e90611877565b6108aa84848484610e49565b50505050565b60606108bb82610a82565b6108d75760405162461bcd60e51b815260040161050e906117d9565b60006108e1610e7c565b90506000815111610901576040518060200160405280600081525061092c565b8061090b84610e8b565b60405160200161091c92919061136d565b6040516020818303038152906040525b9392505050565b8334146109525760405162461bcd60e51b815260040161050e906116b2565b6000606460065434610964919061197d565b61096e9190611969565b6007546040519192506001600160a01b031690819083156108fc029084906000818181858888f193505050501580156109ab573d6000803e3d6000fd5b506001600160a01b0384166108fc6109c3843461199c565b6040518115909202916000818181858888f193505050501580156109eb573d6000803e3d6000fd5b50610a1c8484876040518060400160405280600c81526020016b1c9bde585b1d1e481c185a5960a21b815250610871565b600754610a33906001600160a01b03168484610730565b505050505050565b6001600160a01b03918216600090815260056020908152604080832093909416825291909152205460ff1690565b6001600160e01b031981166301ffc9a760e01b14919050565b6000908152600260205260409020546001600160a01b0316151590565b3390565b600081815260046020526040902080546001600160a01b0319166001600160a01b0384169081179091558190610ad8826106ac565b6001600160a01b03167f8c5be1e5ebec7d5bd14f71427d1e84f3dd0314c0f7b2291e5b200ac8c7c3b92560405160405180910390a45050565b6000610b1c82610a82565b610b385760405162461bcd60e51b815260040161050e90611576565b6000610b43836106ac565b9050806001600160a01b0316846001600160a01b03161480610b7e5750836001600160a01b0316610b73846104e7565b6001600160a01b0316145b80610b8e5750610b8e8185610a3b565b949350505050565b826001600160a01b0316610ba9826106ac565b6001600160a01b031614610bcf5760405162461bcd60e51b815260040161050e90611790565b6001600160a01b038216610bf55760405162461bcd60e51b815260040161050e906114fb565b610c008383836105c6565b610c0b600082610aa3565b6001600160a01b0383166000908152600360205260408120805460019290610c3490849061199c565b90915550506001600160a01b0382166000908152600360205260408120805460019290610c62908490611951565b909155505060008181526002602052604080822080546001600160a01b0319166001600160a01b0386811691821790925591518493918716917fddf252ad1be2c89b69c2b068fc378daa952ba7f163c4a11628f55a4df523b3ef91a4505050565b6001600160a01b038216610ce95760405162461bcd60e51b815260040161050e9061170f565b610cf281610a82565b15610d0f5760405162461bcd60e51b815260040161050e90611467565b610d1b600083836105c6565b6001600160a01b0382166000908152600360205260408120805460019290610d44908490611951565b909155505060008181526002602052604080822080546001600160a01b0319166001600160a01b03861690811790915590518392907fddf252ad1be2c89b69c2b068fc378daa952ba7f163c4a11628f55a4df523b3ef908290a45050565b6000610dad826106ac565b9050610dbb816000846105c6565b610dc6600083610aa3565b6001600160a01b0381166000908152600360205260408120805460019290610def90849061199c565b909155505060008281526002602052604080822080546001600160a01b0319169055518391906001600160a01b038416907fddf252ad1be2c89b69c2b068fc378daa952ba7f163c4a11628f55a4df523b3ef908390a45050565b610e54848484610b96565b610e6084848484610fbe565b6108aa5760405162461bcd60e51b815260040161050e9061140a565b606060098054610464906119df565b606081610eb057506040805180820190915260018152600360fc1b6020820152610450565b8160005b8115610eda5780610ec481611a1a565b9150610ed39050600a83611969565b9150610eb4565b60008167ffffffffffffffff811115610f0357634e487b7160e01b600052604160045260246000fd5b6040519080825280601f01601f191660200182016040528015610f2d576020820181803683370190505b5090505b8415610b8e57610f4260018361199c565b9150610f4f600a86611a35565b610f5a906030611951565b60f81b818381518110610f7d57634e487b7160e01b600052603260045260246000fd5b60200101907effffffffffffffffffffffffffffffffffffffffffffffffffffffffffffff1916908160001a905350610fb7600a86611969565b9450610f31565b6000610fd2846001600160a01b03166110d9565b156110ce57836001600160a01b031663150b7a02610fee610a9f565b8786866040518563ffffffff1660e01b815260040161101094939291906113b0565b602060405180830381600087803b15801561102a57600080fd5b505af192505050801561105a575060408051601f3d908101601f19168201909252611057918101906112c8565b60015b6110b4573d808015611088576040519150601f19603f3d011682016040523d82523d6000602084013e61108d565b606091505b5080516110ac5760405162461bcd60e51b815260040161050e9061140a565b805181602001fd5b6001600160e01b031916630a85bd0160e11b149050610b8e565b506001949350505050565b3b151590565b80356001600160a01b038116811461045057600080fd5b600060208284031215611107578081fd5b61092c826110df565b60008060408385031215611122578081fd5b61112b836110df565b9150611139602084016110df565b90509250929050565b600080600060608486031215611156578081fd5b61115f846110df565b925061116d602085016110df565b9150604084013590509250925092565b60008060008060808587031215611192578081fd5b61119b856110df565b935060206111aa8187016110df565b935060408601359250606086013567ffffffffffffffff808211156111cd578384fd5b818801915088601f8301126111e0578384fd5b8135818111156111f2576111f2611a75565b604051601f8201601f191681018501838111828210171561121557611215611a75565b60405281815283820185018b101561122b578586fd5b81858501868301379081019093019390935250939692955090935050565b6000806040838503121561125b578182fd5b611264836110df565b915060208301358015158114611278578182fd5b809150509250929050565b60008060408385031215611295578182fd5b61129e836110df565b946020939093013593505050565b6000602082840312156112bd578081fd5b813561092c81611a8b565b6000602082840312156112d9578081fd5b815161092c81611a8b565b6000602082840312156112f5578081fd5b5035919050565b60008060008060808587031215611311578384fd5b8435935060208501359250611328604086016110df565b9150611336606086016110df565b905092959194509250565b600081518084526113598160208601602086016119b3565b601f01601f19169290920160200192915050565b6000835161137f8184602088016119b3565b8351908301906113938183602088016119b3565b01949350505050565b6001600160a01b0391909116815260200190565b60006001600160a01b038087168352808616602084015250836040830152608060608301526113e26080830184611341565b9695505050505050565b901515815260200190565b60006020825261092c6020830184611341565b60208082526032908201527f4552433732313a207472616e7366657220746f206e6f6e20455243373231526560408201527f63656976657220696d706c656d656e7465720000000000000000000000000000606082015260800190565b6020808252601c908201527f4552433732313a20746f6b656e20616c7265616479206d696e74656400000000604082015260600190565b60208082526039908201527f5052495649506f64455243373231546f6b656e3a204f6e6c7920466163746f7260408201527f792063616e2063616c6c20746869732066756e6374696f6e2e00000000000000606082015260800190565b60208082526024908201527f4552433732313a207472616e7366657220746f20746865207a65726f206164646040820152637265737360e01b606082015260800190565b60208082526019908201527f4552433732313a20617070726f766520746f2063616c6c657200000000000000604082015260600190565b6020808252602c908201527f4552433732313a206f70657261746f7220717565727920666f72206e6f6e657860408201526b34b9ba32b73a103a37b5b2b760a11b606082015260800190565b60208082526038908201527f4552433732313a20617070726f76652063616c6c6572206973206e6f74206f7760408201527f6e6572206e6f7220617070726f76656420666f7220616c6c0000000000000000606082015260800190565b6020808252602a908201527f4552433732313a2062616c616e636520717565727920666f7220746865207a65604082015269726f206164647265737360b01b606082015260800190565b60208082526029908201527f4552433732313a206f776e657220717565727920666f72206e6f6e657869737460408201526832b73a103a37b5b2b760b91b606082015260800190565b60208082526039908201527f5052495649506f64455243373231526f79616c7479546f6b656e3a20726f796160408201527f6c747920616d6f756e74206973206e6f7420636f727265637400000000000000606082015260800190565b6020808252818101527f4552433732313a206d696e7420746f20746865207a65726f2061646472657373604082015260600190565b6020808252602c908201527f4552433732313a20617070726f76656420717565727920666f72206e6f6e657860408201526b34b9ba32b73a103a37b5b2b760a11b606082015260800190565b60208082526029908201527f4552433732313a207472616e73666572206f6620746f6b656e2074686174206960408201526839903737ba1037bbb760b91b606082015260800190565b6020808252602f908201527f4552433732314d657461646174613a2055524920717565727920666f72206e6f60408201527f6e6578697374656e7420746f6b656e0000000000000000000000000000000000606082015260800190565b60208082526021908201527f4552433732313a20617070726f76616c20746f2063757272656e74206f776e656040820152603960f91b606082015260800190565b60208082526031908201527f4552433732313a207472616e736665722063616c6c6572206973206e6f74206f60408201527f776e6572206e6f7220617070726f766564000000000000000000000000000000606082015260800190565b60208082526030908201527f4552433732314275726e61626c653a2063616c6c6572206973206e6f74206f7760408201527f6e6572206e6f7220617070726f76656400000000000000000000000000000000606082015260800190565b90815260200190565b9182526001600160a01b0316602082015260400190565b6000821982111561196457611964611a49565b500190565b60008261197857611978611a5f565b500490565b600081600019048311821515161561199757611997611a49565b500290565b6000828210156119ae576119ae611a49565b500390565b60005b838110156119ce5781810151838201526020016119b6565b838111156108aa5750506000910152565b6002810460018216806119f357607f821691505b60208210811415611a1457634e487b7160e01b600052602260045260246000fd5b50919050565b6000600019821415611a2e57611a2e611a49565b5060010190565b600082611a4457611a44611a5f565b500690565b634e487b7160e01b600052601160045260246000fd5b634e487b7160e01b600052601260045260246000fd5b634e487b7160e01b600052604160045260246000fd5b6001600160e01b03198116811461069657600080fdfea264697066735822122072e828ef59f89c8ef4b4daab5ed37dc47bda6acb44aad24fb9eb695fc8af16b064736f6c63430008000033a264697066735822122029cc5b33d9ea6d7d0282dc24549a0f833fae3dacdbffb21e96bea007abbeda8364736f6c63430008000033",
  "immutableReferences": {},
  "source": "// SPDX-License-Identifier: MIT\npragma solidity ^0.8.0;\n\nimport \"@openzeppelin/contracts/access/AccessControl.sol\";\nimport \"./token/PRIVIPodERC721RoyaltyToken.sol\";\nimport \"./interfaces/IBridgeManager.sol\";\nimport \"./deployable_managers/MultiCreatorNftManager.sol\";\n\n/**\n * @title   PRIVIPodERC721RoyaltyFactory contract\n * @dev     Creates new royalty ERC721 tokens using a factory pattern\n * @author  PRIVI\n **/\ncontract PRIVIPodERC721RoyaltyFactory is AccessControl {\n  bytes32 public constant MODERATOR_ROLE = keccak256(\"MODERATOR_ROLE\");\n  address public bridgeManagerAddress;\n  uint256 private totalPodCreated;\n  mapping(string => address) private podTokenAddressesById;\n  mapping(string => address) private podTokenAddressesBySymbol;\n\n  event PodCreated(\n    string indexed podId,\n    string podTokenName,\n    string podTokenSymbol\n  );\n\n  /**\n   * @dev Grants `DEFAULT_ADMIN_ROLE` and `MODERATOR_ROLE` to the\n   * account that deploys the contract.\n   * - Assigns the bridgeManager address\n   */\n  constructor(address bridgeAddress) {\n    _setupRole(DEFAULT_ADMIN_ROLE, _msgSender());\n    _setupRole(MODERATOR_ROLE, _msgSender());\n    bridgeManagerAddress = bridgeAddress;\n  }\n\n  /**\n   * @notice  Assigns `MODERATOR_ROLE` to SwapManager contract\n   * @param   swapManagerAddress The SwapManager contract address\n   */\n  function assignRoleSwapManager(address swapManagerAddress) external {\n    require(\n      hasRole(MODERATOR_ROLE, _msgSender()),\n      \"PRIVIPodERC721RoyaltyFactory: must have MODERATOR_ROLE to assign SwapManager address\"\n    );\n    _setupRole(MODERATOR_ROLE, swapManagerAddress);\n  }\n\n  /**\n   * @notice  Returns the total amount of Pod tokens created\n   */\n  function getTotalTokenCreated() external view returns (uint256 totalPods) {\n    totalPods = totalPodCreated;\n  }\n\n  /**\n   * @notice Returns the contract address of the Pod token\n   * @param  podId The Pod token identifier\n   * @return podAddress The contract address of the Pod token\n   */\n  function getPodAddressById(string calldata podId)\n    external\n    view\n    returns (address podAddress)\n  {\n    podAddress = podTokenAddressesById[podId];\n  }\n\n  /**\n   * @notice Returns the contract address of the Pod token\n   * @param  tokenSymbol The Pod token symbol (ticker)\n   * @return podAddress The contract address of the Pod token\n   */\n  function getPodAddressBySymbol(string calldata tokenSymbol)\n    external\n    view\n    returns (address podAddress)\n  {\n    podAddress = podTokenAddressesBySymbol[tokenSymbol];\n  }\n\n  /**\n   * @notice Creates a royalty ERC721 Pod token and registers it in the BridgeManager\n   * @dev    - Pod id must not exist\n   *         - Pod name & symbol must not exist\n   *         - Pod name & symbol can't be empty\n   *         - Pod symbol can't be greater than 25 characters\n   * @param  podId The Pod token identifier\n   * @param  podTokenName The Pod token name\n   * @param  podTokenSymbol The Pod token symbol (ticker)\n   * @param  baseURI The base URI\n   * @param  royaltyAmount The royalty amount in percentage\n   * @param  creator The Pod token creator to receive royalties\n   * @return podAddress The contract address of the Pod token created\n   */\n  function createPod(\n    string calldata podId,\n    string calldata podTokenName,\n    string calldata podTokenSymbol,\n    string calldata baseURI,\n    uint256 royaltyAmount,\n    address creator\n  ) external returns (address podAddress) {\n    // TODO: Check restrictions to create POD tokens\n    // require(hasRole(MODERATOR_ROLE, _msgSender()), \"PRIVIPodERC721TokenFactory: must have MODERATOR_ROLE to create pod.\");\n    require(\n      podTokenAddressesById[podId] == address(0),\n      \"PRIVIPodERC721RoyaltyFactory: Pod id already exists.\"\n    );\n    require(\n      podTokenAddressesBySymbol[podTokenSymbol] == address(0),\n      \"PRIVIPodERC721RoyaltyFactory: Pod symbol already exists.\"\n    );\n\n    PRIVIPodERC721RoyaltyToken podToken =\n      new PRIVIPodERC721RoyaltyToken(\n        podTokenName,\n        podTokenSymbol,\n        baseURI,\n        address(this),\n        royaltyAmount,\n        creator\n      );\n    podAddress = address(podToken);\n\n    totalPodCreated += 1;\n\n    podTokenAddressesById[podId] = podAddress;\n    podTokenAddressesBySymbol[podTokenSymbol] = podAddress;\n\n    IBridgeManager(bridgeManagerAddress).registerTokenERC721(\n      podTokenName,\n      podTokenSymbol,\n      podAddress\n    );\n\n    emit PodCreated(podId, podTokenName, podTokenSymbol);\n  }\n\n  /**\n   * @notice Creates a royalty ERC721 Pod tokens generated by multiple \n   * creators and registers it in the BridgeManager\n   * @dev    - Pod id must not exist\n   *         - Pod name & symbol must not exist\n   *         - Pod name & symbol can't be empty\n   *         - Pod symbol can't be greater than 25 characters\n   * @param  podId The Pod token identifier\n   * @param  podTokenName The Pod token name\n   * @param  podTokenSymbol The Pod token symbol (ticker)\n   * @param  baseURI The base URI\n   * @param  royaltyAmount The royalty amount in percentage\n   * @param  royaltyShares An array of royalty amounts to be shared to creators\n   * @param  creators An array of Pod token creators to receive royalties\n   * @return podAddress The contract address of the Pod token created\n   */\n  function createMultiCreatorPod(\n    string calldata podId,\n    string calldata podTokenName,\n    string calldata podTokenSymbol,\n    string calldata baseURI,\n    uint256 royaltyAmount,\n    uint256[] memory royaltyShares,\n    address[] memory creators\n  ) external returns (address podAddress) {\n    // TODO: Check restrictions to create POD tokens\n    // require(hasRole(MODERATOR_ROLE, _msgSender()), \"PRIVIPodERC721TokenFactory: must have MODERATOR_ROLE to create pod.\");\n    require(\n      podTokenAddressesById[podId] == address(0),\n      \"PRIVIPodERC721RoyaltyFactory: Pod id already exists.\"\n    );\n    require(\n      podTokenAddressesBySymbol[podTokenSymbol] == address(0),\n      \"PRIVIPodERC721RoyaltyFactory: Pod symbol already exists.\"\n    );\n\n    MultiCreatorNftManager multiCreatorManager =\n      new MultiCreatorNftManager(creators, royaltyShares);\n\n    PRIVIPodERC721RoyaltyToken podToken =\n      new PRIVIPodERC721RoyaltyToken(\n        podTokenName,\n        podTokenSymbol,\n        baseURI,\n        address(this),\n        royaltyAmount,\n        address(multiCreatorManager)\n      );\n    podAddress = address(podToken);\n\n    totalPodCreated += 1;\n\n    podTokenAddressesById[podId] = podAddress;\n    podTokenAddressesBySymbol[podTokenSymbol] = podAddress;\n\n    IBridgeManager(bridgeManagerAddress).registerTokenERC721(\n      podTokenName,\n      podTokenSymbol,\n      podAddress\n    );\n\n    emit PodCreated(podId, podTokenName, podTokenSymbol);\n  }\n\n  /**\n   * @notice Mints royalty ERC721 Pod tokens\n   * @dev    - The caller must be MODERATOR_ROLE\n   *         - `account` address can't be zero\n   * @param  podId The Pod token identifier\n   * @param  account The destination account to receive minted tokens\n   */\n  function mintPodTokenById(string calldata podId, uint256 tokenId, address account) external {\n    require(\n      hasRole(MODERATOR_ROLE, _msgSender()),\n      \"PRIVIPodERC721RoyaltyFactory: must have MODERATOR_ROLE to invest for investor.\"\n    );\n    require(\n      account != address(0),\n      \"PRIVIPodERC721RoyaltyFactory: Account address should not be zero.\"\n    );\n\n    PRIVIPodERC721RoyaltyToken(podTokenAddressesById[podId]).mint(account, tokenId);\n  }\n\n  /**\n   * @notice Mints royalty ERC721 Pod tokens\n   * @dev    - The caller must be MODERATOR_ROLE\n   *         - `account` address can't be zero\n   * @param  tokenSymbol The Pod token symbol (sticker)\n   * @param  account The destination account to receive minted tokens\n   */\n  function mintPodTokenBySymbol(string calldata tokenSymbol, uint256 tokenId, address account)\n    external\n  {\n    require(\n      hasRole(MODERATOR_ROLE, _msgSender()),\n      \"PRIVIPodERC721RoyaltyFactory: must have MODERATOR_ROLE to invest for investor.\"\n    );\n    require(\n      account != address(0),\n      \"PRIVIPodERC721RoyaltyFactory: Account address should not be zero.\"\n    );\n\n    PRIVIPodERC721RoyaltyToken(podTokenAddressesBySymbol[tokenSymbol]).mint(\n      account,\n      tokenId\n    );\n  }\n}\n",
  "sourcePath": "/Volumes/Workspace/PRIVI/PRIVIethereum/contracts/PRIVIPodERC721RoyaltyFactory.sol",
  "compiler": {
    "name": "solc",
    "version": "0.8.0+commit.c7dfd78e.Emscripten.clang"
  },
  "schemaVersion": "3.3.4",
  "updatedAt": "2021-04-21T22:08:26.647Z",
  "networkType": "ethereum",
  "devdoc": {
    "author": "PRIVI*",
    "details": "Creates new royalty ERC721 tokens using a factory pattern",
    "kind": "dev",
    "methods": {
      "assignRoleSwapManager(address)": {
        "params": {
          "swapManagerAddress": "The SwapManager contract address"
        }
      },
      "constructor": {
        "details": "Grants `DEFAULT_ADMIN_ROLE` and `MODERATOR_ROLE` to the account that deploys the contract. - Assigns the bridgeManager address"
      },
      "createMultiCreatorPod(string,string,string,string,uint256,uint256[],address[])": {
        "details": "- Pod id must not exist         - Pod name & symbol must not exist         - Pod name & symbol can't be empty         - Pod symbol can't be greater than 25 characters",
        "params": {
          "baseURI": "The base URI",
          "creators": "An array of Pod token creators to receive royalties",
          "podId": "The Pod token identifier",
          "podTokenName": "The Pod token name",
          "podTokenSymbol": "The Pod token symbol (ticker)",
          "royaltyAmount": "The royalty amount in percentage",
          "royaltyShares": "An array of royalty amounts to be shared to creators"
        },
        "returns": {
          "podAddress": "The contract address of the Pod token created"
        }
      },
      "createPod(string,string,string,string,uint256,address)": {
        "details": "- Pod id must not exist         - Pod name & symbol must not exist         - Pod name & symbol can't be empty         - Pod symbol can't be greater than 25 characters",
        "params": {
          "baseURI": "The base URI",
          "creator": "The Pod token creator to receive royalties",
          "podId": "The Pod token identifier",
          "podTokenName": "The Pod token name",
          "podTokenSymbol": "The Pod token symbol (ticker)",
          "royaltyAmount": "The royalty amount in percentage"
        },
        "returns": {
          "podAddress": "The contract address of the Pod token created"
        }
      },
      "getPodAddressById(string)": {
        "params": {
          "podId": "The Pod token identifier"
        },
        "returns": {
          "podAddress": "The contract address of the Pod token"
        }
      },
      "getPodAddressBySymbol(string)": {
        "params": {
          "tokenSymbol": "The Pod token symbol (ticker)"
        },
        "returns": {
          "podAddress": "The contract address of the Pod token"
        }
      },
      "getRoleAdmin(bytes32)": {
        "details": "Returns the admin role that controls `role`. See {grantRole} and {revokeRole}. To change a role's admin, use {_setRoleAdmin}."
      },
      "grantRole(bytes32,address)": {
        "details": "Grants `role` to `account`. If `account` had not been already granted `role`, emits a {RoleGranted} event. Requirements: - the caller must have ``role``'s admin role."
      },
      "hasRole(bytes32,address)": {
        "details": "Returns `true` if `account` has been granted `role`."
      },
      "mintPodTokenById(string,uint256,address)": {
        "details": "- The caller must be MODERATOR_ROLE         - `account` address can't be zero",
        "params": {
          "account": "The destination account to receive minted tokens",
          "podId": "The Pod token identifier"
        }
      },
      "mintPodTokenBySymbol(string,uint256,address)": {
        "details": "- The caller must be MODERATOR_ROLE         - `account` address can't be zero",
        "params": {
          "account": "The destination account to receive minted tokens",
          "tokenSymbol": "The Pod token symbol (sticker)"
        }
      },
      "renounceRole(bytes32,address)": {
        "details": "Revokes `role` from the calling account. Roles are often managed via {grantRole} and {revokeRole}: this function's purpose is to provide a mechanism for accounts to lose their privileges if they are compromised (such as when a trusted device is misplaced). If the calling account had been granted `role`, emits a {RoleRevoked} event. Requirements: - the caller must be `account`."
      },
      "revokeRole(bytes32,address)": {
        "details": "Revokes `role` from `account`. If `account` had been granted `role`, emits a {RoleRevoked} event. Requirements: - the caller must have ``role``'s admin role."
      },
      "supportsInterface(bytes4)": {
        "details": "See {IERC165-supportsInterface}."
      }
    },
    "title": "PRIVIPodERC721RoyaltyFactory contract",
    "version": 1
  },
  "userdoc": {
    "kind": "user",
    "methods": {
      "assignRoleSwapManager(address)": {
        "notice": "Assigns `MODERATOR_ROLE` to SwapManager contract"
      },
      "createMultiCreatorPod(string,string,string,string,uint256,uint256[],address[])": {
        "notice": "Creates a royalty ERC721 Pod tokens generated by multiple  creators and registers it in the BridgeManager"
      },
      "createPod(string,string,string,string,uint256,address)": {
        "notice": "Creates a royalty ERC721 Pod token and registers it in the BridgeManager"
      },
      "getPodAddressById(string)": {
        "notice": "Returns the contract address of the Pod token"
      },
      "getPodAddressBySymbol(string)": {
        "notice": "Returns the contract address of the Pod token"
      },
      "getTotalTokenCreated()": {
        "notice": "Returns the total amount of Pod tokens created"
      },
      "mintPodTokenById(string,uint256,address)": {
        "notice": "Mints royalty ERC721 Pod tokens"
      },
      "mintPodTokenBySymbol(string,uint256,address)": {
        "notice": "Mints royalty ERC721 Pod tokens"
      }
    },
    "version": 1
  }
}