{
  "contractName": "SwapManager",
  "abi": [
    {
      "inputs": [
        {
          "internalType": "address",
          "name": "bridgeDeployedAddress",
          "type": "address"
        },
        {
          "internalType": "address",
          "name": "erc20FactoryDeployedAddress",
          "type": "address"
        },
        {
          "internalType": "address",
          "name": "erc721FactoryDeployedAddress",
          "type": "address"
        },
        {
          "internalType": "address",
          "name": "erc1155FactoryDeployedAddress",
          "type": "address"
        },
        {
          "internalType": "address",
          "name": "erc721FactoryRoyaltyDeployedAddress",
          "type": "address"
        },
        {
          "internalType": "address",
          "name": "erc1155FactoryRoyaltyDeployedAddress",
          "type": "address"
        }
      ],
      "stateMutability": "nonpayable",
      "type": "constructor"
    },
    {
      "anonymous": false,
      "inputs": [
        {
          "indexed": true,
          "internalType": "string",
          "name": "tokenURI",
          "type": "string"
        },
        {
          "indexed": false,
          "internalType": "address",
          "name": "to",
          "type": "address"
        },
        {
          "indexed": false,
          "internalType": "uint256[]",
          "name": "tokenIds",
          "type": "uint256[]"
        },
        {
          "indexed": false,
          "internalType": "uint256[]",
          "name": "amounts",
          "type": "uint256[]"
        }
      ],
      "name": "BatchWithdrawERC1155Token",
      "type": "event"
    },
    {
      "anonymous": false,
      "inputs": [
        {
          "indexed": true,
          "internalType": "string",
          "name": "tokenURI",
          "type": "string"
        },
        {
          "indexed": false,
          "internalType": "address",
          "name": "from",
          "type": "address"
        },
        {
          "indexed": false,
          "internalType": "uint256",
          "name": "tokenId",
          "type": "uint256"
        },
        {
          "indexed": false,
          "internalType": "uint256",
          "name": "amount",
          "type": "uint256"
        }
      ],
      "name": "DepositERC1155Token",
      "type": "event"
    },
    {
      "anonymous": false,
      "inputs": [
        {
          "indexed": true,
          "internalType": "string",
          "name": "tokenSymbol",
          "type": "string"
        },
        {
          "indexed": false,
          "internalType": "address",
          "name": "from",
          "type": "address"
        },
        {
          "indexed": false,
          "internalType": "uint256",
          "name": "amount",
          "type": "uint256"
        }
      ],
      "name": "DepositERC20Token",
      "type": "event"
    },
    {
      "anonymous": false,
      "inputs": [
        {
          "indexed": true,
          "internalType": "string",
          "name": "tokenSymbol",
          "type": "string"
        },
        {
          "indexed": false,
          "internalType": "address",
          "name": "from",
          "type": "address"
        },
        {
          "indexed": false,
          "internalType": "uint256",
          "name": "tokenId",
          "type": "uint256"
        }
      ],
      "name": "DepositERC721Token",
      "type": "event"
    },
    {
      "anonymous": false,
      "inputs": [
        {
          "indexed": true,
          "internalType": "address",
          "name": "from",
          "type": "address"
        },
        {
          "indexed": false,
          "internalType": "uint256",
          "name": "amount",
          "type": "uint256"
        }
      ],
      "name": "DepositEther",
      "type": "event"
    },
    {
      "anonymous": false,
      "inputs": [
        {
          "indexed": true,
          "internalType": "bytes32",
          "name": "role",
          "type": "bytes32"
        },
        {
          "indexed": true,
          "internalType": "bytes32",
          "name": "previousAdminRole",
          "type": "bytes32"
        },
        {
          "indexed": true,
          "internalType": "bytes32",
          "name": "newAdminRole",
          "type": "bytes32"
        }
      ],
      "name": "RoleAdminChanged",
      "type": "event"
    },
    {
      "anonymous": false,
      "inputs": [
        {
          "indexed": true,
          "internalType": "bytes32",
          "name": "role",
          "type": "bytes32"
        },
        {
          "indexed": true,
          "internalType": "address",
          "name": "account",
          "type": "address"
        },
        {
          "indexed": true,
          "internalType": "address",
          "name": "sender",
          "type": "address"
        }
      ],
      "name": "RoleGranted",
      "type": "event"
    },
    {
      "anonymous": false,
      "inputs": [
        {
          "indexed": true,
          "internalType": "bytes32",
          "name": "role",
          "type": "bytes32"
        },
        {
          "indexed": true,
          "internalType": "address",
          "name": "account",
          "type": "address"
        },
        {
          "indexed": true,
          "internalType": "address",
          "name": "sender",
          "type": "address"
        }
      ],
      "name": "RoleRevoked",
      "type": "event"
    },
    {
      "anonymous": false,
      "inputs": [
        {
          "indexed": true,
          "internalType": "string",
          "name": "tokenURI",
          "type": "string"
        },
        {
          "indexed": false,
          "internalType": "address",
          "name": "to",
          "type": "address"
        },
        {
          "indexed": false,
          "internalType": "uint256",
          "name": "tokenId",
          "type": "uint256"
        },
        {
          "indexed": false,
          "internalType": "uint256",
          "name": "amount",
          "type": "uint256"
        }
      ],
      "name": "WithdrawERC1155Token",
      "type": "event"
    },
    {
      "anonymous": false,
      "inputs": [
        {
          "indexed": true,
          "internalType": "string",
          "name": "tokenSymbol",
          "type": "string"
        },
        {
          "indexed": false,
          "internalType": "address",
          "name": "to",
          "type": "address"
        },
        {
          "indexed": false,
          "internalType": "uint256",
          "name": "amount",
          "type": "uint256"
        }
      ],
      "name": "WithdrawERC20Token",
      "type": "event"
    },
    {
      "anonymous": false,
      "inputs": [
        {
          "indexed": true,
          "internalType": "string",
          "name": "tokenSymbol",
          "type": "string"
        },
        {
          "indexed": false,
          "internalType": "address",
          "name": "to",
          "type": "address"
        },
        {
          "indexed": false,
          "internalType": "uint256",
          "name": "tokenId",
          "type": "uint256"
        }
      ],
      "name": "WithdrawERC721Token",
      "type": "event"
    },
    {
      "anonymous": false,
      "inputs": [
        {
          "indexed": true,
          "internalType": "address",
          "name": "to",
          "type": "address"
        },
        {
          "indexed": false,
          "internalType": "uint256",
          "name": "amount",
          "type": "uint256"
        }
      ],
      "name": "WithdrawEther",
      "type": "event"
    },
    {
      "inputs": [],
      "name": "DEFAULT_ADMIN_ROLE",
      "outputs": [
        {
          "internalType": "bytes32",
          "name": "",
          "type": "bytes32"
        }
      ],
      "stateMutability": "view",
      "type": "function",
      "constant": true
    },
    {
      "inputs": [],
      "name": "TRANSFER_ROLE",
      "outputs": [
        {
          "internalType": "bytes32",
          "name": "",
          "type": "bytes32"
        }
      ],
      "stateMutability": "view",
      "type": "function",
      "constant": true
    },
    {
      "inputs": [],
      "name": "bridgeManagerAddress",
      "outputs": [
        {
          "internalType": "address",
          "name": "",
          "type": "address"
        }
      ],
      "stateMutability": "view",
      "type": "function",
      "constant": true
    },
    {
      "inputs": [],
      "name": "erc1155FactoryAddress",
      "outputs": [
        {
          "internalType": "address",
          "name": "",
          "type": "address"
        }
      ],
      "stateMutability": "view",
      "type": "function",
      "constant": true
    },
    {
      "inputs": [],
      "name": "erc1155RoyaltyFactoryAddress",
      "outputs": [
        {
          "internalType": "address",
          "name": "",
          "type": "address"
        }
      ],
      "stateMutability": "view",
      "type": "function",
      "constant": true
    },
    {
      "inputs": [],
      "name": "erc20FactoryAddress",
      "outputs": [
        {
          "internalType": "address",
          "name": "",
          "type": "address"
        }
      ],
      "stateMutability": "view",
      "type": "function",
      "constant": true
    },
    {
      "inputs": [],
      "name": "erc721FactoryAddress",
      "outputs": [
        {
          "internalType": "address",
          "name": "",
          "type": "address"
        }
      ],
      "stateMutability": "view",
      "type": "function",
      "constant": true
    },
    {
      "inputs": [],
      "name": "erc721RoyaltyFactoryAddress",
      "outputs": [
        {
          "internalType": "address",
          "name": "",
          "type": "address"
        }
      ],
      "stateMutability": "view",
      "type": "function",
      "constant": true
    },
    {
      "inputs": [
        {
          "internalType": "bytes32",
          "name": "role",
          "type": "bytes32"
        }
      ],
      "name": "getRoleAdmin",
      "outputs": [
        {
          "internalType": "bytes32",
          "name": "",
          "type": "bytes32"
        }
      ],
      "stateMutability": "view",
      "type": "function",
      "constant": true
    },
    {
      "inputs": [
        {
          "internalType": "bytes32",
          "name": "role",
          "type": "bytes32"
        },
        {
          "internalType": "address",
          "name": "account",
          "type": "address"
        }
      ],
      "name": "grantRole",
      "outputs": [],
      "stateMutability": "nonpayable",
      "type": "function"
    },
    {
      "inputs": [
        {
          "internalType": "bytes32",
          "name": "role",
          "type": "bytes32"
        },
        {
          "internalType": "address",
          "name": "account",
          "type": "address"
        }
      ],
      "name": "hasRole",
      "outputs": [
        {
          "internalType": "bool",
          "name": "",
          "type": "bool"
        }
      ],
      "stateMutability": "view",
      "type": "function",
      "constant": true
    },
    {
      "inputs": [
        {
          "internalType": "address",
          "name": "",
          "type": "address"
        },
        {
          "internalType": "address",
          "name": "",
          "type": "address"
        },
        {
          "internalType": "uint256[]",
          "name": "",
          "type": "uint256[]"
        },
        {
          "internalType": "uint256[]",
          "name": "",
          "type": "uint256[]"
        },
        {
          "internalType": "bytes",
          "name": "",
          "type": "bytes"
        }
      ],
      "name": "onERC1155BatchReceived",
      "outputs": [
        {
          "internalType": "bytes4",
          "name": "",
          "type": "bytes4"
        }
      ],
      "stateMutability": "nonpayable",
      "type": "function"
    },
    {
      "inputs": [
        {
          "internalType": "address",
          "name": "",
          "type": "address"
        },
        {
          "internalType": "address",
          "name": "",
          "type": "address"
        },
        {
          "internalType": "uint256",
          "name": "",
          "type": "uint256"
        },
        {
          "internalType": "uint256",
          "name": "",
          "type": "uint256"
        },
        {
          "internalType": "bytes",
          "name": "",
          "type": "bytes"
        }
      ],
      "name": "onERC1155Received",
      "outputs": [
        {
          "internalType": "bytes4",
          "name": "",
          "type": "bytes4"
        }
      ],
      "stateMutability": "nonpayable",
      "type": "function"
    },
    {
      "inputs": [
        {
          "internalType": "bytes32",
          "name": "role",
          "type": "bytes32"
        },
        {
          "internalType": "address",
          "name": "account",
          "type": "address"
        }
      ],
      "name": "renounceRole",
      "outputs": [],
      "stateMutability": "nonpayable",
      "type": "function"
    },
    {
      "inputs": [
        {
          "internalType": "bytes32",
          "name": "role",
          "type": "bytes32"
        },
        {
          "internalType": "address",
          "name": "account",
          "type": "address"
        }
      ],
      "name": "revokeRole",
      "outputs": [],
      "stateMutability": "nonpayable",
      "type": "function"
    },
    {
      "inputs": [
        {
          "internalType": "bytes4",
          "name": "interfaceId",
          "type": "bytes4"
        }
      ],
      "name": "supportsInterface",
      "outputs": [
        {
          "internalType": "bool",
          "name": "",
          "type": "bool"
        }
      ],
      "stateMutability": "view",
      "type": "function",
      "constant": true
    },
    {
      "inputs": [
        {
          "internalType": "string",
          "name": "tokenSymbol",
          "type": "string"
        },
        {
          "internalType": "uint256",
          "name": "amount",
          "type": "uint256"
        }
      ],
      "name": "depositERC20Token",
      "outputs": [],
      "stateMutability": "nonpayable",
      "type": "function"
    },
    {
      "inputs": [
        {
          "internalType": "string",
          "name": "tokenSymbol",
          "type": "string"
        },
        {
          "internalType": "address",
          "name": "to",
          "type": "address"
        },
        {
          "internalType": "uint256",
          "name": "amount",
          "type": "uint256"
        }
      ],
      "name": "withdrawERC20Token",
      "outputs": [],
      "stateMutability": "nonpayable",
      "type": "function"
    },
    {
      "inputs": [
        {
          "internalType": "string",
          "name": "tokenSymbol",
          "type": "string"
        },
        {
          "internalType": "uint256",
          "name": "tokenId",
          "type": "uint256"
        }
      ],
      "name": "depositERC721Token",
      "outputs": [],
      "stateMutability": "nonpayable",
      "type": "function"
    },
    {
      "inputs": [
        {
          "internalType": "string",
          "name": "tokenSymbol",
          "type": "string"
        },
        {
          "internalType": "address",
          "name": "to",
          "type": "address"
        },
        {
          "internalType": "uint256",
          "name": "tokenId",
          "type": "uint256"
        },
        {
          "internalType": "bool",
          "name": "isPodMint",
          "type": "bool"
        },
        {
          "internalType": "bool",
          "name": "isRoyalty",
          "type": "bool"
        }
      ],
      "name": "withdrawERC721Token",
      "outputs": [],
      "stateMutability": "nonpayable",
      "type": "function"
    },
    {
      "inputs": [
        {
          "internalType": "string",
          "name": "tokenURI",
          "type": "string"
        },
        {
          "internalType": "uint256",
          "name": "tokenId",
          "type": "uint256"
        },
        {
          "internalType": "uint256",
          "name": "amount",
          "type": "uint256"
        },
        {
          "internalType": "bytes",
          "name": "data",
          "type": "bytes"
        }
      ],
      "name": "depositERC1155Token",
      "outputs": [],
      "stateMutability": "nonpayable",
      "type": "function"
    },
    {
      "inputs": [
        {
          "internalType": "string",
          "name": "tokenURI",
          "type": "string"
        },
        {
          "internalType": "address",
          "name": "to",
          "type": "address"
        },
        {
          "internalType": "uint256",
          "name": "tokenId",
          "type": "uint256"
        },
        {
          "internalType": "uint256",
          "name": "amount",
          "type": "uint256"
        },
        {
          "internalType": "bytes",
          "name": "data",
          "type": "bytes"
        },
        {
          "internalType": "bool",
          "name": "isPodMint",
          "type": "bool"
        },
        {
          "internalType": "bool",
          "name": "isRoyalty",
          "type": "bool"
        }
      ],
      "name": "withdrawERC1155Token",
      "outputs": [],
      "stateMutability": "nonpayable",
      "type": "function"
    },
    {
      "inputs": [
        {
          "internalType": "string",
          "name": "tokenURI",
          "type": "string"
        },
        {
          "internalType": "address",
          "name": "to",
          "type": "address"
        },
        {
          "internalType": "uint256[]",
          "name": "tokenIds",
          "type": "uint256[]"
        },
        {
          "internalType": "uint256[]",
          "name": "amounts",
          "type": "uint256[]"
        },
        {
          "internalType": "bytes",
          "name": "data",
          "type": "bytes"
        },
        {
          "internalType": "bool",
          "name": "isPodMint",
          "type": "bool"
        }
      ],
      "name": "batchWithdrawERC1155Token",
      "outputs": [],
      "stateMutability": "nonpayable",
      "type": "function"
    },
    {
      "inputs": [],
      "name": "depositEther",
      "outputs": [],
      "stateMutability": "payable",
      "type": "function",
      "payable": true
    },
    {
      "inputs": [
        {
          "internalType": "address",
          "name": "to",
          "type": "address"
        },
        {
          "internalType": "uint256",
          "name": "amount",
          "type": "uint256"
        }
      ],
      "name": "withdrawEther",
      "outputs": [],
      "stateMutability": "nonpayable",
      "type": "function"
    },
    {
      "inputs": [],
      "name": "getBalance",
      "outputs": [
        {
          "internalType": "uint256",
          "name": "",
          "type": "uint256"
        }
      ],
      "stateMutability": "view",
      "type": "function",
      "constant": true
    }
  ],
  "bytecode": "0x6080604052600180546001600160a01b03191690553480156200002157600080fd5b5060405162003690380380620036908339810160408190526200004491620001e0565b6200005a600062000054620000fc565b62000100565b620000897f8502233096d909befbda0999bb8ea2f3a6be3c138b9fbf003752a4c8bce86f6c62000054620000fc565b600280546001600160a01b03199081166001600160a01b039889161790915560038054821696881696909617909555600480548616948716949094179093556005805485169286169290921790915560068054841691851691909117905560078054909216921691909117905562000260565b3390565b6200010c828262000110565b5050565b6200011c82826200019a565b6200010c576000828152602081815260408083206001600160a01b03851684529091529020805460ff1916600117905562000156620000fc565b6001600160a01b0316816001600160a01b0316837f2f8788117e7eff1d82e926ec794901d17c78024a50270940304540a733656f0d60405160405180910390a45050565b6000918252602082815260408084206001600160a01b0393909316845291905290205460ff1690565b80516001600160a01b0381168114620001db57600080fd5b919050565b60008060008060008060c08789031215620001f9578182fd5b6200020487620001c3565b95506200021460208801620001c3565b94506200022460408801620001c3565b93506200023460608801620001c3565b92506200024460808801620001c3565b91506200025460a08801620001c3565b90509295509295509295565b61342080620002706000396000f3fe6080604052600436106101a15760003560e01c80637f748ec5116100e1578063bc197c811161008a578063d1af27c411610064578063d1af27c414610435578063d547741f14610455578063e792b19414610475578063f23a6e611461048a576101a1565b8063bc197c81146103d3578063c1c2658d14610400578063c768b17c14610420576101a1565b806398ea5fca116100bb57806398ea5fca146103965780639ad5ee931461039e578063a217fddf146103be576101a1565b80637f748ec5146103415780638627b03c1461036157806391d1485414610376576101a1565b80632dc067091161014e57806336568abe1161012857806336568abe146102c1578063412991cb146102e1578063522f6815146103015780637de2c62614610321576101a1565b80632dc06709146102775780632f1d46711461028c5780632f2ff15d146102a1576101a1565b806312065fe01161017f57806312065fe014610220578063206b60f914610242578063248a9ca314610257576101a1565b806301ffc9a7146101a6578063032b8b87146101dc5780630ec4dd5b146101fe575b600080fd5b3480156101b257600080fd5b506101c66101c136600461250f565b6104aa565b6040516101d39190612a88565b60405180910390f35b3480156101e857600080fd5b506101f16104bd565b6040516101d3919061291d565b34801561020a57600080fd5b5061021e610219366004612664565b6104cc565b005b34801561022c57600080fd5b50610235610a05565b6040516101d39190612a93565b34801561024e57600080fd5b50610235610a0a565b34801561026357600080fd5b506102356102723660046124c8565b610a2e565b34801561028357600080fd5b506101f1610a43565b34801561029857600080fd5b506101f1610a52565b3480156102ad57600080fd5b5061021e6102bc3660046124e0565b610a61565b3480156102cd57600080fd5b5061021e6102dc3660046124e0565b610a9f565b3480156102ed57600080fd5b5061021e6102fc36600461279c565b610ae1565b34801561030d57600080fd5b5061021e61031c366004612481565b610d05565b34801561032d57600080fd5b5061021e61033c36600461279c565b610f0f565b34801561034d57600080fd5b5061021e61035c366004612537565b611136565b34801561036d57600080fd5b506101f161144f565b34801561038257600080fd5b506101c66103913660046124e0565b61145e565b61021e611487565b3480156103aa57600080fd5b5061021e6103b93660046126e7565b6114f1565b3480156103ca57600080fd5b50610235611a25565b3480156103df57600080fd5b506103f36103ee366004612370565b611a2a565b6040516101d39190612a9c565b34801561040c57600080fd5b5061021e61041b3660046127e6565b611a3b565b34801561042c57600080fd5b506101f1611c62565b34801561044157600080fd5b5061021e610450366004612609565b611c71565b34801561046157600080fd5b5061021e6104703660046124e0565b612055565b34801561048157600080fd5b506101f161207d565b34801561049657600080fd5b506103f36104a536600461241a565b61208c565b60006104b58261209d565b90505b919050565b6006546001600160a01b031681565b60025460405163122acfb560e31b81526001600160a01b039091169060009082906391567da890610503908b908b90600401612ab1565b60206040518083038186803b15801561051b57600080fd5b505afa15801561052f573d6000803e3d6000fd5b505050506040513d601f19601f82011682018060405250810190610553919061234d565b90506105817f8502233096d909befbda0999bb8ea2f3a6be3c138b9fbf003752a4c8bce86f6c6103916120c2565b6105a65760405162461bcd60e51b815260040161059d9061326d565b60405180910390fd5b6001841515141561089e576001831515141561072e57600154600654604051630cc9693960e21b81526001600160a01b039283169290911690633325a4e4906105f5908c908c90600401612ab1565b60206040518083038186803b15801561060d57600080fd5b505afa158015610621573d6000803e3d6000fd5b505050506040513d601f19601f82011682018060405250810190610645919061234d565b6001600160a01b0316146107115760065460405163cc6365fd60e01b81526001600160a01b039091169063cc6365fd90610689908b908b908a908c90600401612ba8565b600060405180830381600087803b1580156106a357600080fd5b505af11580156106b7573d6000803e3d6000fd5b5050505087876040516106cb92919061290d565b60405180910390207fd28833d48ffa5c3f0ea93c47adcb7e8015c714a9c0ddf007d4e523851b98367e8787604051610704929190612a4e565b60405180910390a2610729565b60405162461bcd60e51b815260040161059d90612f9b565b610899565b60015460048054604051630cc9693960e21b81526001600160a01b039384169390911691633325a4e491610766918d918d9101612ab1565b60206040518083038186803b15801561077e57600080fd5b505afa158015610792573d6000803e3d6000fd5b505050506040513d601f19601f820116820180604052508101906107b6919061234d565b6001600160a01b031614610881576004805460405163cc6365fd60e01b81526001600160a01b039091169163cc6365fd916107f9918c918c918b918d9101612ba8565b600060405180830381600087803b15801561081357600080fd5b505af1158015610827573d6000803e3d6000fd5b50505050878760405161083b92919061290d565b60405180910390207fd28833d48ffa5c3f0ea93c47adcb7e8015c714a9c0ddf007d4e523851b98367e8787604051610874929190612a4e565b60405180910390a2610899565b60405162461bcd60e51b815260040161059d90612cb4565b6109fb565b6040516331a9108f60e11b815230906001600160a01b03831690636352211e906108cc908990600401612a93565b60206040518083038186803b1580156108e457600080fd5b505afa1580156108f8573d6000803e3d6000fd5b505050506040513d601f19601f8201168201806040525081019061091c919061234d565b6001600160a01b031614156109e3576040516323b872dd60e01b81526001600160a01b038216906323b872dd9061095b9030908a908a906004016129a9565b600060405180830381600087803b15801561097557600080fd5b505af1158015610989573d6000803e3d6000fd5b50505050878760405161099d92919061290d565b60405180910390207fd28833d48ffa5c3f0ea93c47adcb7e8015c714a9c0ddf007d4e523851b98367e87876040516109d6929190612a4e565b60405180910390a26109fb565b60405162461bcd60e51b815260040161059d90612c57565b5050505050505050565b303190565b7f8502233096d909befbda0999bb8ea2f3a6be3c138b9fbf003752a4c8bce86f6c81565b60009081526020819052604090206001015490565b6004546001600160a01b031681565b6005546001600160a01b031681565b610a75610a6d83610a2e565b6103916120c2565b610a915760405162461bcd60e51b815260040161059d90612bdc565b610a9b82826120c6565b5050565b610aa76120c2565b6001600160a01b0316816001600160a01b031614610ad75760405162461bcd60e51b815260040161059d90613327565b610a9b828261214b565b60025460405163122acfb560e31b81526001600160a01b039091169060009082906391567da890610b189088908890600401612ab1565b60206040518083038186803b158015610b3057600080fd5b505afa158015610b44573d6000803e3d6000fd5b505050506040513d601f19601f82011682018060405250810190610b68919061234d565b6001549091506001600160a01b0380831691161415610b995760405162461bcd60e51b815260040161059d90612d6e565b60405163020604bf60e21b815230906001600160a01b0383169063081812fc90610bc7908790600401612a93565b60206040518083038186803b158015610bdf57600080fd5b505afa158015610bf3573d6000803e3d6000fd5b505050506040513d601f19601f82011682018060405250810190610c17919061234d565b6001600160a01b031614610c3d5760405162461bcd60e51b815260040161059d90612f2c565b806001600160a01b03166323b872dd610c546120c2565b30866040518463ffffffff1660e01b8152600401610c74939291906129a9565b600060405180830381600087803b158015610c8e57600080fd5b505af1158015610ca2573d6000803e3d6000fd5b505050508484604051610cb692919061290d565b60405180910390207ff0218d2f738513bea289b1b8ca83d8241a1060f13280602f9b7ff8e3598d4c83610ce76120c2565b85604051610cf6929190612a4e565b60405180910390a25050505050565b610d317f8502233096d909befbda0999bb8ea2f3a6be3c138b9fbf003752a4c8bce86f6c6103916120c2565b610d4d5760405162461bcd60e51b815260040161059d90612ecf565b3031811115610d6e5760405162461bcd60e51b815260040161059d90612e72565b81478211610db2576040516001600160a01b0382169083156108fc029084906000818181858888f19350505050158015610dac573d6000803e3d6000fd5b50610ec9565b6002546040516308521f5d60e11b81526001600160a01b039091169060009082906310a43eba90610de590600401612c39565b60206040518083038186803b158015610dfd57600080fd5b505afa158015610e11573d6000803e3d6000fd5b505050506040513d601f19601f82011682018060405250810190610e35919061234d565b6001549091506001600160a01b0380831691161415610e665760405162461bcd60e51b815260040161059d90612d11565b60405163d0dbc83360e01b81526001600160a01b0382169063d0dbc83390610e949088908890600401612a4e565b600060405180830381600087803b158015610eae57600080fd5b505af1158015610ec2573d6000803e3d6000fd5b5050505050505b826001600160a01b03167fdb35132c111efe920cede025e819975671cfd1b8fcc1174762c8670c4e94c21183604051610f029190612a93565b60405180910390a2505050565b6002546040516308521f5d60e11b81526001600160a01b039091169060009082906310a43eba90610f469088908890600401612ab1565b60206040518083038186803b158015610f5e57600080fd5b505afa158015610f72573d6000803e3d6000fd5b505050506040513d601f19601f82011682018060405250810190610f96919061234d565b6001549091506001600160a01b0380831691161415610fc75760405162461bcd60e51b815260040161059d90612d6e565b82816001600160a01b031663dd62ed3e610fdf6120c2565b306040518363ffffffff1660e01b8152600401610ffd929190612931565b60206040518083038186803b15801561101557600080fd5b505afa158015611029573d6000803e3d6000fd5b505050506040513d601f19601f8201168201806040525081019061104d9190612846565b101561106b5760405162461bcd60e51b815260040161059d90613089565b806001600160a01b03166323b872dd6110826120c2565b30866040518463ffffffff1660e01b81526004016110a2939291906129a9565b602060405180830381600087803b1580156110bc57600080fd5b505af11580156110d0573d6000803e3d6000fd5b505050506040513d601f19601f820116820180604052508101906110f491906124ac565b50848460405161110592919061290d565b60405180910390207f91ed334b741c7cbbae982dad9ca693e9d47b9a50db6fd5f346755f5bca14dfdd610ce76120c2565b6002546040516309ba36bf60e31b81526001600160a01b03909116906000908290634dd1b5f89061116d908c908c90600401612ab1565b60206040518083038186803b15801561118557600080fd5b505afa158015611199573d6000803e3d6000fd5b505050506040513d601f19601f820116820180604052508101906111bd919061234d565b90506111eb7f8502233096d909befbda0999bb8ea2f3a6be3c138b9fbf003752a4c8bce86f6c6103916120c2565b6112075760405162461bcd60e51b815260040161059d9061326d565b6001831515141561138a57600154600554604051637d2c9af760e11b81526001600160a01b03928316929091169063fa5935ee9061124b908d908d90600401612ab1565b60206040518083038186803b15801561126357600080fd5b505afa158015611277573d6000803e3d6000fd5b505050506040513d601f19601f8201168201806040525081019061129b919061234d565b6001600160a01b03161461136d576005546040516306f1454360e51b81526001600160a01b039091169063de28a860906112e3908c908c908c908c908c908c90600401612acd565b600060405180830381600087803b1580156112fd57600080fd5b505af1158015611311573d6000803e3d6000fd5b50505050888860405161132592919061290d565b60405180910390207f03606c85c375332da8a71abb0ad8be85cbac18693d349dd5169e69ced38f448388888860405161136093929190612a10565b60405180910390a2611385565b60405162461bcd60e51b815260040161059d90613042565b611444565b604051631759616b60e11b81526001600160a01b03821690632eb2c2d6906113be9030908b908b908b908b9060040161294b565b600060405180830381600087803b1580156113d857600080fd5b505af11580156113ec573d6000803e3d6000fd5b50505050888860405161140092919061290d565b60405180910390207f03606c85c375332da8a71abb0ad8be85cbac18693d349dd5169e69ced38f448388888860405161143b93929190612a10565b60405180910390a25b505050505050505050565b6007546001600160a01b031681565b6000918252602082815260408084206001600160a01b0393909316845291905290205460ff1690565b600034116114a75760405162461bcd60e51b815260040161059d9061310c565b6114af6120c2565b6001600160a01b03167fe628a607143b255f52afd0900e0d9630dd009c2f2635cd1e28c7aeeeff940802346040516114e79190612a93565b60405180910390a2565b6002546040516309ba36bf60e31b81526001600160a01b03909116906000908290634dd1b5f890611528908d908d90600401612ab1565b60206040518083038186803b15801561154057600080fd5b505afa158015611554573d6000803e3d6000fd5b505050506040513d601f19601f82011682018060405250810190611578919061234d565b90506115a67f8502233096d909befbda0999bb8ea2f3a6be3c138b9fbf003752a4c8bce86f6c6103916120c2565b6115c25760405162461bcd60e51b815260040161059d9061326d565b600184151514156118c357821561174b57600154600754604051637d2c9af760e11b81526001600160a01b03928316929091169063fa5935ee9061160c908e908e90600401612ab1565b60206040518083038186803b15801561162457600080fd5b505afa158015611638573d6000803e3d6000fd5b505050506040513d601f19601f8201168201806040525081019061165c919061234d565b6001600160a01b03161461172e576007546040516316e7f52160e11b81526001600160a01b0390911690632dcfea42906116a4908d908d908d908d908d908d90600401612b67565b600060405180830381600087803b1580156116be57600080fd5b505af11580156116d2573d6000803e3d6000fd5b5050505089896040516116e692919061290d565b60405180910390207fab8a6099aa0324935264b44e69aafeb656755f4dd4113be720a27f4e45128f9a89898960405161172193929190612a67565b60405180910390a2611746565b60405162461bcd60e51b815260040161059d906132ca565b6118be565b600154600554604051637d2c9af760e11b81526001600160a01b03928316929091169063fa5935ee90611784908e908e90600401612ab1565b60206040518083038186803b15801561179c57600080fd5b505afa1580156117b0573d6000803e3d6000fd5b505050506040513d601f19601f820116820180604052508101906117d4919061234d565b6001600160a01b0316146118a6576005546040516316e7f52160e11b81526001600160a01b0390911690632dcfea429061181c908d908d908d908d908d908d90600401612b67565b600060405180830381600087803b15801561183657600080fd5b505af115801561184a573d6000803e3d6000fd5b50505050898960405161185e92919061290d565b60405180910390207fab8a6099aa0324935264b44e69aafeb656755f4dd4113be720a27f4e45128f9a89898960405161189993929190612a67565b60405180910390a26118be565b60405162461bcd60e51b815260040161059d90613210565b611a19565b604051627eeac760e11b815286906001600160a01b0383169062fdd58e906118f19030908c90600401612a4e565b60206040518083038186803b15801561190957600080fd5b505afa15801561191d573d6000803e3d6000fd5b505050506040513d601f19601f820116820180604052508101906119419190612846565b101561195f5760405162461bcd60e51b815260040161059d906131b3565b604051637921219560e11b81526001600160a01b0382169063f242432a906119939030908c908c908c908c906004016129cd565b600060405180830381600087803b1580156119ad57600080fd5b505af11580156119c1573d6000803e3d6000fd5b5050505089896040516119d592919061290d565b60405180910390207fab8a6099aa0324935264b44e69aafeb656755f4dd4113be720a27f4e45128f9a898989604051611a1093929190612a67565b60405180910390a25b50505050505050505050565b600081565b63bc197c8160e01b95945050505050565b6002546040516309ba36bf60e31b81526001600160a01b03909116906000908290634dd1b5f890611a72908a908a90600401612ab1565b60206040518083038186803b158015611a8a57600080fd5b505afa158015611a9e573d6000803e3d6000fd5b505050506040513d601f19601f82011682018060405250810190611ac2919061234d565b6001549091506001600160a01b0380831691161415611af35760405162461bcd60e51b815260040161059d90612fe5565b60405163e985e9c560e01b81526001600160a01b0382169063e985e9c590611b219033903090600401612931565b60206040518083038186803b158015611b3957600080fd5b505afa158015611b4d573d6000803e3d6000fd5b505050506040513d601f19601f82011682018060405250810190611b7191906124ac565b1515600114611b925760405162461bcd60e51b815260040161059d90612dcb565b806001600160a01b031663f242432a611ba96120c2565b308888886040518663ffffffff1660e01b8152600401611bcd9594939291906129cd565b600060405180830381600087803b158015611be757600080fd5b505af1158015611bfb573d6000803e3d6000fd5b505050508686604051611c0f92919061290d565b60405180910390207f30e725d42f865939c1f9052f420a2039b3b3ea182d64853dc9e3f12fa1cf5061611c406120c2565b8787604051611c5193929190612a67565b60405180910390a250505050505050565b6003546001600160a01b031681565b60008111611c915760405162461bcd60e51b815260040161059d90613169565b6002546040516308521f5d60e11b81526001600160a01b039091169060009082906310a43eba90611cc89089908990600401612ab1565b60206040518083038186803b158015611ce057600080fd5b505afa158015611cf4573d6000803e3d6000fd5b505050506040513d601f19601f82011682018060405250810190611d18919061234d565b9050611d467f8502233096d909befbda0999bb8ea2f3a6be3c138b9fbf003752a4c8bce86f6c6103916120c2565b611d625760405162461bcd60e51b815260040161059d9061326d565b6040516370a0823160e01b81526001600160a01b038216906370a0823190611d8e90309060040161291d565b60206040518083038186803b158015611da657600080fd5b505afa158015611dba573d6000803e3d6000fd5b505050506040513d601f19601f82011682018060405250810190611dde9190612846565b8311611f3e5760405163095ea7b360e01b81526001600160a01b0382169063095ea7b390611e129030908790600401612a4e565b602060405180830381600087803b158015611e2c57600080fd5b505af1158015611e40573d6000803e3d6000fd5b505050506040513d601f19601f82011682018060405250810190611e6491906124ac565b506040516323b872dd60e01b81526001600160a01b038216906323b872dd90611e95903090889088906004016129a9565b602060405180830381600087803b158015611eaf57600080fd5b505af1158015611ec3573d6000803e3d6000fd5b505050506040513d601f19601f82011682018060405250810190611ee791906124ac565b508585604051611ef892919061290d565b60405180910390207f226bfaa503fda889c5dbfb29ffa193ceac9a4b461e47f68b3b14c438ec7f8b678585604051611f31929190612a4e565b60405180910390a261204d565b600154600354604051630cc9693960e21b81526001600160a01b039283169290911690633325a4e490611f77908a908a90600401612ab1565b60206040518083038186803b158015611f8f57600080fd5b505afa158015611fa3573d6000803e3d6000fd5b505050506040513d601f19601f82011682018060405250810190611fc7919061234d565b6001600160a01b03161461136d576003546040516358bb6a5d60e11b81526001600160a01b039091169063b176d4ba9061200b908990899089908990600401612b37565b600060405180830381600087803b15801561202557600080fd5b505af1158015612039573d6000803e3d6000fd5b505050508585604051611ef892919061290d565b505050505050565b612061610a6d83610a2e565b610ad75760405162461bcd60e51b815260040161059d90612e15565b6002546001600160a01b031681565b63f23a6e6160e01b95945050505050565b60006001600160e01b03198216630271189760e51b14806104b557506104b5826121ce565b3390565b6120d0828261145e565b610a9b576000828152602081815260408083206001600160a01b03851684529091529020805460ff191660011790556121076120c2565b6001600160a01b0316816001600160a01b0316837f2f8788117e7eff1d82e926ec794901d17c78024a50270940304540a733656f0d60405160405180910390a45050565b612155828261145e565b15610a9b576000828152602081815260408083206001600160a01b03851684529091529020805460ff1916905561218a6120c2565b6001600160a01b0316816001600160a01b0316837ff6391f5c32d9c69d2a47ea670b442974b53935d1edc7fd64eb21e047a839171b60405160405180910390a45050565b60006001600160e01b03198216637965db0b60e01b14806104b557506301ffc9a760e01b6001600160e01b03198316146104b5565b80356104b8816133c4565b600082601f83011261221e578081fd5b8135602067ffffffffffffffff82111561223a5761223a6133ae565b808202612248828201613384565b838152828101908684018388018501891015612262578687fd5b8693505b85841015612284578035835260019390930192918401918401612266565b50979650505050505050565b80356104b8816133dc565b600082601f8301126122ab578081fd5b813567ffffffffffffffff8111156122c5576122c56133ae565b6122d8601f8201601f1916602001613384565b8181528460208386010111156122ec578283fd5b816020850160208301379081016020019190915292915050565b60008083601f840112612317578182fd5b50813567ffffffffffffffff81111561232e578182fd5b60208301915083602082850101111561234657600080fd5b9250929050565b60006020828403121561235e578081fd5b8151612369816133c4565b9392505050565b600080600080600060a08688031215612387578081fd5b8535612392816133c4565b945060208601356123a2816133c4565b9350604086013567ffffffffffffffff808211156123be578283fd5b6123ca89838a0161220e565b945060608801359150808211156123df578283fd5b6123eb89838a0161220e565b93506080880135915080821115612400578283fd5b5061240d8882890161229b565b9150509295509295909350565b600080600080600060a08688031215612431578081fd5b853561243c816133c4565b9450602086013561244c816133c4565b93506040860135925060608601359150608086013567ffffffffffffffff811115612475578182fd5b61240d8882890161229b565b60008060408385031215612493578182fd5b823561249e816133c4565b946020939093013593505050565b6000602082840312156124bd578081fd5b8151612369816133dc565b6000602082840312156124d9578081fd5b5035919050565b600080604083850312156124f2578182fd5b823591506020830135612504816133c4565b809150509250929050565b600060208284031215612520578081fd5b81356001600160e01b031981168114612369578182fd5b600080600080600080600060c0888a031215612551578182fd5b873567ffffffffffffffff80821115612568578384fd5b6125748b838c01612306565b909950975087915061258860208b01612203565b965060408a013591508082111561259d578384fd5b6125a98b838c0161220e565b955060608a01359150808211156125be578384fd5b6125ca8b838c0161220e565b945060808a01359150808211156125df578384fd5b506125ec8a828b0161229b565b9250506125fb60a08901612290565b905092959891949750929550565b6000806000806060858703121561261e578182fd5b843567ffffffffffffffff811115612634578283fd5b61264087828801612306565b9095509350506020850135612654816133c4565b9396929550929360400135925050565b60008060008060008060a0878903121561267c578384fd5b863567ffffffffffffffff811115612692578485fd5b61269e89828a01612306565b90975095505060208701356126b2816133c4565b93506040870135925060608701356126c9816133dc565b915060808701356126d9816133dc565b809150509295509295509295565b60008060008060008060008060e0898b031215612702578182fd5b883567ffffffffffffffff80821115612719578384fd5b6127258c838d01612306565b909a50985060208b0135915061273a826133c4565b90965060408a0135955060608a0135945060808a0135908082111561275d578384fd5b5061276a8b828c0161229b565b93505060a089013561277b816133dc565b915060c089013561278b816133dc565b809150509295985092959890939650565b6000806000604084860312156127b0578081fd5b833567ffffffffffffffff8111156127c6578182fd5b6127d286828701612306565b909790965060209590950135949350505050565b6000806000806000608086880312156127fd578283fd5b853567ffffffffffffffff80821115612814578485fd5b61282089838a01612306565b909750955060208801359450604088013593506060880135915080821115612400578283fd5b600060208284031215612857578081fd5b5051919050565b6000815180845260208085019450808401835b8381101561288d57815187529582019590820190600101612871565b509495945050505050565b60008151808452815b818110156128bd576020818501810151868301820152016128a1565b818111156128ce5782602083870101525b50601f01601f19169290920160200192915050565b60008284528282602086013780602084860101526020601f19601f85011685010190509392505050565b6000828483379101908152919050565b6001600160a01b0391909116815260200190565b6001600160a01b0392831681529116602082015260400190565b60006001600160a01b03808816835280871660208401525060a0604083015261297760a083018661285e565b8281036060840152612989818661285e565b9050828103608084015261299d8185612898565b98975050505050505050565b6001600160a01b039384168152919092166020820152604081019190915260600190565b60006001600160a01b03808816835280871660208401525084604083015283606083015260a06080830152612a0560a0830184612898565b979650505050505050565b60006001600160a01b038516825260606020830152612a32606083018561285e565b8281036040840152612a44818561285e565b9695505050505050565b6001600160a01b03929092168252602082015260400190565b6001600160a01b039390931683526020830191909152604082015260600190565b901515815260200190565b90815260200190565b6001600160e01b031991909116815260200190565b600060208252612ac56020830184866128e3565b949350505050565b600060a08252612ae160a08301888a6128e3565b6001600160a01b03871660208401528281036040840152612b02818761285e565b90508281036060840152612b16818661285e565b90508281036080840152612b2a8185612898565b9998505050505050505050565b600060608252612b4b6060830186886128e3565b6001600160a01b03949094166020830152506040015292915050565b600060a08252612b7b60a08301888a6128e3565b6001600160a01b03871660208401528560408401528460608401528281036080840152612b2a8185612898565b600060608252612bbc6060830186886128e3565b90508360208301526001600160a01b038316604083015295945050505050565b6020808252602f908201527f416363657373436f6e74726f6c3a2073656e646572206d75737420626520616e60408201527f2061646d696e20746f206772616e740000000000000000000000000000000000606082015260800190565b6020808252600490820152630ae8aa8960e31b604082015260600190565b6020808252602f908201527f537761704d616e616765723a2063616e6e6f74207769746864726177206e6f6e60408201527f207374616e6461726420746f6b656e0000000000000000000000000000000000606082015260800190565b6020808252602e908201527f537761704d616e616765723a2063616e6e6f74207769746864726177206e6f6e60408201527f20726f79616c747920746f6b656e000000000000000000000000000000000000606082015260800190565b60208082526035908201527f537761704d616e616765723a2057455448206973206e6f74207265676973746560408201527f72656420696e746f2074686520706c6174666f726d0000000000000000000000606082015260800190565b60208082526036908201527f537761704d616e616765723a20746f6b656e206973206e6f742072656769737460408201527f6572656420696e746f2074686520706c6174666f726d00000000000000000000606082015260800190565b6020808252602a908201527f537761704d616e616765723a207573657220646964206e6f74206772616e7420604082015269185c1c9bdd99481e595d60b21b606082015260800190565b60208082526030908201527f416363657373436f6e74726f6c3a2073656e646572206d75737420626520616e60408201527f2061646d696e20746f207265766f6b6500000000000000000000000000000000606082015260800190565b60208082526039908201527f537761704d616e616765723a206e6f7420656e6f75676820636f6e747261637460408201527f2062616c616e636520666f7220746865207472616e7366657200000000000000606082015260800190565b60208082526033908201527f537761704d616e616765723a206d7573742068617665205452414e534645525f60408201527f524f4c4520746f207472616e6665722045746800000000000000000000000000606082015260800190565b60208082526049908201527f537761704d616e616765723a20746f6b656e20746f206265207472616e73666560408201527f7272656420746f205052495649206973206e6f742079657420617070726f76656060820152683210313c902ab9b2b960b91b608082015260a00190565b6020808252602a908201527f537761704d616e616765723a2063616e6e6f7420776974686472617720726f7960408201526930b63a3c903a37b5b2b760b11b606082015260800190565b60208082526035908201527f537761704d616e616765723a20746f6b656e206973206e6f742072656769737460408201527f65726564206f6e204272696467654d616e616765720000000000000000000000606082015260800190565b60208082526027908201527f537761704d616e616765723a2063616e6e6f7420776974686472617720616e7960408201526608185b5bdd5b9d60ca1b606082015260800190565b60208082526050908201527f537761704d616e616765723a20746f6b656e20616d6f756e7420746f2062652060408201527f7472616e7366657272656420746f205052495649206973206e6f74207965742060608201527f617070726f766564206279205573657200000000000000000000000000000000608082015260a00190565b60208082526031908201527f537761704d616e616765723a20616d6f756e74206d757374206265206772656160408201527f746572207468616e203020657468657273000000000000000000000000000000606082015260800190565b6020808252602a908201527f537761704d616e616765723a20616d6f756e74206d75737420626520677265616040820152690746572207468616e20360b41b606082015260800190565b60208082526034908201527f537761704d616e616765723a20696e73756666696369656e742066756e64732060408201527f696e20505249564920537761704d616e61676572000000000000000000000000606082015260800190565b60208082526035908201527f537761704d616e616765723a2063616e6e6f7420776974686472617720616e7960408201527f20616d6f756e7420286e6f6e20726f79616c7479290000000000000000000000606082015260800190565b60208082526036908201527f537761704d616e616765723a206d7573742068617665205452414e534645525f60408201527f524f4c4520746f20776974686472617720746f6b656e00000000000000000000606082015260800190565b60208082526031908201527f537761704d616e616765723a2063616e6e6f7420776974686472617720616e7960408201527f20616d6f756e742028726f79616c747929000000000000000000000000000000606082015260800190565b6020808252602f908201527f416363657373436f6e74726f6c3a2063616e206f6e6c792072656e6f756e636560408201527f20726f6c657320666f722073656c660000000000000000000000000000000000606082015260800190565b60405181810167ffffffffffffffff811182821017156133a6576133a66133ae565b604052919050565b634e487b7160e01b600052604160045260246000fd5b6001600160a01b03811681146133d957600080fd5b50565b80151581146133d957600080fdfea26469706673582212200c0ddc1e8e841b64eed7fa25b2af23bc64b1922688b5ed109b021e67c6e33f5364736f6c63430008000033",
  "immutableReferences": {},
  "source": "// SPDX-License-Identifier: MIT\npragma solidity ^0.8.0;\n\nimport \"@openzeppelin/contracts/access/AccessControl.sol\";\nimport \"@openzeppelin/contracts/token/ERC20/IERC20.sol\";\nimport \"@openzeppelin/contracts/token/ERC721/IERC721.sol\";\nimport \"@openzeppelin/contracts/token/ERC1155/IERC1155.sol\";\nimport \"@openzeppelin/contracts/token/ERC1155/utils/ERC1155Holder.sol\";\nimport \"./token/interfaces/FakeInterface.sol\";\nimport \"./interfaces/IBridgeManager.sol\";\nimport \"./interfaces/IPRIVIPodERC20Factory.sol\";\nimport \"./interfaces/IPRIVIPodERC721Factory.sol\";\nimport \"./interfaces/IPRIVIPodERC1155Factory.sol\";\nimport \"./interfaces/IPRIVIPodERC721RoyaltyFactory.sol\";\nimport \"./interfaces/IPRIVIPodERC1155RoyaltyFactory.sol\";\n\n/**\n * @title   SwapManager contract\n * @dev     Manages swaps and withdraws of Ether, ERC20 tokens, ERC721 tokens\n * and ERC1155 tokens between Ethereum and PRIVI blockchains\n * @author  PRIVI\n **/\ncontract SwapManager is AccessControl, ERC1155Holder {\n  bytes32 public constant TRANSFER_ROLE = keccak256(\"TRANSFER_ROLE\");\n  address private ZERO_ADDRESS = 0x0000000000000000000000000000000000000000;\n  address public bridgeManagerAddress;\n  address public erc20FactoryAddress;\n  address public erc721FactoryAddress;\n  address public erc1155FactoryAddress;\n  address public erc721RoyaltyFactoryAddress;\n  address public erc1155RoyaltyFactoryAddress;\n\n  event DepositERC20Token(\n    string indexed tokenSymbol,\n    address from,\n    uint256 amount\n  );\n  event WithdrawERC20Token(\n    string indexed tokenSymbol,\n    address to,\n    uint256 amount\n  );\n  event DepositERC721Token(\n    string indexed tokenSymbol,\n    address from,\n    uint256 tokenId\n  );\n  event WithdrawERC721Token(\n    string indexed tokenSymbol,\n    address to,\n    uint256 tokenId\n  );\n  event DepositERC1155Token(\n    string indexed tokenURI,\n    address from,\n    uint256 tokenId,\n    uint256 amount\n  );\n  event WithdrawERC1155Token(\n    string indexed tokenURI,\n    address to,\n    uint256 tokenId,\n    uint256 amount\n  );\n  event BatchWithdrawERC1155Token(\n    string indexed tokenURI,\n    address to,\n    uint256[] tokenIds,\n    uint256[] amounts\n  );\n  event DepositEther(address indexed from, uint256 amount);\n  event WithdrawEther(address indexed to, uint256 amount);\n\n  /**\n   * @notice Constructor to assign all roles to contract creator\n   */\n  constructor(\n    address bridgeDeployedAddress,\n    address erc20FactoryDeployedAddress,\n    address erc721FactoryDeployedAddress,\n    address erc1155FactoryDeployedAddress,\n    address erc721FactoryRoyaltyDeployedAddress,\n    address erc1155FactoryRoyaltyDeployedAddress\n  ) {\n    _setupRole(DEFAULT_ADMIN_ROLE, _msgSender());\n    // _setupRole(REGISTER_ROLE, _msgSender());\n    _setupRole(TRANSFER_ROLE, _msgSender());\n    bridgeManagerAddress = bridgeDeployedAddress;\n    erc20FactoryAddress = erc20FactoryDeployedAddress;\n    erc721FactoryAddress = erc721FactoryDeployedAddress;\n    erc1155FactoryAddress = erc1155FactoryDeployedAddress;\n    erc721RoyaltyFactoryAddress = erc721FactoryRoyaltyDeployedAddress;\n    erc1155RoyaltyFactoryAddress = erc1155FactoryRoyaltyDeployedAddress;\n  }\n\n  // To be able to receive ERC1155 tokens (required if inheriting from AccessControl, ERC1155Holder)\n  function supportsInterface(bytes4 interfaceId)\n    public\n    view\n    virtual\n    override(ERC1155Receiver, AccessControl)\n    returns (bool)\n  {\n    return super.supportsInterface(interfaceId);\n  }\n\n  /**\n   * @notice  Transfer ERC20 token from sender address (User) to contract address (PRIVI)\n   * @dev     - Token to be transferred must be already registered\n   *          - User has to approve first the amount to be transferred WITHIN the original ERC20 token contract,\n   *          and not from this contract. Otherwise, transaction will always fail\n   * @param   tokenSymbol Name of the token to be transferred\n   * @param   amount Amount of tokens to be transferred\n   */\n  function depositERC20Token(string calldata tokenSymbol, uint256 amount)\n    external\n  {\n    IBridgeManager bManager = IBridgeManager(bridgeManagerAddress);\n    address tokenAddress = bManager.getErc20AddressRegistered(tokenSymbol);\n    require(\n      tokenAddress != ZERO_ADDRESS,\n      \"SwapManager: token is not registered into the platform\"\n    );\n    require(\n      IERC20(tokenAddress).allowance(_msgSender(), address(this)) >= amount,\n      \"SwapManager: token amount to be transferred to PRIVI is not yet approved by User\"\n    );\n    IERC20(tokenAddress).transferFrom(_msgSender(), address(this), amount);\n    emit DepositERC20Token(tokenSymbol, _msgSender(), amount);\n  }\n\n  /**\n   * @notice  Transfer ERC20 token from contract address (PRIVI) to sender address (User)\n   * @dev     - User must have TRANSFER_ROLE\n   *          - PRIVI must have enough tokens to transfer them back to User\n   * @param   tokenSymbol Name of the token to be transferred\n   * @param   to Destination address to receive the tokens\n   * @param   amount Amount of tokens to be transferred\n   */\n  function withdrawERC20Token(\n    string calldata tokenSymbol,\n    address to,\n    uint256 amount\n  ) external {\n    require(amount > 0, \"SwapManager: amount must be greater than 0\");\n    IBridgeManager bManager = IBridgeManager(bridgeManagerAddress);\n    address tokenAddress = bManager.getErc20AddressRegistered(tokenSymbol);\n    require(\n      hasRole(TRANSFER_ROLE, _msgSender()),\n      \"SwapManager: must have TRANSFER_ROLE to withdraw token\"\n    );\n    if (amount <= IERC20(tokenAddress).balanceOf(address(this))) {\n      IERC20(tokenAddress).approve(address(this), amount);\n      IERC20(tokenAddress).transferFrom(address(this), to, amount);\n      emit WithdrawERC20Token(tokenSymbol, to, amount);\n    } else if (\n      IPRIVIPodERC20Factory(erc20FactoryAddress).getPodAddressBySymbol(\n        tokenSymbol\n      ) != ZERO_ADDRESS\n    ) {\n      IPRIVIPodERC20Factory(erc20FactoryAddress).mintPodTokenBySymbol(\n        tokenSymbol,\n        to,\n        amount\n      );\n      emit WithdrawERC20Token(tokenSymbol, to, amount);\n    } else {\n      revert(\"SwapManager: cannot withdraw any amount\");\n      // only for testnet mint fake tokens\n      // FakeInterface(tokenAddress).mintForUser(to, amount);\n      // emit WithdrawERC20Token(tokenSymbol, to, amount);\n    }\n  }\n\n  /**\n   * @notice  Transfer ERC721 token from sender address (User) to contract address (PRIVI)\n   * @dev     - User must have TRANSFER_ROLE\n   *          - Token to be transferred must be already registered\n   *          - User has to approve first the amount to be transferred WITHIN the original ERC721 token contract,\n   *          and not from this contract. Otherwise, transaction will always fail\n   * @param   tokenSymbol Name of the token to be transferred\n   * @param   tokenId Token identifier to be transferred\n   */\n  function depositERC721Token(string calldata tokenSymbol, uint256 tokenId)\n    external\n  {\n    IBridgeManager bManager = IBridgeManager(bridgeManagerAddress);\n    address tokenAddress = bManager.getErc721AddressRegistered(tokenSymbol);\n    require(\n      tokenAddress != ZERO_ADDRESS,\n      \"SwapManager: token is not registered into the platform\"\n    );\n    require(\n      IERC721(tokenAddress).getApproved(tokenId) == address(this),\n      \"SwapManager: token to be transferred to PRIVI is not yet approved by User\"\n    );\n    IERC721(tokenAddress).transferFrom(_msgSender(), address(this), tokenId);\n    emit DepositERC721Token(tokenSymbol, _msgSender(), tokenId);\n  }\n\n  /**\n   * @notice  Transfer ERC721 token from contract address (PRIVI) to sender address (User)\n   * @dev     - User must have TRANSFER_ROLE\n   *          - PRIVI must have enough tokens to transfer them back to User\n   * @param   tokenSymbol Name of the token to be transferred\n   * @param   to Destination address to receive the tokens\n   * @param   tokenId Token identifier to be transferred\n   * @param   isPodMint is it a withdraw from swap manager or is it minting new nft pod token\n   */\n  function withdrawERC721Token(\n    string calldata tokenSymbol,\n    address to,\n    uint256 tokenId,\n    bool isPodMint,\n    bool isRoyalty\n  ) external {\n    IBridgeManager bManager = IBridgeManager(bridgeManagerAddress);\n    address tokenAddress = bManager.getErc721AddressRegistered(tokenSymbol);\n    require(\n      hasRole(TRANSFER_ROLE, _msgSender()),\n      \"SwapManager: must have TRANSFER_ROLE to withdraw token\"\n    );\n    if (isPodMint == true) {\n      if (isRoyalty == true) {\n        if (\n          IPRIVIPodERC721RoyaltyFactory(erc721RoyaltyFactoryAddress)\n            .getPodAddressBySymbol(tokenSymbol) != ZERO_ADDRESS\n        ) {\n          IPRIVIPodERC721RoyaltyFactory(erc721RoyaltyFactoryAddress)\n            .mintPodTokenBySymbol(tokenSymbol, tokenId, to);\n          emit WithdrawERC721Token(tokenSymbol, to, tokenId);\n        } else {\n          revert(\"SwapManager: cannot withdraw royalty token\");\n        }\n      } else {\n        if (\n          IPRIVIPodERC721Factory(erc721FactoryAddress).getPodAddressBySymbol(\n            tokenSymbol\n          ) != ZERO_ADDRESS\n        ) {\n          IPRIVIPodERC721Factory(erc721FactoryAddress).mintPodTokenBySymbol(\n            tokenSymbol,\n            tokenId,\n            to\n          );\n          emit WithdrawERC721Token(tokenSymbol, to, tokenId);\n        } else {\n          revert(\"SwapManager: cannot withdraw non royalty token\");\n        }\n      }\n    } else {\n      if (IERC721(tokenAddress).ownerOf(tokenId) == address(this)) {\n        IERC721(tokenAddress).transferFrom(address(this), to, tokenId);\n        emit WithdrawERC721Token(tokenSymbol, to, tokenId);\n      } else {\n        revert(\"SwapManager: cannot withdraw non standard token\");\n      }\n    }\n  }\n\n  /**\n   * @notice  Transfer ERC1155 token from sender address (User) to contract address (PRIVI)\n   * @dev     - User must have TRANSFER_ROLE\n   *          - Token to be transferred must be already registered\n   *          - User has to approve first the amount to be transferred WITHIN the original ERC1155 token contract,\n   *          and not from this contract. Otherwise, transaction will always fail\n   * @param   tokenURI Name of the token to be transferred\n   * @param   tokenId Token identifier to be transferred\n   */\n  function depositERC1155Token(\n    string calldata tokenURI,\n    uint256 tokenId,\n    uint256 amount,\n    bytes memory data\n  ) external {\n    IBridgeManager bManager = IBridgeManager(bridgeManagerAddress);\n    address tokenAddress = bManager.getErc1155AddressRegistered(tokenURI);\n    require(\n      tokenAddress != ZERO_ADDRESS,\n      \"SwapManager: token is not registered on BridgeManager\"\n    );\n    require(\n      IERC1155(tokenAddress).isApprovedForAll(msg.sender, address(this)) ==\n        true,\n      \"SwapManager: user did not grant aprove yet\"\n    );\n    IERC1155(tokenAddress).safeTransferFrom(\n      _msgSender(),\n      address(this),\n      tokenId,\n      amount,\n      data\n    );\n    emit DepositERC1155Token(tokenURI, _msgSender(), tokenId, amount);\n  }\n\n  /**\n   * @notice  Transfer ERC1155 token from contract address (PRIVI) to address (User)\n   * @dev     - PRIVI must have enough tokens to transfer them to User\n   *          or is has to be isPodMint.\n   * @param   tokenURI Name of the token to be transferred\n   * @param   to Destination address to receive the tokens\n   * @param   tokenId Token identifier to be transferred\n   * @param   amount Token amount to be transfered\n   * @param   data bytes\n   */\n  function withdrawERC1155Token(\n    string calldata tokenURI,\n    address to,\n    uint256 tokenId,\n    uint256 amount,\n    bytes memory data,\n    bool isPodMint,\n    bool isRoyalty\n  ) external {\n    IBridgeManager bManager = IBridgeManager(bridgeManagerAddress);\n    address tokenAddress = bManager.getErc1155AddressRegistered(tokenURI);\n    require(\n      hasRole(TRANSFER_ROLE, _msgSender()),\n      \"SwapManager: must have TRANSFER_ROLE to withdraw token\"\n    );\n    if (isPodMint == true) {\n      if (isRoyalty) {\n        if (\n          IPRIVIPodERC1155RoyaltyFactory(erc1155RoyaltyFactoryAddress)\n            .getPodAddressByUri(tokenURI) != ZERO_ADDRESS\n        ) {\n          IPRIVIPodERC1155RoyaltyFactory(erc1155RoyaltyFactoryAddress).mintPodTokenByUri(\n            tokenURI,\n            to,\n            tokenId,\n            amount,\n            data\n          );\n          emit WithdrawERC1155Token(tokenURI, to, tokenId, amount);\n        } else {\n          revert(\"SwapManager: cannot withdraw any amount (royalty)\");\n        }\n      } else {\n        if (\n          IPRIVIPodERC1155Factory(erc1155FactoryAddress).getPodAddressByUri(\n            tokenURI\n          ) != ZERO_ADDRESS\n        ) {\n          IPRIVIPodERC1155Factory(erc1155FactoryAddress).mintPodTokenByUri(\n            tokenURI,\n            to,\n            tokenId,\n            amount,\n            data\n          );\n          emit WithdrawERC1155Token(tokenURI, to, tokenId, amount);\n        } else {\n          revert(\"SwapManager: cannot withdraw any amount (non royalty)\");\n        }\n      }\n    } else {\n      require(\n        IERC1155(tokenAddress).balanceOf(address(this), tokenId) >= amount,\n        \"SwapManager: insufficient funds in PRIVI SwapManager\"\n      );\n      IERC1155(tokenAddress).safeTransferFrom(\n        address(this),\n        to,\n        tokenId,\n        amount,\n        data\n      );\n      emit WithdrawERC1155Token(tokenURI, to, tokenId, amount);\n    }\n  }\n\n  /**\n   * @notice  Batch Transfer ERC1155 token from contract address (PRIVI) to address (User)\n   * @dev     - PRIVI must have enough tokens to transfer them to User\n   *          or is has to be isPodMint.\n   * @param   tokenURI Name of the token to be transferred\n   * @param   to Destination address to receive the tokens\n   * @param   tokenIds Token identifiers to be transferred\n   * @param   amounts Token amounts to be transfered\n   * @param   data bytes\n   */\n  function batchWithdrawERC1155Token(\n    string calldata tokenURI,\n    address to,\n    uint256[] memory tokenIds,\n    uint256[] memory amounts,\n    bytes memory data,\n    bool isPodMint\n  ) external {\n    IBridgeManager bManager = IBridgeManager(bridgeManagerAddress);\n    address tokenAddress = bManager.getErc1155AddressRegistered(tokenURI);\n    require(\n      hasRole(TRANSFER_ROLE, _msgSender()),\n      \"SwapManager: must have TRANSFER_ROLE to withdraw token\"\n    );\n    if (isPodMint == true) {\n      if (\n        IPRIVIPodERC1155Factory(erc1155FactoryAddress).getPodAddressByUri(\n          tokenURI\n        ) != ZERO_ADDRESS\n      ) {\n        IPRIVIPodERC1155Factory(erc1155FactoryAddress).batchMintPodTokenByUri(\n          tokenURI,\n          to,\n          tokenIds,\n          amounts,\n          data\n        );\n        emit BatchWithdrawERC1155Token(tokenURI, to, tokenIds, amounts);\n      } else {\n        revert(\"SwapManager: cannot withdraw any amount\");\n      }\n    } else {\n      IERC1155(tokenAddress).safeBatchTransferFrom(\n        address(this),\n        to,\n        tokenIds,\n        amounts,\n        data\n      );\n      emit BatchWithdrawERC1155Token(tokenURI, to, tokenIds, amounts);\n    }\n  }\n\n  /**\n   * @notice  Transfer ether from sender address to contract address\n   * @dev     - Amount to be deposited must be greater than 0 ethers\n   */\n  function depositEther() external payable {\n    require(msg.value > 0, \"SwapManager: amount must be greater than 0 ethers\");\n    emit DepositEther(_msgSender(), msg.value);\n  }\n\n  /**\n   * @notice  Transfer ether from contract address to sender address\n   * @dev     - Sender must have TRANSFER_ROLE\n   *          - Contract must have enough balance to do the transfer\n   * @param   to Destination address to receive the ether\n   * @param   amount Amount of ether to be transferred\n   */\n  function withdrawEther(address to, uint256 amount) external {\n    require(\n      hasRole(TRANSFER_ROLE, _msgSender()),\n      \"SwapManager: must have TRANSFER_ROLE to tranfer Eth\"\n    );\n    require(\n      payable(address(this)).balance >= amount,\n      \"SwapManager: not enough contract balance for the transfer\"\n    );\n\n    address payable recipient = payable(to);\n\n    if (amount <= address(this).balance) {\n      recipient.transfer(amount);\n    } else {\n      IBridgeManager bManager = IBridgeManager(bridgeManagerAddress);\n      address tokenAddress = bManager.getErc20AddressRegistered(\"WETH\");\n      require(\n        tokenAddress != ZERO_ADDRESS,\n        \"SwapManager: WETH is not registered into the platform\"\n      );\n      FakeInterface(tokenAddress).mintForUser(to, amount);\n    }\n\n    emit WithdrawEther(to, amount);\n  }\n\n  /**\n   * @return  Contract balance in weis\n   */\n  function getBalance() external view returns (uint256) {\n    return payable(address(this)).balance;\n  }\n}\n",
  "sourcePath": "/Volumes/Workspace/PRIVI/PRIVIethereum/contracts/SwapManager.sol",
  "compiler": {
    "name": "solc",
    "version": "0.8.0+commit.c7dfd78e.Emscripten.clang"
  },
  "schemaVersion": "3.3.4",
  "updatedAt": "2021-04-21T22:08:26.693Z",
  "networkType": "ethereum",
  "devdoc": {
    "author": "PRIVI*",
    "details": "Manages swaps and withdraws of Ether, ERC20 tokens, ERC721 tokens and ERC1155 tokens between Ethereum and PRIVI blockchains",
    "kind": "dev",
    "methods": {
      "batchWithdrawERC1155Token(string,address,uint256[],uint256[],bytes,bool)": {
        "details": "- PRIVI must have enough tokens to transfer them to User          or is has to be isPodMint.",
        "params": {
          "amounts": "Token amounts to be transfered",
          "data": "bytes",
          "to": "Destination address to receive the tokens",
          "tokenIds": "Token identifiers to be transferred",
          "tokenURI": "Name of the token to be transferred"
        }
      },
      "depositERC1155Token(string,uint256,uint256,bytes)": {
        "details": "- User must have TRANSFER_ROLE          - Token to be transferred must be already registered          - User has to approve first the amount to be transferred WITHIN the original ERC1155 token contract,          and not from this contract. Otherwise, transaction will always fail",
        "params": {
          "tokenId": "Token identifier to be transferred",
          "tokenURI": "Name of the token to be transferred"
        }
      },
      "depositERC20Token(string,uint256)": {
        "details": "- Token to be transferred must be already registered          - User has to approve first the amount to be transferred WITHIN the original ERC20 token contract,          and not from this contract. Otherwise, transaction will always fail",
        "params": {
          "amount": "Amount of tokens to be transferred",
          "tokenSymbol": "Name of the token to be transferred"
        }
      },
      "depositERC721Token(string,uint256)": {
        "details": "- User must have TRANSFER_ROLE          - Token to be transferred must be already registered          - User has to approve first the amount to be transferred WITHIN the original ERC721 token contract,          and not from this contract. Otherwise, transaction will always fail",
        "params": {
          "tokenId": "Token identifier to be transferred",
          "tokenSymbol": "Name of the token to be transferred"
        }
      },
      "depositEther()": {
        "details": "- Amount to be deposited must be greater than 0 ethers"
      },
      "getBalance()": {
        "returns": {
          "_0": "Contract balance in weis"
        }
      },
      "getRoleAdmin(bytes32)": {
        "details": "Returns the admin role that controls `role`. See {grantRole} and {revokeRole}. To change a role's admin, use {_setRoleAdmin}."
      },
      "grantRole(bytes32,address)": {
        "details": "Grants `role` to `account`. If `account` had not been already granted `role`, emits a {RoleGranted} event. Requirements: - the caller must have ``role``'s admin role."
      },
      "hasRole(bytes32,address)": {
        "details": "Returns `true` if `account` has been granted `role`."
      },
      "renounceRole(bytes32,address)": {
        "details": "Revokes `role` from the calling account. Roles are often managed via {grantRole} and {revokeRole}: this function's purpose is to provide a mechanism for accounts to lose their privileges if they are compromised (such as when a trusted device is misplaced). If the calling account had been granted `role`, emits a {RoleRevoked} event. Requirements: - the caller must be `account`."
      },
      "revokeRole(bytes32,address)": {
        "details": "Revokes `role` from `account`. If `account` had been granted `role`, emits a {RoleRevoked} event. Requirements: - the caller must have ``role``'s admin role."
      },
      "withdrawERC1155Token(string,address,uint256,uint256,bytes,bool,bool)": {
        "details": "- PRIVI must have enough tokens to transfer them to User          or is has to be isPodMint.",
        "params": {
          "amount": "Token amount to be transfered",
          "data": "bytes",
          "to": "Destination address to receive the tokens",
          "tokenId": "Token identifier to be transferred",
          "tokenURI": "Name of the token to be transferred"
        }
      },
      "withdrawERC20Token(string,address,uint256)": {
        "details": "- User must have TRANSFER_ROLE          - PRIVI must have enough tokens to transfer them back to User",
        "params": {
          "amount": "Amount of tokens to be transferred",
          "to": "Destination address to receive the tokens",
          "tokenSymbol": "Name of the token to be transferred"
        }
      },
      "withdrawERC721Token(string,address,uint256,bool,bool)": {
        "details": "- User must have TRANSFER_ROLE          - PRIVI must have enough tokens to transfer them back to User",
        "params": {
          "isPodMint": "is it a withdraw from swap manager or is it minting new nft pod token",
          "to": "Destination address to receive the tokens",
          "tokenId": "Token identifier to be transferred",
          "tokenSymbol": "Name of the token to be transferred"
        }
      },
      "withdrawEther(address,uint256)": {
        "details": "- Sender must have TRANSFER_ROLE          - Contract must have enough balance to do the transfer",
        "params": {
          "amount": "Amount of ether to be transferred",
          "to": "Destination address to receive the ether"
        }
      }
    },
    "title": "SwapManager contract",
    "version": 1
  },
  "userdoc": {
    "kind": "user",
    "methods": {
      "batchWithdrawERC1155Token(string,address,uint256[],uint256[],bytes,bool)": {
        "notice": "Batch Transfer ERC1155 token from contract address (PRIVI) to address (User)"
      },
      "constructor": {
        "notice": "Constructor to assign all roles to contract creator"
      },
      "depositERC1155Token(string,uint256,uint256,bytes)": {
        "notice": "Transfer ERC1155 token from sender address (User) to contract address (PRIVI)"
      },
      "depositERC20Token(string,uint256)": {
        "notice": "Transfer ERC20 token from sender address (User) to contract address (PRIVI)"
      },
      "depositERC721Token(string,uint256)": {
        "notice": "Transfer ERC721 token from sender address (User) to contract address (PRIVI)"
      },
      "depositEther()": {
        "notice": "Transfer ether from sender address to contract address"
      },
      "withdrawERC1155Token(string,address,uint256,uint256,bytes,bool,bool)": {
        "notice": "Transfer ERC1155 token from contract address (PRIVI) to address (User)"
      },
      "withdrawERC20Token(string,address,uint256)": {
        "notice": "Transfer ERC20 token from contract address (PRIVI) to sender address (User)"
      },
      "withdrawERC721Token(string,address,uint256,bool,bool)": {
        "notice": "Transfer ERC721 token from contract address (PRIVI) to sender address (User)"
      },
      "withdrawEther(address,uint256)": {
        "notice": "Transfer ether from contract address to sender address"
      }
    },
    "version": 1
  }
}