{
  "contractName": "SwapManager",
  "abi": [
    {
      "inputs": [],
      "stateMutability": "nonpayable",
      "type": "constructor"
    },
    {
      "anonymous": false,
      "inputs": [
        {
          "indexed": true,
          "internalType": "string",
          "name": "tokenName",
          "type": "string"
        },
        {
          "indexed": false,
          "internalType": "address",
          "name": "to",
          "type": "address"
        },
        {
          "indexed": false,
          "internalType": "uint256",
          "name": "amount",
          "type": "uint256"
        }
      ],
      "name": "DepositERC20Token",
      "type": "event"
    },
    {
      "anonymous": false,
      "inputs": [
        {
          "indexed": true,
          "internalType": "string",
          "name": "tokenName",
          "type": "string"
        },
        {
          "indexed": false,
          "internalType": "address",
          "name": "to",
          "type": "address"
        },
        {
          "indexed": false,
          "internalType": "uint256",
          "name": "amount",
          "type": "uint256"
        }
      ],
      "name": "DepositERC721Token",
      "type": "event"
    },
    {
      "anonymous": false,
      "inputs": [
        {
          "indexed": true,
          "internalType": "address",
          "name": "from",
          "type": "address"
        },
        {
          "indexed": false,
          "internalType": "uint256",
          "name": "amount",
          "type": "uint256"
        }
      ],
      "name": "DepositEther",
      "type": "event"
    },
    {
      "anonymous": false,
      "inputs": [
        {
          "indexed": true,
          "internalType": "string",
          "name": "name",
          "type": "string"
        },
        {
          "indexed": false,
          "internalType": "address",
          "name": "tokenAddress",
          "type": "address"
        }
      ],
      "name": "RegisterERC20Token",
      "type": "event"
    },
    {
      "anonymous": false,
      "inputs": [
        {
          "indexed": true,
          "internalType": "string",
          "name": "name",
          "type": "string"
        },
        {
          "indexed": false,
          "internalType": "address",
          "name": "tokenAddress",
          "type": "address"
        }
      ],
      "name": "RegisterERC721Token",
      "type": "event"
    },
    {
      "anonymous": false,
      "inputs": [
        {
          "indexed": true,
          "internalType": "bytes32",
          "name": "role",
          "type": "bytes32"
        },
        {
          "indexed": true,
          "internalType": "bytes32",
          "name": "previousAdminRole",
          "type": "bytes32"
        },
        {
          "indexed": true,
          "internalType": "bytes32",
          "name": "newAdminRole",
          "type": "bytes32"
        }
      ],
      "name": "RoleAdminChanged",
      "type": "event"
    },
    {
      "anonymous": false,
      "inputs": [
        {
          "indexed": true,
          "internalType": "bytes32",
          "name": "role",
          "type": "bytes32"
        },
        {
          "indexed": true,
          "internalType": "address",
          "name": "account",
          "type": "address"
        },
        {
          "indexed": true,
          "internalType": "address",
          "name": "sender",
          "type": "address"
        }
      ],
      "name": "RoleGranted",
      "type": "event"
    },
    {
      "anonymous": false,
      "inputs": [
        {
          "indexed": true,
          "internalType": "bytes32",
          "name": "role",
          "type": "bytes32"
        },
        {
          "indexed": true,
          "internalType": "address",
          "name": "account",
          "type": "address"
        },
        {
          "indexed": true,
          "internalType": "address",
          "name": "sender",
          "type": "address"
        }
      ],
      "name": "RoleRevoked",
      "type": "event"
    },
    {
      "anonymous": false,
      "inputs": [
        {
          "indexed": true,
          "internalType": "string",
          "name": "name",
          "type": "string"
        }
      ],
      "name": "UnRegisterERC20Token",
      "type": "event"
    },
    {
      "anonymous": false,
      "inputs": [
        {
          "indexed": true,
          "internalType": "string",
          "name": "name",
          "type": "string"
        }
      ],
      "name": "UnRegisterERC721Token",
      "type": "event"
    },
    {
      "anonymous": false,
      "inputs": [
        {
          "indexed": true,
          "internalType": "string",
          "name": "tokenName",
          "type": "string"
        },
        {
          "indexed": false,
          "internalType": "address",
          "name": "to",
          "type": "address"
        },
        {
          "indexed": false,
          "internalType": "uint256",
          "name": "amount",
          "type": "uint256"
        }
      ],
      "name": "WithdrawERC20Token",
      "type": "event"
    },
    {
      "anonymous": false,
      "inputs": [
        {
          "indexed": true,
          "internalType": "string",
          "name": "tokenName",
          "type": "string"
        },
        {
          "indexed": false,
          "internalType": "address",
          "name": "to",
          "type": "address"
        },
        {
          "indexed": false,
          "internalType": "uint256",
          "name": "tokenId",
          "type": "uint256"
        }
      ],
      "name": "WithdrawERC721Token",
      "type": "event"
    },
    {
      "anonymous": false,
      "inputs": [
        {
          "indexed": true,
          "internalType": "address",
          "name": "to",
          "type": "address"
        },
        {
          "indexed": false,
          "internalType": "uint256",
          "name": "amount",
          "type": "uint256"
        }
      ],
      "name": "WithdrawEther",
      "type": "event"
    },
    {
      "inputs": [],
      "name": "DEFAULT_ADMIN_ROLE",
      "outputs": [
        {
          "internalType": "bytes32",
          "name": "",
          "type": "bytes32"
        }
      ],
      "stateMutability": "view",
      "type": "function",
      "constant": true
    },
    {
      "inputs": [],
      "name": "REGISTER_ROLE",
      "outputs": [
        {
          "internalType": "bytes32",
          "name": "",
          "type": "bytes32"
        }
      ],
      "stateMutability": "view",
      "type": "function",
      "constant": true
    },
    {
      "inputs": [],
      "name": "TRANSFER_ROLE",
      "outputs": [
        {
          "internalType": "bytes32",
          "name": "",
          "type": "bytes32"
        }
      ],
      "stateMutability": "view",
      "type": "function",
      "constant": true
    },
    {
      "inputs": [
        {
          "internalType": "string",
          "name": "",
          "type": "string"
        }
      ],
      "name": "contractAddressERC20",
      "outputs": [
        {
          "internalType": "address",
          "name": "",
          "type": "address"
        }
      ],
      "stateMutability": "view",
      "type": "function",
      "constant": true
    },
    {
      "inputs": [
        {
          "internalType": "string",
          "name": "",
          "type": "string"
        }
      ],
      "name": "contractAddressERC721",
      "outputs": [
        {
          "internalType": "address",
          "name": "",
          "type": "address"
        }
      ],
      "stateMutability": "view",
      "type": "function",
      "constant": true
    },
    {
      "inputs": [
        {
          "internalType": "bytes32",
          "name": "role",
          "type": "bytes32"
        }
      ],
      "name": "getRoleAdmin",
      "outputs": [
        {
          "internalType": "bytes32",
          "name": "",
          "type": "bytes32"
        }
      ],
      "stateMutability": "view",
      "type": "function",
      "constant": true
    },
    {
      "inputs": [
        {
          "internalType": "bytes32",
          "name": "role",
          "type": "bytes32"
        },
        {
          "internalType": "uint256",
          "name": "index",
          "type": "uint256"
        }
      ],
      "name": "getRoleMember",
      "outputs": [
        {
          "internalType": "address",
          "name": "",
          "type": "address"
        }
      ],
      "stateMutability": "view",
      "type": "function",
      "constant": true
    },
    {
      "inputs": [
        {
          "internalType": "bytes32",
          "name": "role",
          "type": "bytes32"
        }
      ],
      "name": "getRoleMemberCount",
      "outputs": [
        {
          "internalType": "uint256",
          "name": "",
          "type": "uint256"
        }
      ],
      "stateMutability": "view",
      "type": "function",
      "constant": true
    },
    {
      "inputs": [
        {
          "internalType": "bytes32",
          "name": "role",
          "type": "bytes32"
        },
        {
          "internalType": "address",
          "name": "account",
          "type": "address"
        }
      ],
      "name": "grantRole",
      "outputs": [],
      "stateMutability": "nonpayable",
      "type": "function"
    },
    {
      "inputs": [
        {
          "internalType": "bytes32",
          "name": "role",
          "type": "bytes32"
        },
        {
          "internalType": "address",
          "name": "account",
          "type": "address"
        }
      ],
      "name": "hasRole",
      "outputs": [
        {
          "internalType": "bool",
          "name": "",
          "type": "bool"
        }
      ],
      "stateMutability": "view",
      "type": "function",
      "constant": true
    },
    {
      "inputs": [
        {
          "internalType": "bytes32",
          "name": "role",
          "type": "bytes32"
        },
        {
          "internalType": "address",
          "name": "account",
          "type": "address"
        }
      ],
      "name": "renounceRole",
      "outputs": [],
      "stateMutability": "nonpayable",
      "type": "function"
    },
    {
      "inputs": [
        {
          "internalType": "bytes32",
          "name": "role",
          "type": "bytes32"
        },
        {
          "internalType": "address",
          "name": "account",
          "type": "address"
        }
      ],
      "name": "revokeRole",
      "outputs": [],
      "stateMutability": "nonpayable",
      "type": "function"
    },
    {
      "inputs": [
        {
          "internalType": "string",
          "name": "tokenName",
          "type": "string"
        },
        {
          "internalType": "address",
          "name": "tokenContractAddress",
          "type": "address"
        }
      ],
      "name": "registerTokenERC20",
      "outputs": [],
      "stateMutability": "nonpayable",
      "type": "function"
    },
    {
      "inputs": [
        {
          "internalType": "string",
          "name": "tokenName",
          "type": "string"
        }
      ],
      "name": "unRegisterTokenERC20",
      "outputs": [],
      "stateMutability": "nonpayable",
      "type": "function"
    },
    {
      "inputs": [
        {
          "internalType": "string",
          "name": "tokenName",
          "type": "string"
        },
        {
          "internalType": "address",
          "name": "tokenContractAddress",
          "type": "address"
        }
      ],
      "name": "registerTokenERC721",
      "outputs": [],
      "stateMutability": "nonpayable",
      "type": "function"
    },
    {
      "inputs": [
        {
          "internalType": "string",
          "name": "tokenName",
          "type": "string"
        }
      ],
      "name": "unRegisterTokenERC721",
      "outputs": [],
      "stateMutability": "nonpayable",
      "type": "function"
    },
    {
      "inputs": [
        {
          "internalType": "string",
          "name": "tokenName",
          "type": "string"
        },
        {
          "internalType": "uint256",
          "name": "amount",
          "type": "uint256"
        }
      ],
      "name": "depositERC20Token",
      "outputs": [],
      "stateMutability": "nonpayable",
      "type": "function"
    },
    {
      "inputs": [
        {
          "internalType": "string",
          "name": "tokenName",
          "type": "string"
        },
        {
          "internalType": "address",
          "name": "to",
          "type": "address"
        },
        {
          "internalType": "uint256",
          "name": "amount",
          "type": "uint256"
        }
      ],
      "name": "withdrawERC20Token",
      "outputs": [],
      "stateMutability": "nonpayable",
      "type": "function"
    },
    {
      "inputs": [
        {
          "internalType": "string",
          "name": "tokenName",
          "type": "string"
        },
        {
          "internalType": "address",
          "name": "to",
          "type": "address"
        },
        {
          "internalType": "uint256",
          "name": "tokenId",
          "type": "uint256"
        }
      ],
      "name": "depositERC721Token",
      "outputs": [],
      "stateMutability": "nonpayable",
      "type": "function"
    },
    {
      "inputs": [
        {
          "internalType": "string",
          "name": "tokenName",
          "type": "string"
        },
        {
          "internalType": "address",
          "name": "to",
          "type": "address"
        },
        {
          "internalType": "uint256",
          "name": "tokenId",
          "type": "uint256"
        }
      ],
      "name": "withdrawERC721Token",
      "outputs": [],
      "stateMutability": "nonpayable",
      "type": "function"
    },
    {
      "inputs": [],
      "name": "depositEther",
      "outputs": [],
      "stateMutability": "payable",
      "type": "function",
      "payable": true
    },
    {
      "inputs": [
        {
          "internalType": "address",
          "name": "to",
          "type": "address"
        },
        {
          "internalType": "uint256",
          "name": "amount",
          "type": "uint256"
        }
      ],
      "name": "withdrawEther",
      "outputs": [],
      "stateMutability": "nonpayable",
      "type": "function"
    },
    {
      "inputs": [],
      "name": "getBalance",
      "outputs": [
        {
          "internalType": "uint256",
          "name": "",
          "type": "uint256"
        }
      ],
      "stateMutability": "view",
      "type": "function",
      "constant": true
    }
  ],
  "bytecode": "0x60806040526000600160006101000a81548173ffffffffffffffffffffffffffffffffffffffff021916908373ffffffffffffffffffffffffffffffffffffffff1602179055503480156200005357600080fd5b50620000786000801b6200006c6200012a60201b60201c565b6200013260201b60201c565b620000ce60405180807f52454749535445525f524f4c4500000000000000000000000000000000000000815250600d0190506040518091039020620000c26200012a60201b60201c565b6200013260201b60201c565b6200012460405180807f5452414e534645525f524f4c4500000000000000000000000000000000000000815250600d0190506040518091039020620001186200012a60201b60201c565b6200013260201b60201c565b620002c0565b600033905090565b6200014482826200014860201b60201c565b5050565b6200017681600080858152602001908152602001600020600001620001eb60201b62003a601790919060201c565b15620001e7576200018c6200012a60201b60201c565b73ffffffffffffffffffffffffffffffffffffffff168173ffffffffffffffffffffffffffffffffffffffff16837f2f8788117e7eff1d82e926ec794901d17c78024a50270940304540a733656f0d60405160405180910390a45b5050565b60006200021b836000018373ffffffffffffffffffffffffffffffffffffffff1660001b6200022360201b60201c565b905092915050565b60006200023783836200029d60201b60201c565b6200029257826000018290806001815401808255809150506001900390600052602060002001600090919091909150558260000180549050836001016000848152602001908152602001600020819055506001905062000297565b600090505b92915050565b600080836001016000848152602001908152602001600020541415905092915050565b61407f80620002d06000396000f3fe60806040526004361061013f5760003560e01c806374f53317116100b6578063a217fddf1161006f578063a217fddf14610a7d578063aa57b73614610aa8578063ca15c87314610b90578063d1af27c414610bdf578063d547741f14610cd1578063fcf6a89214610d2c5761013f565b806374f53317146107b65780637de2c626146107e15780639010d07c146108b357806391d14854146109385780639562227e146109ab57806398ea5fca14610a735761013f565b806336568abe1161010857806336568abe1461033657806346dffca014610391578063522f68151461049957806356a109bc146104f45780635a8c18e1146105e65780635d099ca7146106ae5761013f565b806259d9301461014457806312065fe014610236578063206b60f914610261578063248a9ca31461028c5780632f2ff15d146102db575b600080fd5b34801561015057600080fd5b506102346004803603606081101561016757600080fd5b810190808035906020019064010000000081111561018457600080fd5b82018360208201111561019657600080fd5b803590602001918460018302840111640100000000831117156101b857600080fd5b91908080601f016020809104026020016040519081016040528093929190818152602001838380828437600081840152601f19601f820116905080830192505050505050509192919290803573ffffffffffffffffffffffffffffffffffffffff16906020019092919080359060200190929190505050610e14565b005b34801561024257600080fd5b5061024b61139d565b6040518082815260200191505060405180910390f35b34801561026d57600080fd5b506102766113bc565b6040518082815260200191505060405180910390f35b34801561029857600080fd5b506102c5600480360360208110156102af57600080fd5b81019080803590602001909291905050506113f5565b6040518082815260200191505060405180910390f35b3480156102e757600080fd5b50610334600480360360408110156102fe57600080fd5b8101908080359060200190929190803573ffffffffffffffffffffffffffffffffffffffff169060200190929190505050611414565b005b34801561034257600080fd5b5061038f6004803603604081101561035957600080fd5b8101908080359060200190929190803573ffffffffffffffffffffffffffffffffffffffff16906020019092919050505061149d565b005b34801561039d57600080fd5b50610457600480360360208110156103b457600080fd5b81019080803590602001906401000000008111156103d157600080fd5b8201836020820111156103e357600080fd5b8035906020019184600183028401116401000000008311171561040557600080fd5b91908080601f016020809104026020016040519081016040528093929190818152602001838380828437600081840152601f19601f820116905080830192505050505050509192919290505050611536565b604051808273ffffffffffffffffffffffffffffffffffffffff1673ffffffffffffffffffffffffffffffffffffffff16815260200191505060405180910390f35b3480156104a557600080fd5b506104f2600480360360408110156104bc57600080fd5b81019080803573ffffffffffffffffffffffffffffffffffffffff1690602001909291908035906020019092919050505061157f565b005b34801561050057600080fd5b506105e46004803603606081101561051757600080fd5b810190808035906020019064010000000081111561053457600080fd5b82018360208201111561054657600080fd5b8035906020019184600183028401116401000000008311171561056857600080fd5b91908080601f016020809104026020016040519081016040528093929190818152602001838380828437600081840152601f19601f820116905080830192505050505050509192919290803573ffffffffffffffffffffffffffffffffffffffff16906020019092919080359060200190929190505050611729565b005b3480156105f257600080fd5b506106ac6004803603602081101561060957600080fd5b810190808035906020019064010000000081111561062657600080fd5b82018360208201111561063857600080fd5b8035906020019184600183028401116401000000008311171561065a57600080fd5b91908080601f016020809104026020016040519081016040528093929190818152602001838380828437600081840152601f19601f820116905080830192505050505050509192919290505050611c1e565b005b3480156106ba57600080fd5b50610774600480360360208110156106d157600080fd5b81019080803590602001906401000000008111156106ee57600080fd5b82018360208201111561070057600080fd5b8035906020019184600183028401116401000000008311171561072257600080fd5b91908080601f016020809104026020016040519081016040528093929190818152602001838380828437600081840152601f19601f820116905080830192505050505050509192919290505050611fa6565b604051808273ffffffffffffffffffffffffffffffffffffffff1673ffffffffffffffffffffffffffffffffffffffff16815260200191505060405180910390f35b3480156107c257600080fd5b506107cb611fef565b6040518082815260200191505060405180910390f35b3480156107ed57600080fd5b506108b16004803603604081101561080457600080fd5b810190808035906020019064010000000081111561082157600080fd5b82018360208201111561083357600080fd5b8035906020019184600183028401116401000000008311171561085557600080fd5b91908080601f016020809104026020016040519081016040528093929190818152602001838380828437600081840152601f19601f82011690508083019250505050505050919291929080359060200190929190505050612028565b005b3480156108bf57600080fd5b506108f6600480360360408110156108d657600080fd5b81019080803590602001909291908035906020019092919050505061258a565b604051808273ffffffffffffffffffffffffffffffffffffffff1673ffffffffffffffffffffffffffffffffffffffff16815260200191505060405180910390f35b34801561094457600080fd5b506109916004803603604081101561095b57600080fd5b8101908080359060200190929190803573ffffffffffffffffffffffffffffffffffffffff1690602001909291905050506125bb565b604051808215151515815260200191505060405180910390f35b3480156109b757600080fd5b50610a71600480360360208110156109ce57600080fd5b81019080803590602001906401000000008111156109eb57600080fd5b8201836020820111156109fd57600080fd5b80359060200191846001830284011164010000000083111715610a1f57600080fd5b91908080601f016020809104026020016040519081016040528093929190818152602001838380828437600081840152601f19601f8201169050808301925050505050505091929192905050506125ec565b005b610a7b612974565b005b348015610a8957600080fd5b50610a92612a24565b6040518082815260200191505060405180910390f35b348015610ab457600080fd5b50610b8e60048036036040811015610acb57600080fd5b8101908080359060200190640100000000811115610ae857600080fd5b820183602082011115610afa57600080fd5b80359060200191846001830284011164010000000083111715610b1c57600080fd5b91908080601f016020809104026020016040519081016040528093929190818152602001838380828437600081840152601f19601f820116905080830192505050505050509192919290803573ffffffffffffffffffffffffffffffffffffffff169060200190929190505050612a2b565b005b348015610b9c57600080fd5b50610bc960048036036020811015610bb357600080fd5b8101908080359060200190929190505050612e3f565b6040518082815260200191505060405180910390f35b348015610beb57600080fd5b50610ccf60048036036060811015610c0257600080fd5b8101908080359060200190640100000000811115610c1f57600080fd5b820183602082011115610c3157600080fd5b80359060200191846001830284011164010000000083111715610c5357600080fd5b91908080601f016020809104026020016040519081016040528093929190818152602001838380828437600081840152601f19601f820116905080830192505050505050509192919290803573ffffffffffffffffffffffffffffffffffffffff16906020019092919080359060200190929190505050612e65565b005b348015610cdd57600080fd5b50610d2a60048036036040811015610cf457600080fd5b8101908080359060200190929190803573ffffffffffffffffffffffffffffffffffffffff169060200190929190505050613436565b005b348015610d3857600080fd5b50610e1260048036036040811015610d4f57600080fd5b8101908080359060200190640100000000811115610d6c57600080fd5b820183602082011115610d7e57600080fd5b80359060200191846001830284011164010000000083111715610da057600080fd5b91908080601f016020809104026020016040519081016040528093929190818152602001838380828437600081840152601f19601f820116905080830192505050505050509192919290803573ffffffffffffffffffffffffffffffffffffffff1690602001909291905050506134bf565b005b610e5a60405180807f5452414e534645525f524f4c4500000000000000000000000000000000000000815250600d0190506040518091039020610e556138d3565b6125bb565b610eaf576040517f08c379a0000000000000000000000000000000000000000000000000000000008152600401808060200182810382526036815260200180613fe56036913960400191505060405180910390fd5b60006003846040518082805190602001908083835b60208310610ee75780518252602082019150602081019050602083039250610ec4565b6001836020036101000a038019825116818451168082178552505050505050905001915050908152602001604051809103902060009054906101000a900473ffffffffffffffffffffffffffffffffffffffff1673ffffffffffffffffffffffffffffffffffffffff166370a08231306040518263ffffffff1660e01b8152600401808273ffffffffffffffffffffffffffffffffffffffff1673ffffffffffffffffffffffffffffffffffffffff16815260200191505060206040518083038186803b158015610fb757600080fd5b505afa158015610fcb573d6000803e3d6000fd5b505050506040513d6020811015610fe157600080fd5b810190808051906020019092919050505011611048576040517f08c379a0000000000000000000000000000000000000000000000000000000008152600401808060200182810382526031815260200180613d216031913960400191505060405180910390fd5b6003836040518082805190602001908083835b6020831061107e578051825260208201915060208101905060208303925061105b565b6001836020036101000a038019825116818451168082178552505050505050905001915050908152602001604051809103902060009054906101000a900473ffffffffffffffffffffffffffffffffffffffff1673ffffffffffffffffffffffffffffffffffffffff1663095ea7b330836040518363ffffffff1660e01b8152600401808373ffffffffffffffffffffffffffffffffffffffff1673ffffffffffffffffffffffffffffffffffffffff16815260200182815260200192505050600060405180830381600087803b15801561115857600080fd5b505af115801561116c573d6000803e3d6000fd5b505050506003836040518082805190602001908083835b602083106111a65780518252602082019150602081019050602083039250611183565b6001836020036101000a038019825116818451168082178552505050505050905001915050908152602001604051809103902060009054906101000a900473ffffffffffffffffffffffffffffffffffffffff1673ffffffffffffffffffffffffffffffffffffffff166323b872dd3084846040518463ffffffff1660e01b8152600401808473ffffffffffffffffffffffffffffffffffffffff1673ffffffffffffffffffffffffffffffffffffffff1681526020018373ffffffffffffffffffffffffffffffffffffffff1673ffffffffffffffffffffffffffffffffffffffff1681526020018281526020019350505050600060405180830381600087803b1580156112b457600080fd5b505af11580156112c8573d6000803e3d6000fd5b50505050826040518082805190602001908083835b6020831061130057805182526020820191506020810190506020830392506112dd565b6001836020036101000a03801982511681845116808217855250505050505090500191505060405180910390207fd28833d48ffa5c3f0ea93c47adcb7e8015c714a9c0ddf007d4e523851b98367e8383604051808373ffffffffffffffffffffffffffffffffffffffff1673ffffffffffffffffffffffffffffffffffffffff1681526020018281526020019250505060405180910390a2505050565b60003073ffffffffffffffffffffffffffffffffffffffff1631905090565b60405180807f5452414e534645525f524f4c4500000000000000000000000000000000000000815250600d019050604051809103902081565b6000806000838152602001908152602001600020600201549050919050565b61143a600080848152602001908152602001600020600201546114356138d3565b6125bb565b61148f576040517f08c379a000000000000000000000000000000000000000000000000000000000815260040180806020018281038252602f815260200180613cf2602f913960400191505060405180910390fd5b61149982826138db565b5050565b6114a56138d3565b73ffffffffffffffffffffffffffffffffffffffff168173ffffffffffffffffffffffffffffffffffffffff1614611528576040517f08c379a000000000000000000000000000000000000000000000000000000000815260040180806020018281038252602f81526020018061401b602f913960400191505060405180910390fd5b611532828261396e565b5050565b6003818051602081018201805184825260208301602085012081835280955050505050506000915054906101000a900473ffffffffffffffffffffffffffffffffffffffff1681565b6115c560405180807f5452414e534645525f524f4c4500000000000000000000000000000000000000815250600d01905060405180910390206115c06138d3565b6125bb565b61161a576040517f08c379a0000000000000000000000000000000000000000000000000000000008152600401808060200182810382526033815260200180613e7e6033913960400191505060405180910390fd5b803073ffffffffffffffffffffffffffffffffffffffff1631101561168a576040517f08c379a0000000000000000000000000000000000000000000000000000000008152600401808060200182810382526039815260200180613e456039913960400191505060405180910390fd5b60008290508073ffffffffffffffffffffffffffffffffffffffff166108fc839081150290604051600060405180830381858888f193505050501580156116d5573d6000803e3d6000fd5b508273ffffffffffffffffffffffffffffffffffffffff167fdb35132c111efe920cede025e819975671cfd1b8fcc1174762c8670c4e94c211836040518082815260200191505060405180910390a2505050565b600160009054906101000a900473ffffffffffffffffffffffffffffffffffffffff1673ffffffffffffffffffffffffffffffffffffffff166003846040518082805190602001908083835b602083106117985780518252602082019150602081019050602083039250611775565b6001836020036101000a038019825116818451168082178552505050505050905001915050908152602001604051809103902060009054906101000a900473ffffffffffffffffffffffffffffffffffffffff1673ffffffffffffffffffffffffffffffffffffffff161415611859576040517f08c379a0000000000000000000000000000000000000000000000000000000008152600401808060200182810382526036815260200180613d776036913960400191505060405180910390fd5b3073ffffffffffffffffffffffffffffffffffffffff166003846040518082805190602001908083835b602083106118a65780518252602082019150602081019050602083039250611883565b6001836020036101000a038019825116818451168082178552505050505050905001915050908152602001604051809103902060009054906101000a900473ffffffffffffffffffffffffffffffffffffffff1673ffffffffffffffffffffffffffffffffffffffff1663081812fc836040518263ffffffff1660e01b81526004018082815260200191505060206040518083038186803b15801561194a57600080fd5b505afa15801561195e573d6000803e3d6000fd5b505050506040513d602081101561197457600080fd5b810190808051906020019092919050505073ffffffffffffffffffffffffffffffffffffffff16146119f1576040517f08c379a0000000000000000000000000000000000000000000000000000000008152600401808060200182810382526049815260200180613eb16049913960600191505060405180910390fd5b6003836040518082805190602001908083835b60208310611a275780518252602082019150602081019050602083039250611a04565b6001836020036101000a038019825116818451168082178552505050505050905001915050908152602001604051809103902060009054906101000a900473ffffffffffffffffffffffffffffffffffffffff1673ffffffffffffffffffffffffffffffffffffffff166323b872dd3384846040518463ffffffff1660e01b8152600401808473ffffffffffffffffffffffffffffffffffffffff1673ffffffffffffffffffffffffffffffffffffffff1681526020018373ffffffffffffffffffffffffffffffffffffffff1673ffffffffffffffffffffffffffffffffffffffff1681526020018281526020019350505050600060405180830381600087803b158015611b3557600080fd5b505af1158015611b49573d6000803e3d6000fd5b50505050826040518082805190602001908083835b60208310611b815780518252602082019150602081019050602083039250611b5e565b6001836020036101000a03801982511681845116808217855250505050505090500191505060405180910390207ff0218d2f738513bea289b1b8ca83d8241a1060f13280602f9b7ff8e3598d4c838383604051808373ffffffffffffffffffffffffffffffffffffffff1673ffffffffffffffffffffffffffffffffffffffff1681526020018281526020019250505060405180910390a2505050565b806060819050600081511415611c7f576040517f08c379a0000000000000000000000000000000000000000000000000000000008152600401808060200182810382526025815260200180613d526025913960400191505060405180910390fd5b611cc560405180807f52454749535445525f524f4c4500000000000000000000000000000000000000815250600d0190506040518091039020611cc06138d3565b6125bb565b611d1a576040517f08c379a000000000000000000000000000000000000000000000000000000000815260040180806020018281038252603a815260200180613fab603a913960400191505060405180910390fd5b600160009054906101000a900473ffffffffffffffffffffffffffffffffffffffff1673ffffffffffffffffffffffffffffffffffffffff166002846040518082805190602001908083835b60208310611d895780518252602082019150602081019050602083039250611d66565b6001836020036101000a038019825116818451168082178552505050505050905001915050908152602001604051809103902060009054906101000a900473ffffffffffffffffffffffffffffffffffffffff1673ffffffffffffffffffffffffffffffffffffffff161415611e4a576040517f08c379a0000000000000000000000000000000000000000000000000000000008152600401808060200182810382526030815260200180613f7b6030913960400191505060405180910390fd5b600160009054906101000a900473ffffffffffffffffffffffffffffffffffffffff166002846040518082805190602001908083835b60208310611ea35780518252602082019150602081019050602083039250611e80565b6001836020036101000a038019825116818451168082178552505050505050905001915050908152602001604051809103902060006101000a81548173ffffffffffffffffffffffffffffffffffffffff021916908373ffffffffffffffffffffffffffffffffffffffff160217905550826040518082805190602001908083835b60208310611f485780518252602082019150602081019050602083039250611f25565b6001836020036101000a03801982511681845116808217855250505050505090500191505060405180910390207f165900214ed2efc5014e11d6a345a7cf56338cec6a77f7836963249a5b12a19f60405160405180910390a2505050565b6002818051602081018201805184825260208301602085012081835280955050505050506000915054906101000a900473ffffffffffffffffffffffffffffffffffffffff1681565b60405180807f52454749535445525f524f4c4500000000000000000000000000000000000000815250600d019050604051809103902081565b600160009054906101000a900473ffffffffffffffffffffffffffffffffffffffff1673ffffffffffffffffffffffffffffffffffffffff166002836040518082805190602001908083835b602083106120975780518252602082019150602081019050602083039250612074565b6001836020036101000a038019825116818451168082178552505050505050905001915050908152602001604051809103902060009054906101000a900473ffffffffffffffffffffffffffffffffffffffff1673ffffffffffffffffffffffffffffffffffffffff161415612158576040517f08c379a0000000000000000000000000000000000000000000000000000000008152600401808060200182810382526036815260200180613d776036913960400191505060405180910390fd5b806002836040518082805190602001908083835b6020831061218f578051825260208201915060208101905060208303925061216c565b6001836020036101000a038019825116818451168082178552505050505050905001915050908152602001604051809103902060009054906101000a900473ffffffffffffffffffffffffffffffffffffffff1673ffffffffffffffffffffffffffffffffffffffff1663dd62ed3e6122066138d3565b306040518363ffffffff1660e01b8152600401808373ffffffffffffffffffffffffffffffffffffffff1673ffffffffffffffffffffffffffffffffffffffff1681526020018273ffffffffffffffffffffffffffffffffffffffff1673ffffffffffffffffffffffffffffffffffffffff1681526020019250505060206040518083038186803b15801561229a57600080fd5b505afa1580156122ae573d6000803e3d6000fd5b505050506040513d60208110156122c457600080fd5b8101908080519060200190929190505050101561232c576040517f08c379a0000000000000000000000000000000000000000000000000000000008152600401808060200182810382526050815260200180613efa6050913960600191505060405180910390fd5b6002826040518082805190602001908083835b60208310612362578051825260208201915060208101905060208303925061233f565b6001836020036101000a038019825116818451168082178552505050505050905001915050908152602001604051809103902060009054906101000a900473ffffffffffffffffffffffffffffffffffffffff1673ffffffffffffffffffffffffffffffffffffffff166323b872dd6123d96138d3565b30846040518463ffffffff1660e01b8152600401808473ffffffffffffffffffffffffffffffffffffffff1673ffffffffffffffffffffffffffffffffffffffff1681526020018373ffffffffffffffffffffffffffffffffffffffff1673ffffffffffffffffffffffffffffffffffffffff1681526020018281526020019350505050602060405180830381600087803b15801561247757600080fd5b505af115801561248b573d6000803e3d6000fd5b505050506040513d60208110156124a157600080fd5b810190808051906020019092919050505050816040518082805190602001908083835b602083106124e757805182526020820191506020810190506020830392506124c4565b6001836020036101000a03801982511681845116808217855250505050505090500191505060405180910390207f91ed334b741c7cbbae982dad9ca693e9d47b9a50db6fd5f346755f5bca14dfdd61253d6138d3565b83604051808373ffffffffffffffffffffffffffffffffffffffff1673ffffffffffffffffffffffffffffffffffffffff1681526020018281526020019250505060405180910390a25050565b60006125b382600080868152602001908152602001600020600001613a0190919063ffffffff16565b905092915050565b60006125e482600080868152602001908152602001600020600001613a1b90919063ffffffff16565b905092915050565b80606081905060008151141561264d576040517f08c379a0000000000000000000000000000000000000000000000000000000008152600401808060200182810382526025815260200180613d526025913960400191505060405180910390fd5b61269360405180807f52454749535445525f524f4c4500000000000000000000000000000000000000815250600d019050604051809103902061268e6138d3565b6125bb565b6126e8576040517f08c379a000000000000000000000000000000000000000000000000000000000815260040180806020018281038252603a815260200180613fab603a913960400191505060405180910390fd5b600160009054906101000a900473ffffffffffffffffffffffffffffffffffffffff1673ffffffffffffffffffffffffffffffffffffffff166003846040518082805190602001908083835b602083106127575780518252602082019150602081019050602083039250612734565b6001836020036101000a038019825116818451168082178552505050505050905001915050908152602001604051809103902060009054906101000a900473ffffffffffffffffffffffffffffffffffffffff1673ffffffffffffffffffffffffffffffffffffffff161415612818576040517f08c379a0000000000000000000000000000000000000000000000000000000008152600401808060200182810382526030815260200180613f7b6030913960400191505060405180910390fd5b600160009054906101000a900473ffffffffffffffffffffffffffffffffffffffff166003846040518082805190602001908083835b60208310612871578051825260208201915060208101905060208303925061284e565b6001836020036101000a038019825116818451168082178552505050505050905001915050908152602001604051809103902060006101000a81548173ffffffffffffffffffffffffffffffffffffffff021916908373ffffffffffffffffffffffffffffffffffffffff160217905550826040518082805190602001908083835b6020831061291657805182526020820191506020810190506020830392506128f3565b6001836020036101000a03801982511681845116808217855250505050505090500191505060405180910390207f0de03d3bef344b9df188770d8d72ff98e8c4b63ca2fedde287c7d4d12d8e5b0c60405160405180910390a2505050565b600034116129cd576040517f08c379a0000000000000000000000000000000000000000000000000000000008152600401808060200182810382526031815260200180613f4a6031913960400191505060405180910390fd5b6129d56138d3565b73ffffffffffffffffffffffffffffffffffffffff167fe628a607143b255f52afd0900e0d9630dd009c2f2635cd1e28c7aeeeff940802346040518082815260200191505060405180910390a2565b6000801b81565b816060819050600081511415612a8c576040517f08c379a0000000000000000000000000000000000000000000000000000000008152600401808060200182810382526025815260200180613d526025913960400191505060405180910390fd5b612ad260405180807f52454749535445525f524f4c4500000000000000000000000000000000000000815250600d0190506040518091039020612acd6138d3565b6125bb565b612b27576040517f08c379a0000000000000000000000000000000000000000000000000000000008152600401808060200182810382526038815260200180613dad6038913960400191505060405180910390fd5b600160009054906101000a900473ffffffffffffffffffffffffffffffffffffffff1673ffffffffffffffffffffffffffffffffffffffff166003856040518082805190602001908083835b60208310612b965780518252602082019150602081019050602083039250612b73565b6001836020036101000a038019825116818451168082178552505050505050905001915050908152602001604051809103902060009054906101000a900473ffffffffffffffffffffffffffffffffffffffff1673ffffffffffffffffffffffffffffffffffffffff1614612c56576040517f08c379a0000000000000000000000000000000000000000000000000000000008152600401808060200182810382526030815260200180613de56030913960400191505060405180910390fd5b6019845110612ccd576040517f08c379a00000000000000000000000000000000000000000000000000000000081526004018080602001828103825260208152602001807f537761704d616e616765723a20746f6b656e206e616d6520746f6f206c6f6e6781525060200191505060405180910390fd5b826003856040518082805190602001908083835b60208310612d045780518252602082019150602081019050602083039250612ce1565b6001836020036101000a038019825116818451168082178552505050505050905001915050908152602001604051809103902060006101000a81548173ffffffffffffffffffffffffffffffffffffffff021916908373ffffffffffffffffffffffffffffffffffffffff160217905550836040518082805190602001908083835b60208310612da95780518252602082019150602081019050602083039250612d86565b6001836020036101000a03801982511681845116808217855250505050505090500191505060405180910390207f8b716abc5c12b2b1b216049f179e5b7ea408a5a96880c14d00b5c83282e43b9584604051808273ffffffffffffffffffffffffffffffffffffffff1673ffffffffffffffffffffffffffffffffffffffff16815260200191505060405180910390a250505050565b6000612e5e600080848152602001908152602001600020600001613a4b565b9050919050565b612eab60405180807f5452414e534645525f524f4c4500000000000000000000000000000000000000815250600d0190506040518091039020612ea66138d3565b6125bb565b612f00576040517f08c379a0000000000000000000000000000000000000000000000000000000008152600401808060200182810382526036815260200180613fe56036913960400191505060405180910390fd5b60006002846040518082805190602001908083835b60208310612f385780518252602082019150602081019050602083039250612f15565b6001836020036101000a038019825116818451168082178552505050505050905001915050908152602001604051809103902060009054906101000a900473ffffffffffffffffffffffffffffffffffffffff1673ffffffffffffffffffffffffffffffffffffffff166370a08231306040518263ffffffff1660e01b8152600401808273ffffffffffffffffffffffffffffffffffffffff1673ffffffffffffffffffffffffffffffffffffffff16815260200191505060206040518083038186803b15801561300857600080fd5b505afa15801561301c573d6000803e3d6000fd5b505050506040513d602081101561303257600080fd5b810190808051906020019092919050505011613099576040517f08c379a0000000000000000000000000000000000000000000000000000000008152600401808060200182810382526031815260200180613d216031913960400191505060405180910390fd5b6002836040518082805190602001908083835b602083106130cf57805182526020820191506020810190506020830392506130ac565b6001836020036101000a038019825116818451168082178552505050505050905001915050908152602001604051809103902060009054906101000a900473ffffffffffffffffffffffffffffffffffffffff1673ffffffffffffffffffffffffffffffffffffffff1663095ea7b330836040518363ffffffff1660e01b8152600401808373ffffffffffffffffffffffffffffffffffffffff1673ffffffffffffffffffffffffffffffffffffffff16815260200182815260200192505050602060405180830381600087803b1580156131a957600080fd5b505af11580156131bd573d6000803e3d6000fd5b505050506040513d60208110156131d357600080fd5b8101908080519060200190929190505050506002836040518082805190602001908083835b6020831061321b57805182526020820191506020810190506020830392506131f8565b6001836020036101000a038019825116818451168082178552505050505050905001915050908152602001604051809103902060009054906101000a900473ffffffffffffffffffffffffffffffffffffffff1673ffffffffffffffffffffffffffffffffffffffff166323b872dd3084846040518463ffffffff1660e01b8152600401808473ffffffffffffffffffffffffffffffffffffffff1673ffffffffffffffffffffffffffffffffffffffff1681526020018373ffffffffffffffffffffffffffffffffffffffff1673ffffffffffffffffffffffffffffffffffffffff1681526020018281526020019350505050602060405180830381600087803b15801561332957600080fd5b505af115801561333d573d6000803e3d6000fd5b505050506040513d602081101561335357600080fd5b810190808051906020019092919050505050826040518082805190602001908083835b602083106133995780518252602082019150602081019050602083039250613376565b6001836020036101000a03801982511681845116808217855250505050505090500191505060405180910390207f226bfaa503fda889c5dbfb29ffa193ceac9a4b461e47f68b3b14c438ec7f8b678383604051808373ffffffffffffffffffffffffffffffffffffffff1673ffffffffffffffffffffffffffffffffffffffff1681526020018281526020019250505060405180910390a2505050565b61345c600080848152602001908152602001600020600201546134576138d3565b6125bb565b6134b1576040517f08c379a0000000000000000000000000000000000000000000000000000000008152600401808060200182810382526030815260200180613e156030913960400191505060405180910390fd5b6134bb828261396e565b5050565b816060819050600081511415613520576040517f08c379a0000000000000000000000000000000000000000000000000000000008152600401808060200182810382526025815260200180613d526025913960400191505060405180910390fd5b61356660405180807f52454749535445525f524f4c4500000000000000000000000000000000000000815250600d01905060405180910390206135616138d3565b6125bb565b6135bb576040517f08c379a0000000000000000000000000000000000000000000000000000000008152600401808060200182810382526038815260200180613dad6038913960400191505060405180910390fd5b600160009054906101000a900473ffffffffffffffffffffffffffffffffffffffff1673ffffffffffffffffffffffffffffffffffffffff166002856040518082805190602001908083835b6020831061362a5780518252602082019150602081019050602083039250613607565b6001836020036101000a038019825116818451168082178552505050505050905001915050908152602001604051809103902060009054906101000a900473ffffffffffffffffffffffffffffffffffffffff1673ffffffffffffffffffffffffffffffffffffffff16146136ea576040517f08c379a0000000000000000000000000000000000000000000000000000000008152600401808060200182810382526030815260200180613de56030913960400191505060405180910390fd5b6019845110613761576040517f08c379a00000000000000000000000000000000000000000000000000000000081526004018080602001828103825260208152602001807f537761704d616e616765723a20746f6b656e206e616d6520746f6f206c6f6e6781525060200191505060405180910390fd5b826002856040518082805190602001908083835b602083106137985780518252602082019150602081019050602083039250613775565b6001836020036101000a038019825116818451168082178552505050505050905001915050908152602001604051809103902060006101000a81548173ffffffffffffffffffffffffffffffffffffffff021916908373ffffffffffffffffffffffffffffffffffffffff160217905550836040518082805190602001908083835b6020831061383d578051825260208201915060208101905060208303925061381a565b6001836020036101000a03801982511681845116808217855250505050505090500191505060405180910390207f8332d9919bf32207cb796a0a21674da0f96c4d6f2257c02073ff112e117bff0c84604051808273ffffffffffffffffffffffffffffffffffffffff1673ffffffffffffffffffffffffffffffffffffffff16815260200191505060405180910390a250505050565b600033905090565b61390281600080858152602001908152602001600020600001613a6090919063ffffffff16565b1561396a5761390f6138d3565b73ffffffffffffffffffffffffffffffffffffffff168173ffffffffffffffffffffffffffffffffffffffff16837f2f8788117e7eff1d82e926ec794901d17c78024a50270940304540a733656f0d60405160405180910390a45b5050565b61399581600080858152602001908152602001600020600001613a9090919063ffffffff16565b156139fd576139a26138d3565b73ffffffffffffffffffffffffffffffffffffffff168173ffffffffffffffffffffffffffffffffffffffff16837ff6391f5c32d9c69d2a47ea670b442974b53935d1edc7fd64eb21e047a839171b60405160405180910390a45b5050565b6000613a108360000183613ac0565b60001c905092915050565b6000613a43836000018373ffffffffffffffffffffffffffffffffffffffff1660001b613b43565b905092915050565b6000613a5982600001613b66565b9050919050565b6000613a88836000018373ffffffffffffffffffffffffffffffffffffffff1660001b613b77565b905092915050565b6000613ab8836000018373ffffffffffffffffffffffffffffffffffffffff1660001b613be7565b905092915050565b600081836000018054905011613b21576040517f08c379a0000000000000000000000000000000000000000000000000000000008152600401808060200182810382526022815260200180613cd06022913960400191505060405180910390fd5b826000018281548110613b3057fe5b9060005260206000200154905092915050565b600080836001016000848152602001908152602001600020541415905092915050565b600081600001805490509050919050565b6000613b838383613b43565b613bdc578260000182908060018154018082558091505060019003906000526020600020016000909190919091505582600001805490508360010160008481526020019081526020016000208190555060019050613be1565b600090505b92915050565b60008083600101600084815260200190815260200160002054905060008114613cc35760006001820390506000600186600001805490500390506000866000018281548110613c3257fe5b9060005260206000200154905080876000018481548110613c4f57fe5b9060005260206000200181905550600183018760010160008381526020019081526020016000208190555086600001805480613c8757fe5b60019003818190600052602060002001600090559055866001016000878152602001908152602001600020600090556001945050505050613cc9565b60009150505b9291505056fe456e756d657261626c655365743a20696e646578206f7574206f6620626f756e6473416363657373436f6e74726f6c3a2073656e646572206d75737420626520616e2061646d696e20746f206772616e74537761704d616e616765723a20696e73756666696369656e742066756e647320696e20505249564920636f6e7472616374537761704d616e616765723a20746f6b656e4e616d652063616e277420626520656d707479537761704d616e616765723a20746f6b656e206973206e6f74207265676973746572656420696e746f2074686520706c6174666f726d537761704d616e616765723a206d75737420686176652052454749535445525f524f4c4520746f207265676973746572206120746f6b656e537761704d616e616765723a20746f6b656e206164647265737320697320616c72656164792072656769737465726564416363657373436f6e74726f6c3a2073656e646572206d75737420626520616e2061646d696e20746f207265766f6b65537761704d616e616765723a206e6f7420656e6f75676820636f6e74726163742062616c616e636520666f7220746865207472616e73666572537761704d616e616765723a206d7573742068617665205452414e534645525f524f4c4520746f207472616e66657220457468537761704d616e616765723a20746f6b656e20746f206265207472616e7366657272656420746f205052495649206973206e6f742079657420617070726f7665642062792055736572537761704d616e616765723a20746f6b656e20616d6f756e7420746f206265207472616e7366657272656420746f205052495649206973206e6f742079657420617070726f7665642062792055736572537761704d616e616765723a20616d6f756e74206d7573742062652067726561746572207468616e203020657468657273537761704d616e616765723a20746f6b656e2061646472657373206973206e6f74207265676973746572656420796574537761704d616e616765723a206d75737420686176652052454749535445525f524f4c4520746f20756e7265676973746572206120746f6b656e537761704d616e616765723a206d7573742068617665205452414e534645525f524f4c4520746f20776974686472617720746f6b656e416363657373436f6e74726f6c3a2063616e206f6e6c792072656e6f756e636520726f6c657320666f722073656c66a2646970667358221220523cdd9e9743d95e3fc86376c31018ca00026cf597e69a994d69556d16a3cbc864736f6c63430006050033",
  "immutableReferences": {},
  "source": "// SPDX-License-Identifier: MIT\npragma solidity ^0.6.0;\n\nimport \"@openzeppelin/contracts/access/AccessControl.sol\";\nimport \"@openzeppelin/contracts/token/ERC20/IERC20.sol\";\nimport \"@openzeppelin/contracts/token/ERC721/IERC721.sol\";\n// import \"https://github.com/OpenZeppelin/openzeppelin-contracts/blob/master/contracts/access/AccessControl.sol\";\n// import \"https://github.com/OpenZeppelin/openzeppelin-contracts/blob/master/contracts/token/ERC20/IERC20.sol\";\n// import \"https://github.com/OpenZeppelin/openzeppelin-contracts/blob/master/contracts/token/ERC721/IERC721.sol\";\n\n/// @author The PRIVI Blockchain team\n/// @title Manages swap and withdraw of Ethers, ERC20 tokens and ERC721 tokens between Users and PRIVI platform\n\ncontract SwapManager is AccessControl{\n    bytes32 public constant REGISTER_ROLE = keccak256(\"REGISTER_ROLE\");\n    bytes32 public constant TRANSFER_ROLE = keccak256(\"TRANSFER_ROLE\");\n    address private ZERO_ADDRESS = 0x0000000000000000000000000000000000000000;\n\n    mapping(string => address) public contractAddressERC20;\n    mapping(string => address) public contractAddressERC721;\n\n    event RegisterERC20Token(string indexed name, address tokenAddress);\n    event UnRegisterERC20Token(string indexed name);\n    event RegisterERC721Token(string indexed name, address tokenAddress);\n    event UnRegisterERC721Token(string indexed name);\n\n    event DepositERC20Token(string indexed tokenName, address to, uint256 amount);\n    event WithdrawERC20Token(string indexed tokenName, address to, uint256 amount);\n    event DepositERC721Token(string indexed tokenName, address to, uint256 amount);\n    event WithdrawERC721Token(string indexed tokenName, address to, uint256 tokenId);\n    event DepositEther(address indexed from, uint256 amount);\n    event WithdrawEther(address indexed to, uint256 amount);\n\n    /**\n     * @notice  Modifier to require 'tokenName' is not empty\n     * @param   tokenNameToCheck Token name to be checked\n     */\n    modifier tokenNameIsNotEmpty(string memory tokenNameToCheck) {\n        bytes memory bytesTokenName = bytes(tokenNameToCheck);\n        require(bytesTokenName.length != 0, \"SwapManager: tokenName can't be empty\");\n        _;\n    }\n\n    /**\n     * @notice Constructor to assign all roles to contract creator\n     */\n    constructor() public {\n        _setupRole(DEFAULT_ADMIN_ROLE, _msgSender());\n        _setupRole(REGISTER_ROLE, _msgSender());\n        _setupRole(TRANSFER_ROLE, _msgSender());\n    }\n    \n    /**\n     * @notice  Register the contract address of an ERC20 Token\n     * @dev     - User must have REGISTER_ROLE\n     *          - Token name and address can't be already registered\n     *          - Length of token name can't be higher than 25\n     * @param   tokenName Name of the token to be registered (e.g.: DAI, UNI)\n     * @param   tokenContractAddress Contract address of the ERC20 Token\n     */\n    function registerTokenERC20(string memory tokenName, address tokenContractAddress) public tokenNameIsNotEmpty(tokenName) {\n        require(hasRole(REGISTER_ROLE, _msgSender()), \n            \"SwapManager: must have REGISTER_ROLE to register a token\");\n        require(contractAddressERC20[tokenName] == ZERO_ADDRESS, \n            \"SwapManager: token address is already registered\");\n        require(bytes(tokenName).length < 25, \n            \"SwapManager: token name too long\");\n        contractAddressERC20[tokenName] = tokenContractAddress;\n        emit RegisterERC20Token(tokenName, tokenContractAddress);\n    }\n    \n    /**\n     * @notice  Unregister the contract address of an ERC20 Token\n     * @dev     - User must have REGISTER_ROLE\n     *          - Token name and address must be already registered\n     * @param   tokenName Name of the token to be unregistered (e.g.: DAI, UNI)\n     */\n    function unRegisterTokenERC20(string memory tokenName) public tokenNameIsNotEmpty(tokenName) {\n        require(hasRole(REGISTER_ROLE, _msgSender()), \n            \"SwapManager: must have REGISTER_ROLE to unregister a token\");\n        require(contractAddressERC20[tokenName] != ZERO_ADDRESS, \n            \"SwapManager: token address is not registered yet\");\n        contractAddressERC20[tokenName] = ZERO_ADDRESS;\n        emit UnRegisterERC20Token(tokenName);\n    }\n\n    /**\n     * @notice  Register the contract address of an ERC721 Token\n     * @dev     - User must have REGISTER_ROLE\n     *          - Token name and address can't be already registered\n     *          - Length of token name can't be higher than 25\n     * @param   tokenName Name of the token to be registered\n     * @param   tokenContractAddress Contract address of the ERC721 Token\n     */\n    function registerTokenERC721(string memory tokenName, address tokenContractAddress) public tokenNameIsNotEmpty(tokenName) {\n        require(hasRole(REGISTER_ROLE, _msgSender()), \n            \"SwapManager: must have REGISTER_ROLE to register a token\");\n        require(contractAddressERC721[tokenName] == ZERO_ADDRESS, \n            \"SwapManager: token address is already registered\");\n        require(bytes(tokenName).length < 25, \n            \"SwapManager: token name too long\");\n        contractAddressERC721[tokenName] = tokenContractAddress;\n        emit RegisterERC721Token(tokenName, tokenContractAddress);\n    }\n\n    /**\n     * @notice  Unregister the contract address of an ERC721 Token\n     * @dev     - User must have REGISTER_ROLE\n     *          - Token name and address must be already registered\n     * @param   tokenName Name of the token to be unregistered\n     */\n    function unRegisterTokenERC721(string memory tokenName) public tokenNameIsNotEmpty(tokenName) {\n        require(hasRole(REGISTER_ROLE, _msgSender()), \n            \"SwapManager: must have REGISTER_ROLE to unregister a token\");\n        require(contractAddressERC721[tokenName] != ZERO_ADDRESS, \n            \"SwapManager: token address is not registered yet\");\n        contractAddressERC721[tokenName] = ZERO_ADDRESS;\n        emit UnRegisterERC721Token(tokenName);\n    }\n\n    /**\n     * @notice  Transfer ERC20 token from sender address (User) to contract address (PRIVI)\n     * @dev     - User must have TRANSFER_ROLE\n     *          - Token to be transferred must be already registered\n     *          - User has to approve first the amount to be transferred WITHIN the original ERC20 token contract,\n     *          and not from this contract. Otherwise, transaction will always fail\n     * @param   tokenName Name of the token to be transferred\n     * @param   amount Amount of tokens to be transferred\n     */\n    function depositERC20Token(string memory tokenName, uint256 amount) public {\n        //require(hasRole(TRANSFER_ROLE, _msgSender()), \n        //    \"SwapManager: must have TRANSFER_ROLE to deposit token\");\n        require(contractAddressERC20[tokenName] != ZERO_ADDRESS, \n            \"SwapManager: token is not registered into the platform\");\n        require(IERC20(contractAddressERC20[tokenName]).allowance(_msgSender(), address(this)) >= amount, \n            \"SwapManager: token amount to be transferred to PRIVI is not yet approved by User\"); \n        IERC20(contractAddressERC20[tokenName]).transferFrom(_msgSender(), address(this), amount);\n        emit DepositERC20Token(tokenName, _msgSender(), amount);\n    }\n\n    /**\n     * @notice  Transfer ERC20 token from contract address (PRIVI) to sender address (User)\n     * @dev     - User must have TRANSFER_ROLE\n     *          - PRIVI must have enough tokens to transfer them back to User\n     * @param   tokenName Name of the token to be transferred\n     * @param   to Destination address to receive the tokens\n     * @param   amount Amount of tokens to be transferred\n     */\n    function withdrawERC20Token(string memory tokenName, address to, uint256 amount) public {\n        require(hasRole(TRANSFER_ROLE, _msgSender()), \n            \"SwapManager: must have TRANSFER_ROLE to withdraw token\");\n        require(IERC20(contractAddressERC20[tokenName]).balanceOf(address(this)) > 0, \n            \"SwapManager: insufficient funds in PRIVI contract\");\n        IERC20(contractAddressERC20[tokenName]).approve(address(this), amount);\n        IERC20(contractAddressERC20[tokenName]).transferFrom(address(this), to, amount);\n        emit WithdrawERC20Token(tokenName, to, amount);\n    }\n\n    /**\n     * @notice  Transfer ERC721 token from sender address (User) to contract address (PRIVI)\n     * @dev     - User must have TRANSFER_ROLE\n     *          - Token to be transferred must be already registered\n     *          - User has to approve first the amount to be transferred WITHIN the original ERC721 token contract,\n     *          and not from this contract. Otherwise, transaction will always fail\n     * @param   tokenName Name of the token to be transferred\n     * @param   to Destination address to receive the tokens\n     * @param   tokenId Token identifier to be transferred\n     */\n    function depositERC721Token(string memory tokenName, address to, uint256 tokenId) public {\n        //require(hasRole(TRANSFER_ROLE, _msgSender()), \n        //    \"SwapManager: must have TRANSFER_ROLE to deposit token\");\n        require(contractAddressERC721[tokenName] != ZERO_ADDRESS, \n            \"SwapManager: token is not registered into the platform\");\n        /* TO BE TESTED */\n        require(IERC721(contractAddressERC721[tokenName]).getApproved(tokenId) == address(this), \n            \"SwapManager: token to be transferred to PRIVI is not yet approved by User\"); \n        IERC721(contractAddressERC721[tokenName]).transferFrom(msg.sender, to, tokenId);\n        emit DepositERC721Token(tokenName, to, tokenId);\n    }\n\n    /**\n     * @notice  Transfer ERC721 token from contract address (PRIVI) to sender address (User)\n     * @dev     - User must have TRANSFER_ROLE\n     *          - PRIVI must have enough tokens to transfer them back to User\n     * @param   tokenName Name of the token to be transferred\n     * @param   to Destination address to receive the tokens\n     * @param   tokenId Token identifier to be transferred\n     */\n    function withdrawERC721Token(string memory tokenName, address to, uint256 tokenId) public {\n        require(hasRole(TRANSFER_ROLE, _msgSender()), \n            \"SwapManager: must have TRANSFER_ROLE to withdraw token\");\n        require(IERC721(contractAddressERC721[tokenName]).balanceOf(address(this)) > 0, \n            \"SwapManager: insufficient funds in PRIVI contract\");\n        IERC721(contractAddressERC721[tokenName]).approve(address(this), tokenId);\n        IERC721(contractAddressERC721[tokenName]).transferFrom(address(this), to, tokenId);\n        emit WithdrawERC721Token(tokenName, to, tokenId);\n    }\n    \n    /**\n     * @notice  Transfer ether from sender address to contract address\n     * @dev     - Amount to be deposited must be greater than 0 ethers \n     */\n    function depositEther() external payable {\n        require(msg.value > 0, \"SwapManager: amount must be greater than 0 ethers\");\n        emit DepositEther(_msgSender(), msg.value);  \n    }\n    \n    /**\n     * @notice  Transfer ether from contract address to sender address\n     * @dev     - Sender must have TRANSFER_ROLE\n     *          - Contract must have enough balance to do the transfer\n     * @param   to Destination address to receive the ether\n     * @param   amount Amount of ether to be transferred\n     */\n    function withdrawEther(address to, uint256 amount) public {\n        require(hasRole(TRANSFER_ROLE, _msgSender()), \n            \"SwapManager: must have TRANSFER_ROLE to tranfer Eth\");\n        require(payable(address(this)).balance >= amount, \n            \"SwapManager: not enough contract balance for the transfer\");\n        address payable recipient = address(uint160(to));\n        recipient.transfer(amount);\n        emit WithdrawEther(to, amount);\n    }\n\n    /**\n     * @return  Contract balance in weis\n     */\n    function getBalance() public view returns (uint256) {\n        return payable(address(this)).balance;\n    }\n}\n",
  "sourcePath": "/Users/sergijuanati/Dropbox/Docs/2. Work/14. Bitacoras/19. Solidity/3. SwapManager/contracts/SwapManager.sol",
  "compiler": {
    "name": "solc",
    "version": "0.6.5+commit.f956cc89.Emscripten.clang"
  },
  "schemaVersion": "3.3.2",
  "updatedAt": "2020-12-01T14:23:27.984Z",
  "networkType": "ethereum",
  "devdoc": {
    "author": "The PRIVI Blockchain team",
    "methods": {
      "depositERC20Token(string,uint256)": {
        "details": "- User must have TRANSFER_ROLE         - Token to be transferred must be already registered         - User has to approve first the amount to be transferred WITHIN the original ERC20 token contract,         and not from this contract. Otherwise, transaction will always fail",
        "params": {
          "amount": "Amount of tokens to be transferred",
          "tokenName": "Name of the token to be transferred"
        }
      },
      "depositERC721Token(string,address,uint256)": {
        "details": "- User must have TRANSFER_ROLE         - Token to be transferred must be already registered         - User has to approve first the amount to be transferred WITHIN the original ERC721 token contract,         and not from this contract. Otherwise, transaction will always fail",
        "params": {
          "to": "Destination address to receive the tokens",
          "tokenId": "Token identifier to be transferred",
          "tokenName": "Name of the token to be transferred"
        }
      },
      "depositEther()": {
        "details": "- Amount to be deposited must be greater than 0 ethers "
      },
      "getRoleAdmin(bytes32)": {
        "details": "Returns the admin role that controls `role`. See {grantRole} and {revokeRole}.     * To change a role's admin, use {_setRoleAdmin}."
      },
      "getRoleMember(bytes32,uint256)": {
        "details": "Returns one of the accounts that have `role`. `index` must be a value between 0 and {getRoleMemberCount}, non-inclusive.     * Role bearers are not sorted in any particular way, and their ordering may change at any point.     * WARNING: When using {getRoleMember} and {getRoleMemberCount}, make sure you perform all queries on the same block. See the following https://forum.openzeppelin.com/t/iterating-over-elements-on-enumerableset-in-openzeppelin-contracts/2296[forum post] for more information."
      },
      "getRoleMemberCount(bytes32)": {
        "details": "Returns the number of accounts that have `role`. Can be used together with {getRoleMember} to enumerate all bearers of a role."
      },
      "grantRole(bytes32,address)": {
        "details": "Grants `role` to `account`.     * If `account` had not been already granted `role`, emits a {RoleGranted} event.     * Requirements:     * - the caller must have ``role``'s admin role."
      },
      "hasRole(bytes32,address)": {
        "details": "Returns `true` if `account` has been granted `role`."
      },
      "registerTokenERC20(string,address)": {
        "details": "- User must have REGISTER_ROLE         - Token name and address can't be already registered         - Length of token name can't be higher than 25",
        "params": {
          "tokenContractAddress": "Contract address of the ERC20 Token",
          "tokenName": "Name of the token to be registered (e.g.: DAI, UNI)"
        }
      },
      "registerTokenERC721(string,address)": {
        "details": "- User must have REGISTER_ROLE         - Token name and address can't be already registered         - Length of token name can't be higher than 25",
        "params": {
          "tokenContractAddress": "Contract address of the ERC721 Token",
          "tokenName": "Name of the token to be registered"
        }
      },
      "renounceRole(bytes32,address)": {
        "details": "Revokes `role` from the calling account.     * Roles are often managed via {grantRole} and {revokeRole}: this function's purpose is to provide a mechanism for accounts to lose their privileges if they are compromised (such as when a trusted device is misplaced).     * If the calling account had been granted `role`, emits a {RoleRevoked} event.     * Requirements:     * - the caller must be `account`."
      },
      "revokeRole(bytes32,address)": {
        "details": "Revokes `role` from `account`.     * If `account` had been granted `role`, emits a {RoleRevoked} event.     * Requirements:     * - the caller must have ``role``'s admin role."
      },
      "unRegisterTokenERC20(string)": {
        "details": "- User must have REGISTER_ROLE         - Token name and address must be already registered",
        "params": {
          "tokenName": "Name of the token to be unregistered (e.g.: DAI, UNI)"
        }
      },
      "unRegisterTokenERC721(string)": {
        "details": "- User must have REGISTER_ROLE         - Token name and address must be already registered",
        "params": {
          "tokenName": "Name of the token to be unregistered"
        }
      },
      "withdrawERC20Token(string,address,uint256)": {
        "details": "- User must have TRANSFER_ROLE         - PRIVI must have enough tokens to transfer them back to User",
        "params": {
          "amount": "Amount of tokens to be transferred",
          "to": "Destination address to receive the tokens",
          "tokenName": "Name of the token to be transferred"
        }
      },
      "withdrawERC721Token(string,address,uint256)": {
        "details": "- User must have TRANSFER_ROLE         - PRIVI must have enough tokens to transfer them back to User",
        "params": {
          "to": "Destination address to receive the tokens",
          "tokenId": "Token identifier to be transferred",
          "tokenName": "Name of the token to be transferred"
        }
      },
      "withdrawEther(address,uint256)": {
        "details": "- Sender must have TRANSFER_ROLE         - Contract must have enough balance to do the transfer",
        "params": {
          "amount": "Amount of ether to be transferred",
          "to": "Destination address to receive the ether"
        }
      }
    },
    "title": "Manages swap and withdraw of Ethers, ERC20 tokens and ERC721 tokens between Users and PRIVI platform"
  },
  "userdoc": {
    "methods": {
      "constructor": "Constructor to assign all roles to contract creator",
      "depositERC20Token(string,uint256)": {
        "notice": "Transfer ERC20 token from sender address (User) to contract address (PRIVI)"
      },
      "depositERC721Token(string,address,uint256)": {
        "notice": "Transfer ERC721 token from sender address (User) to contract address (PRIVI)"
      },
      "depositEther()": {
        "notice": "Transfer ether from sender address to contract address"
      },
      "registerTokenERC20(string,address)": {
        "notice": "Register the contract address of an ERC20 Token"
      },
      "registerTokenERC721(string,address)": {
        "notice": "Register the contract address of an ERC721 Token"
      },
      "unRegisterTokenERC20(string)": {
        "notice": "Unregister the contract address of an ERC20 Token"
      },
      "unRegisterTokenERC721(string)": {
        "notice": "Unregister the contract address of an ERC721 Token"
      },
      "withdrawERC20Token(string,address,uint256)": {
        "notice": "Transfer ERC20 token from contract address (PRIVI) to sender address (User)"
      },
      "withdrawERC721Token(string,address,uint256)": {
        "notice": "Transfer ERC721 token from contract address (PRIVI) to sender address (User)"
      },
      "withdrawEther(address,uint256)": {
        "notice": "Transfer ether from contract address to sender address"
      }
    }
  }
}