{
  "contractName": "SwapManager",
  "abi": [
    {
      "inputs": [],
      "stateMutability": "nonpayable",
      "type": "constructor"
    },
    {
      "anonymous": false,
      "inputs": [
        {
          "indexed": true,
          "internalType": "string",
          "name": "tokenName",
          "type": "string"
        },
        {
          "indexed": false,
          "internalType": "address",
          "name": "to",
          "type": "address"
        },
        {
          "indexed": false,
          "internalType": "uint256",
          "name": "amount",
          "type": "uint256"
        }
      ],
      "name": "DepositERC20Token",
      "type": "event"
    },
    {
      "anonymous": false,
      "inputs": [
        {
          "indexed": true,
          "internalType": "string",
          "name": "tokenName",
          "type": "string"
        },
        {
          "indexed": false,
          "internalType": "address",
          "name": "to",
          "type": "address"
        },
        {
          "indexed": false,
          "internalType": "uint256",
          "name": "amount",
          "type": "uint256"
        }
      ],
      "name": "DepositERC721Token",
      "type": "event"
    },
    {
      "anonymous": false,
      "inputs": [
        {
          "indexed": true,
          "internalType": "address",
          "name": "from",
          "type": "address"
        },
        {
          "indexed": false,
          "internalType": "uint256",
          "name": "amount",
          "type": "uint256"
        }
      ],
      "name": "DepositEther",
      "type": "event"
    },
    {
      "anonymous": false,
      "inputs": [
        {
          "indexed": true,
          "internalType": "string",
          "name": "name",
          "type": "string"
        },
        {
          "indexed": false,
          "internalType": "address",
          "name": "tokenAddress",
          "type": "address"
        }
      ],
      "name": "RegisterERC20Token",
      "type": "event"
    },
    {
      "anonymous": false,
      "inputs": [
        {
          "indexed": true,
          "internalType": "string",
          "name": "name",
          "type": "string"
        },
        {
          "indexed": false,
          "internalType": "address",
          "name": "tokenAddress",
          "type": "address"
        }
      ],
      "name": "RegisterERC721Token",
      "type": "event"
    },
    {
      "anonymous": false,
      "inputs": [
        {
          "indexed": true,
          "internalType": "bytes32",
          "name": "role",
          "type": "bytes32"
        },
        {
          "indexed": true,
          "internalType": "bytes32",
          "name": "previousAdminRole",
          "type": "bytes32"
        },
        {
          "indexed": true,
          "internalType": "bytes32",
          "name": "newAdminRole",
          "type": "bytes32"
        }
      ],
      "name": "RoleAdminChanged",
      "type": "event"
    },
    {
      "anonymous": false,
      "inputs": [
        {
          "indexed": true,
          "internalType": "bytes32",
          "name": "role",
          "type": "bytes32"
        },
        {
          "indexed": true,
          "internalType": "address",
          "name": "account",
          "type": "address"
        },
        {
          "indexed": true,
          "internalType": "address",
          "name": "sender",
          "type": "address"
        }
      ],
      "name": "RoleGranted",
      "type": "event"
    },
    {
      "anonymous": false,
      "inputs": [
        {
          "indexed": true,
          "internalType": "bytes32",
          "name": "role",
          "type": "bytes32"
        },
        {
          "indexed": true,
          "internalType": "address",
          "name": "account",
          "type": "address"
        },
        {
          "indexed": true,
          "internalType": "address",
          "name": "sender",
          "type": "address"
        }
      ],
      "name": "RoleRevoked",
      "type": "event"
    },
    {
      "anonymous": false,
      "inputs": [
        {
          "indexed": true,
          "internalType": "string",
          "name": "name",
          "type": "string"
        }
      ],
      "name": "UnRegisterERC20Token",
      "type": "event"
    },
    {
      "anonymous": false,
      "inputs": [
        {
          "indexed": true,
          "internalType": "string",
          "name": "name",
          "type": "string"
        }
      ],
      "name": "UnRegisterERC721Token",
      "type": "event"
    },
    {
      "anonymous": false,
      "inputs": [
        {
          "indexed": true,
          "internalType": "string",
          "name": "tokenName",
          "type": "string"
        },
        {
          "indexed": false,
          "internalType": "address",
          "name": "to",
          "type": "address"
        },
        {
          "indexed": false,
          "internalType": "uint256",
          "name": "amount",
          "type": "uint256"
        }
      ],
      "name": "WithdrawERC20Token",
      "type": "event"
    },
    {
      "anonymous": false,
      "inputs": [
        {
          "indexed": true,
          "internalType": "string",
          "name": "tokenName",
          "type": "string"
        },
        {
          "indexed": false,
          "internalType": "address",
          "name": "to",
          "type": "address"
        },
        {
          "indexed": false,
          "internalType": "uint256",
          "name": "tokenId",
          "type": "uint256"
        }
      ],
      "name": "WithdrawERC721Token",
      "type": "event"
    },
    {
      "anonymous": false,
      "inputs": [
        {
          "indexed": true,
          "internalType": "address",
          "name": "to",
          "type": "address"
        },
        {
          "indexed": false,
          "internalType": "uint256",
          "name": "amount",
          "type": "uint256"
        }
      ],
      "name": "WithdrawEther",
      "type": "event"
    },
    {
      "inputs": [],
      "name": "DEFAULT_ADMIN_ROLE",
      "outputs": [
        {
          "internalType": "bytes32",
          "name": "",
          "type": "bytes32"
        }
      ],
      "stateMutability": "view",
      "type": "function",
      "constant": true
    },
    {
      "inputs": [],
      "name": "REGISTER_ROLE",
      "outputs": [
        {
          "internalType": "bytes32",
          "name": "",
          "type": "bytes32"
        }
      ],
      "stateMutability": "view",
      "type": "function",
      "constant": true
    },
    {
      "inputs": [],
      "name": "TRANSFER_ROLE",
      "outputs": [
        {
          "internalType": "bytes32",
          "name": "",
          "type": "bytes32"
        }
      ],
      "stateMutability": "view",
      "type": "function",
      "constant": true
    },
    {
      "inputs": [
        {
          "internalType": "string",
          "name": "",
          "type": "string"
        }
      ],
      "name": "contractAddressERC20",
      "outputs": [
        {
          "internalType": "address",
          "name": "",
          "type": "address"
        }
      ],
      "stateMutability": "view",
      "type": "function",
      "constant": true
    },
    {
      "inputs": [
        {
          "internalType": "string",
          "name": "",
          "type": "string"
        }
      ],
      "name": "contractAddressERC721",
      "outputs": [
        {
          "internalType": "address",
          "name": "",
          "type": "address"
        }
      ],
      "stateMutability": "view",
      "type": "function",
      "constant": true
    },
    {
      "inputs": [
        {
          "internalType": "bytes32",
          "name": "role",
          "type": "bytes32"
        }
      ],
      "name": "getRoleAdmin",
      "outputs": [
        {
          "internalType": "bytes32",
          "name": "",
          "type": "bytes32"
        }
      ],
      "stateMutability": "view",
      "type": "function",
      "constant": true
    },
    {
      "inputs": [
        {
          "internalType": "bytes32",
          "name": "role",
          "type": "bytes32"
        },
        {
          "internalType": "uint256",
          "name": "index",
          "type": "uint256"
        }
      ],
      "name": "getRoleMember",
      "outputs": [
        {
          "internalType": "address",
          "name": "",
          "type": "address"
        }
      ],
      "stateMutability": "view",
      "type": "function",
      "constant": true
    },
    {
      "inputs": [
        {
          "internalType": "bytes32",
          "name": "role",
          "type": "bytes32"
        }
      ],
      "name": "getRoleMemberCount",
      "outputs": [
        {
          "internalType": "uint256",
          "name": "",
          "type": "uint256"
        }
      ],
      "stateMutability": "view",
      "type": "function",
      "constant": true
    },
    {
      "inputs": [
        {
          "internalType": "bytes32",
          "name": "role",
          "type": "bytes32"
        },
        {
          "internalType": "address",
          "name": "account",
          "type": "address"
        }
      ],
      "name": "grantRole",
      "outputs": [],
      "stateMutability": "nonpayable",
      "type": "function"
    },
    {
      "inputs": [
        {
          "internalType": "bytes32",
          "name": "role",
          "type": "bytes32"
        },
        {
          "internalType": "address",
          "name": "account",
          "type": "address"
        }
      ],
      "name": "hasRole",
      "outputs": [
        {
          "internalType": "bool",
          "name": "",
          "type": "bool"
        }
      ],
      "stateMutability": "view",
      "type": "function",
      "constant": true
    },
    {
      "inputs": [
        {
          "internalType": "bytes32",
          "name": "role",
          "type": "bytes32"
        },
        {
          "internalType": "address",
          "name": "account",
          "type": "address"
        }
      ],
      "name": "renounceRole",
      "outputs": [],
      "stateMutability": "nonpayable",
      "type": "function"
    },
    {
      "inputs": [
        {
          "internalType": "bytes32",
          "name": "role",
          "type": "bytes32"
        },
        {
          "internalType": "address",
          "name": "account",
          "type": "address"
        }
      ],
      "name": "revokeRole",
      "outputs": [],
      "stateMutability": "nonpayable",
      "type": "function"
    },
    {
      "inputs": [
        {
          "internalType": "string",
          "name": "tokenName",
          "type": "string"
        },
        {
          "internalType": "address",
          "name": "tokenContractAddress",
          "type": "address"
        }
      ],
      "name": "registerTokenERC20",
      "outputs": [],
      "stateMutability": "nonpayable",
      "type": "function"
    },
    {
      "inputs": [
        {
          "internalType": "string",
          "name": "tokenName",
          "type": "string"
        }
      ],
      "name": "unRegisterTokenERC20",
      "outputs": [],
      "stateMutability": "nonpayable",
      "type": "function"
    },
    {
      "inputs": [
        {
          "internalType": "string",
          "name": "tokenName",
          "type": "string"
        },
        {
          "internalType": "address",
          "name": "tokenContractAddress",
          "type": "address"
        }
      ],
      "name": "registerTokenERC721",
      "outputs": [],
      "stateMutability": "nonpayable",
      "type": "function"
    },
    {
      "inputs": [
        {
          "internalType": "string",
          "name": "tokenName",
          "type": "string"
        }
      ],
      "name": "unRegisterTokenERC721",
      "outputs": [],
      "stateMutability": "nonpayable",
      "type": "function"
    },
    {
      "inputs": [
        {
          "internalType": "string",
          "name": "tokenName",
          "type": "string"
        },
        {
          "internalType": "uint256",
          "name": "amount",
          "type": "uint256"
        }
      ],
      "name": "depositERC20Token",
      "outputs": [],
      "stateMutability": "nonpayable",
      "type": "function"
    },
    {
      "inputs": [
        {
          "internalType": "string",
          "name": "tokenName",
          "type": "string"
        },
        {
          "internalType": "address",
          "name": "to",
          "type": "address"
        },
        {
          "internalType": "uint256",
          "name": "amount",
          "type": "uint256"
        }
      ],
      "name": "withdrawERC20Token",
      "outputs": [],
      "stateMutability": "nonpayable",
      "type": "function"
    },
    {
      "inputs": [
        {
          "internalType": "string",
          "name": "tokenName",
          "type": "string"
        },
        {
          "internalType": "address",
          "name": "to",
          "type": "address"
        },
        {
          "internalType": "uint256",
          "name": "tokenId",
          "type": "uint256"
        }
      ],
      "name": "depositERC721Token",
      "outputs": [],
      "stateMutability": "nonpayable",
      "type": "function"
    },
    {
      "inputs": [
        {
          "internalType": "string",
          "name": "tokenName",
          "type": "string"
        },
        {
          "internalType": "address",
          "name": "to",
          "type": "address"
        },
        {
          "internalType": "uint256",
          "name": "tokenId",
          "type": "uint256"
        }
      ],
      "name": "withdrawERC721Token",
      "outputs": [],
      "stateMutability": "nonpayable",
      "type": "function"
    },
    {
      "inputs": [],
      "name": "depositEther",
      "outputs": [],
      "stateMutability": "payable",
      "type": "function",
      "payable": true
    },
    {
      "inputs": [
        {
          "internalType": "address",
          "name": "to",
          "type": "address"
        },
        {
          "internalType": "uint256",
          "name": "amount",
          "type": "uint256"
        }
      ],
      "name": "withdrawEther",
      "outputs": [],
      "stateMutability": "nonpayable",
      "type": "function"
    },
    {
      "inputs": [],
      "name": "getBalance",
      "outputs": [
        {
          "internalType": "uint256",
          "name": "",
          "type": "uint256"
        }
      ],
      "stateMutability": "view",
      "type": "function",
      "constant": true
    },
    {
      "inputs": [],
      "name": "getBalance2",
      "outputs": [
        {
          "internalType": "uint256",
          "name": "",
          "type": "uint256"
        }
      ],
      "stateMutability": "view",
      "type": "function",
      "constant": true
    }
  ],
  "bytecode": "0x60806040526000600160006101000a81548173ffffffffffffffffffffffffffffffffffffffff021916908373ffffffffffffffffffffffffffffffffffffffff1602179055503480156200005357600080fd5b50620000786000801b6200006c6200012a60201b60201c565b6200013260201b60201c565b620000ce60405180807f52454749535445525f524f4c4500000000000000000000000000000000000000815250600d0190506040518091039020620000c26200012a60201b60201c565b6200013260201b60201c565b6200012460405180807f5452414e534645525f524f4c4500000000000000000000000000000000000000815250600d0190506040518091039020620001186200012a60201b60201c565b6200013260201b60201c565b620002c0565b600033905090565b6200014482826200014860201b60201c565b5050565b6200017681600080858152602001908152602001600020600001620001eb60201b62003beb1790919060201c565b15620001e7576200018c6200012a60201b60201c565b73ffffffffffffffffffffffffffffffffffffffff168173ffffffffffffffffffffffffffffffffffffffff16837f2f8788117e7eff1d82e926ec794901d17c78024a50270940304540a733656f0d60405160405180910390a45b5050565b60006200021b836000018373ffffffffffffffffffffffffffffffffffffffff1660001b6200022360201b60201c565b905092915050565b60006200023783836200029d60201b60201c565b6200029257826000018290806001815401808255809150506001900390600052602060002001600090919091909150558260000180549050836001016000848152602001908152602001600020819055506001905062000297565b600090505b92915050565b600080836001016000848152602001908152602001600020541415905092915050565b61423f80620002d06000396000f3fe60806040526004361061014a5760003560e01c806374f53317116100b6578063a217fddf1161006f578063a217fddf14610ab3578063aa57b73614610ade578063ca15c87314610bc6578063d1af27c414610c15578063d547741f14610d07578063fcf6a89214610d625761014a565b806374f53317146107ec5780637de2c626146108175780639010d07c146108e957806391d148541461096e5780639562227e146109e157806398ea5fca14610aa95761014a565b806336568abe1161010857806336568abe1461036c57806346dffca0146103c7578063522f6815146104cf57806356a109bc1461052a5780635a8c18e11461061c5780635d099ca7146106e45761014a565b806259d9301461014f5780630a70cae01461024157806312065fe01461026c578063206b60f914610297578063248a9ca3146102c25780632f2ff15d14610311575b600080fd5b34801561015b57600080fd5b5061023f6004803603606081101561017257600080fd5b810190808035906020019064010000000081111561018f57600080fd5b8201836020820111156101a157600080fd5b803590602001918460018302840111640100000000831117156101c357600080fd5b91908080601f016020809104026020016040519081016040528093929190818152602001838380828437600081840152601f19601f820116905080830192505050505050509192919290803573ffffffffffffffffffffffffffffffffffffffff16906020019092919080359060200190929190505050610e4a565b005b34801561024d57600080fd5b506102566113d3565b6040518082815260200191505060405180910390f35b34801561027857600080fd5b506102816113f2565b6040518082815260200191505060405180910390f35b3480156102a357600080fd5b506102ac611411565b6040518082815260200191505060405180910390f35b3480156102ce57600080fd5b506102fb600480360360208110156102e557600080fd5b810190808035906020019092919050505061144a565b6040518082815260200191505060405180910390f35b34801561031d57600080fd5b5061036a6004803603604081101561033457600080fd5b8101908080359060200190929190803573ffffffffffffffffffffffffffffffffffffffff169060200190929190505050611469565b005b34801561037857600080fd5b506103c56004803603604081101561038f57600080fd5b8101908080359060200190929190803573ffffffffffffffffffffffffffffffffffffffff1690602001909291905050506114f2565b005b3480156103d357600080fd5b5061048d600480360360208110156103ea57600080fd5b810190808035906020019064010000000081111561040757600080fd5b82018360208201111561041957600080fd5b8035906020019184600183028401116401000000008311171561043b57600080fd5b91908080601f016020809104026020016040519081016040528093929190818152602001838380828437600081840152601f19601f82011690508083019250505050505050919291929050505061158b565b604051808273ffffffffffffffffffffffffffffffffffffffff1673ffffffffffffffffffffffffffffffffffffffff16815260200191505060405180910390f35b3480156104db57600080fd5b50610528600480360360408110156104f257600080fd5b81019080803573ffffffffffffffffffffffffffffffffffffffff169060200190929190803590602001909291905050506115d4565b005b34801561053657600080fd5b5061061a6004803603606081101561054d57600080fd5b810190808035906020019064010000000081111561056a57600080fd5b82018360208201111561057c57600080fd5b8035906020019184600183028401116401000000008311171561059e57600080fd5b91908080601f016020809104026020016040519081016040528093929190818152602001838380828437600081840152601f19601f820116905080830192505050505050509192919290803573ffffffffffffffffffffffffffffffffffffffff1690602001909291908035906020019092919050505061177e565b005b34801561062857600080fd5b506106e26004803603602081101561063f57600080fd5b810190808035906020019064010000000081111561065c57600080fd5b82018360208201111561066e57600080fd5b8035906020019184600183028401116401000000008311171561069057600080fd5b91908080601f016020809104026020016040519081016040528093929190818152602001838380828437600081840152601f19601f820116905080830192505050505050509192919290505050611d0e565b005b3480156106f057600080fd5b506107aa6004803603602081101561070757600080fd5b810190808035906020019064010000000081111561072457600080fd5b82018360208201111561073657600080fd5b8035906020019184600183028401116401000000008311171561075857600080fd5b91908080601f016020809104026020016040519081016040528093929190818152602001838380828437600081840152601f19601f820116905080830192505050505050509192919290505050612096565b604051808273ffffffffffffffffffffffffffffffffffffffff1673ffffffffffffffffffffffffffffffffffffffff16815260200191505060405180910390f35b3480156107f857600080fd5b506108016120df565b6040518082815260200191505060405180910390f35b34801561082357600080fd5b506108e76004803603604081101561083a57600080fd5b810190808035906020019064010000000081111561085757600080fd5b82018360208201111561086957600080fd5b8035906020019184600183028401116401000000008311171561088b57600080fd5b91908080601f016020809104026020016040519081016040528093929190818152602001838380828437600081840152601f19601f82011690508083019250505050505050919291929080359060200190929190505050612118565b005b3480156108f557600080fd5b5061092c6004803603604081101561090c57600080fd5b810190808035906020019092919080359060200190929190505050612715565b604051808273ffffffffffffffffffffffffffffffffffffffff1673ffffffffffffffffffffffffffffffffffffffff16815260200191505060405180910390f35b34801561097a57600080fd5b506109c76004803603604081101561099157600080fd5b8101908080359060200190929190803573ffffffffffffffffffffffffffffffffffffffff169060200190929190505050612746565b604051808215151515815260200191505060405180910390f35b3480156109ed57600080fd5b50610aa760048036036020811015610a0457600080fd5b8101908080359060200190640100000000811115610a2157600080fd5b820183602082011115610a3357600080fd5b80359060200191846001830284011164010000000083111715610a5557600080fd5b91908080601f016020809104026020016040519081016040528093929190818152602001838380828437600081840152601f19601f820116905080830192505050505050509192919290505050612777565b005b610ab1612aff565b005b348015610abf57600080fd5b50610ac8612baf565b6040518082815260200191505060405180910390f35b348015610aea57600080fd5b50610bc460048036036040811015610b0157600080fd5b8101908080359060200190640100000000811115610b1e57600080fd5b820183602082011115610b3057600080fd5b80359060200191846001830284011164010000000083111715610b5257600080fd5b91908080601f016020809104026020016040519081016040528093929190818152602001838380828437600081840152601f19601f820116905080830192505050505050509192919290803573ffffffffffffffffffffffffffffffffffffffff169060200190929190505050612bb6565b005b348015610bd257600080fd5b50610bff60048036036020811015610be957600080fd5b8101908080359060200190929190505050612fca565b6040518082815260200191505060405180910390f35b348015610c2157600080fd5b50610d0560048036036060811015610c3857600080fd5b8101908080359060200190640100000000811115610c5557600080fd5b820183602082011115610c6757600080fd5b80359060200191846001830284011164010000000083111715610c8957600080fd5b91908080601f016020809104026020016040519081016040528093929190818152602001838380828437600081840152601f19601f820116905080830192505050505050509192919290803573ffffffffffffffffffffffffffffffffffffffff16906020019092919080359060200190929190505050612ff0565b005b348015610d1357600080fd5b50610d6060048036036040811015610d2a57600080fd5b8101908080359060200190929190803573ffffffffffffffffffffffffffffffffffffffff1690602001909291905050506135c1565b005b348015610d6e57600080fd5b50610e4860048036036040811015610d8557600080fd5b8101908080359060200190640100000000811115610da257600080fd5b820183602082011115610db457600080fd5b80359060200191846001830284011164010000000083111715610dd657600080fd5b91908080601f016020809104026020016040519081016040528093929190818152602001838380828437600081840152601f19601f820116905080830192505050505050509192919290803573ffffffffffffffffffffffffffffffffffffffff16906020019092919050505061364a565b005b610e9060405180807f5452414e534645525f524f4c4500000000000000000000000000000000000000815250600d0190506040518091039020610e8b613a5e565b612746565b610ee5576040517f08c379a00000000000000000000000000000000000000000000000000000000081526004018080602001828103825260368152602001806141a56036913960400191505060405180910390fd5b60006003846040518082805190602001908083835b60208310610f1d5780518252602082019150602081019050602083039250610efa565b6001836020036101000a038019825116818451168082178552505050505050905001915050908152602001604051809103902060009054906101000a900473ffffffffffffffffffffffffffffffffffffffff1673ffffffffffffffffffffffffffffffffffffffff166370a08231306040518263ffffffff1660e01b8152600401808273ffffffffffffffffffffffffffffffffffffffff1673ffffffffffffffffffffffffffffffffffffffff16815260200191505060206040518083038186803b158015610fed57600080fd5b505afa158015611001573d6000803e3d6000fd5b505050506040513d602081101561101757600080fd5b81019080805190602001909291905050501161107e576040517f08c379a0000000000000000000000000000000000000000000000000000000008152600401808060200182810382526031815260200180613eac6031913960400191505060405180910390fd5b6003836040518082805190602001908083835b602083106110b45780518252602082019150602081019050602083039250611091565b6001836020036101000a038019825116818451168082178552505050505050905001915050908152602001604051809103902060009054906101000a900473ffffffffffffffffffffffffffffffffffffffff1673ffffffffffffffffffffffffffffffffffffffff1663095ea7b330836040518363ffffffff1660e01b8152600401808373ffffffffffffffffffffffffffffffffffffffff1673ffffffffffffffffffffffffffffffffffffffff16815260200182815260200192505050600060405180830381600087803b15801561118e57600080fd5b505af11580156111a2573d6000803e3d6000fd5b505050506003836040518082805190602001908083835b602083106111dc57805182526020820191506020810190506020830392506111b9565b6001836020036101000a038019825116818451168082178552505050505050905001915050908152602001604051809103902060009054906101000a900473ffffffffffffffffffffffffffffffffffffffff1673ffffffffffffffffffffffffffffffffffffffff166323b872dd3084846040518463ffffffff1660e01b8152600401808473ffffffffffffffffffffffffffffffffffffffff1673ffffffffffffffffffffffffffffffffffffffff1681526020018373ffffffffffffffffffffffffffffffffffffffff1673ffffffffffffffffffffffffffffffffffffffff1681526020018281526020019350505050600060405180830381600087803b1580156112ea57600080fd5b505af11580156112fe573d6000803e3d6000fd5b50505050826040518082805190602001908083835b602083106113365780518252602082019150602081019050602083039250611313565b6001836020036101000a03801982511681845116808217855250505050505090500191505060405180910390207fd28833d48ffa5c3f0ea93c47adcb7e8015c714a9c0ddf007d4e523851b98367e8383604051808373ffffffffffffffffffffffffffffffffffffffff1673ffffffffffffffffffffffffffffffffffffffff1681526020018281526020019250505060405180910390a2505050565b60003073ffffffffffffffffffffffffffffffffffffffff1631905090565b60003073ffffffffffffffffffffffffffffffffffffffff1631905090565b60405180807f5452414e534645525f524f4c4500000000000000000000000000000000000000815250600d019050604051809103902081565b6000806000838152602001908152602001600020600201549050919050565b61148f6000808481526020019081526020016000206002015461148a613a5e565b612746565b6114e4576040517f08c379a000000000000000000000000000000000000000000000000000000000815260040180806020018281038252602f815260200180613e7d602f913960400191505060405180910390fd5b6114ee8282613a66565b5050565b6114fa613a5e565b73ffffffffffffffffffffffffffffffffffffffff168173ffffffffffffffffffffffffffffffffffffffff161461157d576040517f08c379a000000000000000000000000000000000000000000000000000000000815260040180806020018281038252602f8152602001806141db602f913960400191505060405180910390fd5b6115878282613af9565b5050565b6003818051602081018201805184825260208301602085012081835280955050505050506000915054906101000a900473ffffffffffffffffffffffffffffffffffffffff1681565b61161a60405180807f5452414e534645525f524f4c4500000000000000000000000000000000000000815250600d0190506040518091039020611615613a5e565b612746565b61166f576040517f08c379a00000000000000000000000000000000000000000000000000000000081526004018080602001828103825260338152602001806140096033913960400191505060405180910390fd5b803073ffffffffffffffffffffffffffffffffffffffff163110156116df576040517f08c379a0000000000000000000000000000000000000000000000000000000008152600401808060200182810382526039815260200180613fd06039913960400191505060405180910390fd5b60008290508073ffffffffffffffffffffffffffffffffffffffff166108fc839081150290604051600060405180830381858888f1935050505015801561172a573d6000803e3d6000fd5b508273ffffffffffffffffffffffffffffffffffffffff167fdb35132c111efe920cede025e819975671cfd1b8fcc1174762c8670c4e94c211836040518082815260200191505060405180910390a2505050565b6117c460405180807f5452414e534645525f524f4c4500000000000000000000000000000000000000815250600d01905060405180910390206117bf613a5e565b612746565b611819576040517f08c379a00000000000000000000000000000000000000000000000000000000081526004018080602001828103825260358152602001806140856035913960400191505060405180910390fd5b600160009054906101000a900473ffffffffffffffffffffffffffffffffffffffff1673ffffffffffffffffffffffffffffffffffffffff166003846040518082805190602001908083835b602083106118885780518252602082019150602081019050602083039250611865565b6001836020036101000a038019825116818451168082178552505050505050905001915050908152602001604051809103902060009054906101000a900473ffffffffffffffffffffffffffffffffffffffff1673ffffffffffffffffffffffffffffffffffffffff161415611949576040517f08c379a0000000000000000000000000000000000000000000000000000000008152600401808060200182810382526036815260200180613f026036913960400191505060405180910390fd5b3073ffffffffffffffffffffffffffffffffffffffff166003846040518082805190602001908083835b602083106119965780518252602082019150602081019050602083039250611973565b6001836020036101000a038019825116818451168082178552505050505050905001915050908152602001604051809103902060009054906101000a900473ffffffffffffffffffffffffffffffffffffffff1673ffffffffffffffffffffffffffffffffffffffff1663081812fc836040518263ffffffff1660e01b81526004018082815260200191505060206040518083038186803b158015611a3a57600080fd5b505afa158015611a4e573d6000803e3d6000fd5b505050506040513d6020811015611a6457600080fd5b810190808051906020019092919050505073ffffffffffffffffffffffffffffffffffffffff1614611ae1576040517f08c379a000000000000000000000000000000000000000000000000000000000815260040180806020018281038252604981526020018061403c6049913960600191505060405180910390fd5b6003836040518082805190602001908083835b60208310611b175780518252602082019150602081019050602083039250611af4565b6001836020036101000a038019825116818451168082178552505050505050905001915050908152602001604051809103902060009054906101000a900473ffffffffffffffffffffffffffffffffffffffff1673ffffffffffffffffffffffffffffffffffffffff166323b872dd3384846040518463ffffffff1660e01b8152600401808473ffffffffffffffffffffffffffffffffffffffff1673ffffffffffffffffffffffffffffffffffffffff1681526020018373ffffffffffffffffffffffffffffffffffffffff1673ffffffffffffffffffffffffffffffffffffffff1681526020018281526020019350505050600060405180830381600087803b158015611c2557600080fd5b505af1158015611c39573d6000803e3d6000fd5b50505050826040518082805190602001908083835b60208310611c715780518252602082019150602081019050602083039250611c4e565b6001836020036101000a03801982511681845116808217855250505050505090500191505060405180910390207ff0218d2f738513bea289b1b8ca83d8241a1060f13280602f9b7ff8e3598d4c838383604051808373ffffffffffffffffffffffffffffffffffffffff1673ffffffffffffffffffffffffffffffffffffffff1681526020018281526020019250505060405180910390a2505050565b806060819050600081511415611d6f576040517f08c379a0000000000000000000000000000000000000000000000000000000008152600401808060200182810382526025815260200180613edd6025913960400191505060405180910390fd5b611db560405180807f52454749535445525f524f4c4500000000000000000000000000000000000000815250600d0190506040518091039020611db0613a5e565b612746565b611e0a576040517f08c379a000000000000000000000000000000000000000000000000000000000815260040180806020018281038252603a81526020018061416b603a913960400191505060405180910390fd5b600160009054906101000a900473ffffffffffffffffffffffffffffffffffffffff1673ffffffffffffffffffffffffffffffffffffffff166002846040518082805190602001908083835b60208310611e795780518252602082019150602081019050602083039250611e56565b6001836020036101000a038019825116818451168082178552505050505050905001915050908152602001604051809103902060009054906101000a900473ffffffffffffffffffffffffffffffffffffffff1673ffffffffffffffffffffffffffffffffffffffff161415611f3a576040517f08c379a000000000000000000000000000000000000000000000000000000000815260040180806020018281038252603081526020018061413b6030913960400191505060405180910390fd5b600160009054906101000a900473ffffffffffffffffffffffffffffffffffffffff166002846040518082805190602001908083835b60208310611f935780518252602082019150602081019050602083039250611f70565b6001836020036101000a038019825116818451168082178552505050505050905001915050908152602001604051809103902060006101000a81548173ffffffffffffffffffffffffffffffffffffffff021916908373ffffffffffffffffffffffffffffffffffffffff160217905550826040518082805190602001908083835b602083106120385780518252602082019150602081019050602083039250612015565b6001836020036101000a03801982511681845116808217855250505050505090500191505060405180910390207f165900214ed2efc5014e11d6a345a7cf56338cec6a77f7836963249a5b12a19f60405160405180910390a2505050565b6002818051602081018201805184825260208301602085012081835280955050505050506000915054906101000a900473ffffffffffffffffffffffffffffffffffffffff1681565b60405180807f52454749535445525f524f4c4500000000000000000000000000000000000000815250600d019050604051809103902081565b61215e60405180807f5452414e534645525f524f4c4500000000000000000000000000000000000000815250600d0190506040518091039020612159613a5e565b612746565b6121b3576040517f08c379a00000000000000000000000000000000000000000000000000000000081526004018080602001828103825260358152602001806140856035913960400191505060405180910390fd5b600160009054906101000a900473ffffffffffffffffffffffffffffffffffffffff1673ffffffffffffffffffffffffffffffffffffffff166002836040518082805190602001908083835b6020831061222257805182526020820191506020810190506020830392506121ff565b6001836020036101000a038019825116818451168082178552505050505050905001915050908152602001604051809103902060009054906101000a900473ffffffffffffffffffffffffffffffffffffffff1673ffffffffffffffffffffffffffffffffffffffff1614156122e3576040517f08c379a0000000000000000000000000000000000000000000000000000000008152600401808060200182810382526036815260200180613f026036913960400191505060405180910390fd5b806002836040518082805190602001908083835b6020831061231a57805182526020820191506020810190506020830392506122f7565b6001836020036101000a038019825116818451168082178552505050505050905001915050908152602001604051809103902060009054906101000a900473ffffffffffffffffffffffffffffffffffffffff1673ffffffffffffffffffffffffffffffffffffffff1663dd62ed3e612391613a5e565b306040518363ffffffff1660e01b8152600401808373ffffffffffffffffffffffffffffffffffffffff1673ffffffffffffffffffffffffffffffffffffffff1681526020018273ffffffffffffffffffffffffffffffffffffffff1673ffffffffffffffffffffffffffffffffffffffff1681526020019250505060206040518083038186803b15801561242557600080fd5b505afa158015612439573d6000803e3d6000fd5b505050506040513d602081101561244f57600080fd5b810190808051906020019092919050505010156124b7576040517f08c379a00000000000000000000000000000000000000000000000000000000081526004018080602001828103825260508152602001806140ba6050913960600191505060405180910390fd5b6002826040518082805190602001908083835b602083106124ed57805182526020820191506020810190506020830392506124ca565b6001836020036101000a038019825116818451168082178552505050505050905001915050908152602001604051809103902060009054906101000a900473ffffffffffffffffffffffffffffffffffffffff1673ffffffffffffffffffffffffffffffffffffffff166323b872dd612564613a5e565b30846040518463ffffffff1660e01b8152600401808473ffffffffffffffffffffffffffffffffffffffff1673ffffffffffffffffffffffffffffffffffffffff1681526020018373ffffffffffffffffffffffffffffffffffffffff1673ffffffffffffffffffffffffffffffffffffffff1681526020018281526020019350505050602060405180830381600087803b15801561260257600080fd5b505af1158015612616573d6000803e3d6000fd5b505050506040513d602081101561262c57600080fd5b810190808051906020019092919050505050816040518082805190602001908083835b60208310612672578051825260208201915060208101905060208303925061264f565b6001836020036101000a03801982511681845116808217855250505050505090500191505060405180910390207f91ed334b741c7cbbae982dad9ca693e9d47b9a50db6fd5f346755f5bca14dfdd6126c8613a5e565b83604051808373ffffffffffffffffffffffffffffffffffffffff1673ffffffffffffffffffffffffffffffffffffffff1681526020018281526020019250505060405180910390a25050565b600061273e82600080868152602001908152602001600020600001613b8c90919063ffffffff16565b905092915050565b600061276f82600080868152602001908152602001600020600001613ba690919063ffffffff16565b905092915050565b8060608190506000815114156127d8576040517f08c379a0000000000000000000000000000000000000000000000000000000008152600401808060200182810382526025815260200180613edd6025913960400191505060405180910390fd5b61281e60405180807f52454749535445525f524f4c4500000000000000000000000000000000000000815250600d0190506040518091039020612819613a5e565b612746565b612873576040517f08c379a000000000000000000000000000000000000000000000000000000000815260040180806020018281038252603a81526020018061416b603a913960400191505060405180910390fd5b600160009054906101000a900473ffffffffffffffffffffffffffffffffffffffff1673ffffffffffffffffffffffffffffffffffffffff166003846040518082805190602001908083835b602083106128e257805182526020820191506020810190506020830392506128bf565b6001836020036101000a038019825116818451168082178552505050505050905001915050908152602001604051809103902060009054906101000a900473ffffffffffffffffffffffffffffffffffffffff1673ffffffffffffffffffffffffffffffffffffffff1614156129a3576040517f08c379a000000000000000000000000000000000000000000000000000000000815260040180806020018281038252603081526020018061413b6030913960400191505060405180910390fd5b600160009054906101000a900473ffffffffffffffffffffffffffffffffffffffff166003846040518082805190602001908083835b602083106129fc57805182526020820191506020810190506020830392506129d9565b6001836020036101000a038019825116818451168082178552505050505050905001915050908152602001604051809103902060006101000a81548173ffffffffffffffffffffffffffffffffffffffff021916908373ffffffffffffffffffffffffffffffffffffffff160217905550826040518082805190602001908083835b60208310612aa15780518252602082019150602081019050602083039250612a7e565b6001836020036101000a03801982511681845116808217855250505050505090500191505060405180910390207f0de03d3bef344b9df188770d8d72ff98e8c4b63ca2fedde287c7d4d12d8e5b0c60405160405180910390a2505050565b60003411612b58576040517f08c379a000000000000000000000000000000000000000000000000000000000815260040180806020018281038252603181526020018061410a6031913960400191505060405180910390fd5b612b60613a5e565b73ffffffffffffffffffffffffffffffffffffffff167fe628a607143b255f52afd0900e0d9630dd009c2f2635cd1e28c7aeeeff940802346040518082815260200191505060405180910390a2565b6000801b81565b816060819050600081511415612c17576040517f08c379a0000000000000000000000000000000000000000000000000000000008152600401808060200182810382526025815260200180613edd6025913960400191505060405180910390fd5b612c5d60405180807f52454749535445525f524f4c4500000000000000000000000000000000000000815250600d0190506040518091039020612c58613a5e565b612746565b612cb2576040517f08c379a0000000000000000000000000000000000000000000000000000000008152600401808060200182810382526038815260200180613f386038913960400191505060405180910390fd5b600160009054906101000a900473ffffffffffffffffffffffffffffffffffffffff1673ffffffffffffffffffffffffffffffffffffffff166003856040518082805190602001908083835b60208310612d215780518252602082019150602081019050602083039250612cfe565b6001836020036101000a038019825116818451168082178552505050505050905001915050908152602001604051809103902060009054906101000a900473ffffffffffffffffffffffffffffffffffffffff1673ffffffffffffffffffffffffffffffffffffffff1614612de1576040517f08c379a0000000000000000000000000000000000000000000000000000000008152600401808060200182810382526030815260200180613f706030913960400191505060405180910390fd5b6019845110612e58576040517f08c379a00000000000000000000000000000000000000000000000000000000081526004018080602001828103825260208152602001807f537761704d616e616765723a20746f6b656e206e616d6520746f6f206c6f6e6781525060200191505060405180910390fd5b826003856040518082805190602001908083835b60208310612e8f5780518252602082019150602081019050602083039250612e6c565b6001836020036101000a038019825116818451168082178552505050505050905001915050908152602001604051809103902060006101000a81548173ffffffffffffffffffffffffffffffffffffffff021916908373ffffffffffffffffffffffffffffffffffffffff160217905550836040518082805190602001908083835b60208310612f345780518252602082019150602081019050602083039250612f11565b6001836020036101000a03801982511681845116808217855250505050505090500191505060405180910390207f8b716abc5c12b2b1b216049f179e5b7ea408a5a96880c14d00b5c83282e43b9584604051808273ffffffffffffffffffffffffffffffffffffffff1673ffffffffffffffffffffffffffffffffffffffff16815260200191505060405180910390a250505050565b6000612fe9600080848152602001908152602001600020600001613bd6565b9050919050565b61303660405180807f5452414e534645525f524f4c4500000000000000000000000000000000000000815250600d0190506040518091039020613031613a5e565b612746565b61308b576040517f08c379a00000000000000000000000000000000000000000000000000000000081526004018080602001828103825260368152602001806141a56036913960400191505060405180910390fd5b60006002846040518082805190602001908083835b602083106130c357805182526020820191506020810190506020830392506130a0565b6001836020036101000a038019825116818451168082178552505050505050905001915050908152602001604051809103902060009054906101000a900473ffffffffffffffffffffffffffffffffffffffff1673ffffffffffffffffffffffffffffffffffffffff166370a08231306040518263ffffffff1660e01b8152600401808273ffffffffffffffffffffffffffffffffffffffff1673ffffffffffffffffffffffffffffffffffffffff16815260200191505060206040518083038186803b15801561319357600080fd5b505afa1580156131a7573d6000803e3d6000fd5b505050506040513d60208110156131bd57600080fd5b810190808051906020019092919050505011613224576040517f08c379a0000000000000000000000000000000000000000000000000000000008152600401808060200182810382526031815260200180613eac6031913960400191505060405180910390fd5b6002836040518082805190602001908083835b6020831061325a5780518252602082019150602081019050602083039250613237565b6001836020036101000a038019825116818451168082178552505050505050905001915050908152602001604051809103902060009054906101000a900473ffffffffffffffffffffffffffffffffffffffff1673ffffffffffffffffffffffffffffffffffffffff1663095ea7b330836040518363ffffffff1660e01b8152600401808373ffffffffffffffffffffffffffffffffffffffff1673ffffffffffffffffffffffffffffffffffffffff16815260200182815260200192505050602060405180830381600087803b15801561333457600080fd5b505af1158015613348573d6000803e3d6000fd5b505050506040513d602081101561335e57600080fd5b8101908080519060200190929190505050506002836040518082805190602001908083835b602083106133a65780518252602082019150602081019050602083039250613383565b6001836020036101000a038019825116818451168082178552505050505050905001915050908152602001604051809103902060009054906101000a900473ffffffffffffffffffffffffffffffffffffffff1673ffffffffffffffffffffffffffffffffffffffff166323b872dd3084846040518463ffffffff1660e01b8152600401808473ffffffffffffffffffffffffffffffffffffffff1673ffffffffffffffffffffffffffffffffffffffff1681526020018373ffffffffffffffffffffffffffffffffffffffff1673ffffffffffffffffffffffffffffffffffffffff1681526020018281526020019350505050602060405180830381600087803b1580156134b457600080fd5b505af11580156134c8573d6000803e3d6000fd5b505050506040513d60208110156134de57600080fd5b810190808051906020019092919050505050826040518082805190602001908083835b602083106135245780518252602082019150602081019050602083039250613501565b6001836020036101000a03801982511681845116808217855250505050505090500191505060405180910390207f226bfaa503fda889c5dbfb29ffa193ceac9a4b461e47f68b3b14c438ec7f8b678383604051808373ffffffffffffffffffffffffffffffffffffffff1673ffffffffffffffffffffffffffffffffffffffff1681526020018281526020019250505060405180910390a2505050565b6135e7600080848152602001908152602001600020600201546135e2613a5e565b612746565b61363c576040517f08c379a0000000000000000000000000000000000000000000000000000000008152600401808060200182810382526030815260200180613fa06030913960400191505060405180910390fd5b6136468282613af9565b5050565b8160608190506000815114156136ab576040517f08c379a0000000000000000000000000000000000000000000000000000000008152600401808060200182810382526025815260200180613edd6025913960400191505060405180910390fd5b6136f160405180807f52454749535445525f524f4c4500000000000000000000000000000000000000815250600d01905060405180910390206136ec613a5e565b612746565b613746576040517f08c379a0000000000000000000000000000000000000000000000000000000008152600401808060200182810382526038815260200180613f386038913960400191505060405180910390fd5b600160009054906101000a900473ffffffffffffffffffffffffffffffffffffffff1673ffffffffffffffffffffffffffffffffffffffff166002856040518082805190602001908083835b602083106137b55780518252602082019150602081019050602083039250613792565b6001836020036101000a038019825116818451168082178552505050505050905001915050908152602001604051809103902060009054906101000a900473ffffffffffffffffffffffffffffffffffffffff1673ffffffffffffffffffffffffffffffffffffffff1614613875576040517f08c379a0000000000000000000000000000000000000000000000000000000008152600401808060200182810382526030815260200180613f706030913960400191505060405180910390fd5b60198451106138ec576040517f08c379a00000000000000000000000000000000000000000000000000000000081526004018080602001828103825260208152602001807f537761704d616e616765723a20746f6b656e206e616d6520746f6f206c6f6e6781525060200191505060405180910390fd5b826002856040518082805190602001908083835b602083106139235780518252602082019150602081019050602083039250613900565b6001836020036101000a038019825116818451168082178552505050505050905001915050908152602001604051809103902060006101000a81548173ffffffffffffffffffffffffffffffffffffffff021916908373ffffffffffffffffffffffffffffffffffffffff160217905550836040518082805190602001908083835b602083106139c857805182526020820191506020810190506020830392506139a5565b6001836020036101000a03801982511681845116808217855250505050505090500191505060405180910390207f8332d9919bf32207cb796a0a21674da0f96c4d6f2257c02073ff112e117bff0c84604051808273ffffffffffffffffffffffffffffffffffffffff1673ffffffffffffffffffffffffffffffffffffffff16815260200191505060405180910390a250505050565b600033905090565b613a8d81600080858152602001908152602001600020600001613beb90919063ffffffff16565b15613af557613a9a613a5e565b73ffffffffffffffffffffffffffffffffffffffff168173ffffffffffffffffffffffffffffffffffffffff16837f2f8788117e7eff1d82e926ec794901d17c78024a50270940304540a733656f0d60405160405180910390a45b5050565b613b2081600080858152602001908152602001600020600001613c1b90919063ffffffff16565b15613b8857613b2d613a5e565b73ffffffffffffffffffffffffffffffffffffffff168173ffffffffffffffffffffffffffffffffffffffff16837ff6391f5c32d9c69d2a47ea670b442974b53935d1edc7fd64eb21e047a839171b60405160405180910390a45b5050565b6000613b9b8360000183613c4b565b60001c905092915050565b6000613bce836000018373ffffffffffffffffffffffffffffffffffffffff1660001b613cce565b905092915050565b6000613be482600001613cf1565b9050919050565b6000613c13836000018373ffffffffffffffffffffffffffffffffffffffff1660001b613d02565b905092915050565b6000613c43836000018373ffffffffffffffffffffffffffffffffffffffff1660001b613d72565b905092915050565b600081836000018054905011613cac576040517f08c379a0000000000000000000000000000000000000000000000000000000008152600401808060200182810382526022815260200180613e5b6022913960400191505060405180910390fd5b826000018281548110613cbb57fe5b9060005260206000200154905092915050565b600080836001016000848152602001908152602001600020541415905092915050565b600081600001805490509050919050565b6000613d0e8383613cce565b613d67578260000182908060018154018082558091505060019003906000526020600020016000909190919091505582600001805490508360010160008481526020019081526020016000208190555060019050613d6c565b600090505b92915050565b60008083600101600084815260200190815260200160002054905060008114613e4e5760006001820390506000600186600001805490500390506000866000018281548110613dbd57fe5b9060005260206000200154905080876000018481548110613dda57fe5b9060005260206000200181905550600183018760010160008381526020019081526020016000208190555086600001805480613e1257fe5b60019003818190600052602060002001600090559055866001016000878152602001908152602001600020600090556001945050505050613e54565b60009150505b9291505056fe456e756d657261626c655365743a20696e646578206f7574206f6620626f756e6473416363657373436f6e74726f6c3a2073656e646572206d75737420626520616e2061646d696e20746f206772616e74537761704d616e616765723a20696e73756666696369656e742066756e647320696e20505249564920636f6e7472616374537761704d616e616765723a20746f6b656e4e616d652063616e277420626520656d707479537761704d616e616765723a20746f6b656e206973206e6f74207265676973746572656420696e746f2074686520706c6174666f726d537761704d616e616765723a206d75737420686176652052454749535445525f524f4c4520746f207265676973746572206120746f6b656e537761704d616e616765723a20746f6b656e206164647265737320697320616c72656164792072656769737465726564416363657373436f6e74726f6c3a2073656e646572206d75737420626520616e2061646d696e20746f207265766f6b65537761704d616e616765723a206e6f7420656e6f75676820636f6e74726163742062616c616e636520666f7220746865207472616e73666572537761704d616e616765723a206d7573742068617665205452414e534645525f524f4c4520746f207472616e66657220457468537761704d616e616765723a20746f6b656e20746f206265207472616e7366657272656420746f205052495649206973206e6f742079657420617070726f7665642062792055736572537761704d616e616765723a206d7573742068617665205452414e534645525f524f4c4520746f206465706f73697420746f6b656e537761704d616e616765723a20746f6b656e20616d6f756e7420746f206265207472616e7366657272656420746f205052495649206973206e6f742079657420617070726f7665642062792055736572537761704d616e616765723a20616d6f756e74206d7573742062652067726561746572207468616e203020657468657273537761704d616e616765723a20746f6b656e2061646472657373206973206e6f74207265676973746572656420796574537761704d616e616765723a206d75737420686176652052454749535445525f524f4c4520746f20756e7265676973746572206120746f6b656e537761704d616e616765723a206d7573742068617665205452414e534645525f524f4c4520746f20776974686472617720746f6b656e416363657373436f6e74726f6c3a2063616e206f6e6c792072656e6f756e636520726f6c657320666f722073656c66a2646970667358221220991a75dc6f8af1049c2648698e47756089f9302b4f2b3631f3c0f048964cc4f464736f6c63430006050033",
  "immutableReferences": {},
  "source": "// SPDX-License-Identifier: MIT\npragma solidity ^0.6.0;\n\nimport \"@openzeppelin/contracts/access/AccessControl.sol\";\nimport \"@openzeppelin/contracts/token/ERC20/IERC20.sol\";\nimport \"@openzeppelin/contracts/token/ERC721/IERC721.sol\";\n// import \"https://github.com/OpenZeppelin/openzeppelin-contracts/blob/master/contracts/access/AccessControl.sol\";\n// import \"https://github.com/OpenZeppelin/openzeppelin-contracts/blob/master/contracts/token/ERC20/IERC20.sol\";\n// import \"https://github.com/OpenZeppelin/openzeppelin-contracts/blob/master/contracts/token/ERC721/IERC721.sol\";\n\n/// @author The PRIVI Blockchain team\n/// @title Manages swap and withdraw of Ethers, ERC20 tokens and ERC721 tokens between Users and PRIVI platform\ncontract SwapManager is AccessControl{\n    bytes32 public constant REGISTER_ROLE = keccak256(\"REGISTER_ROLE\");\n    bytes32 public constant TRANSFER_ROLE = keccak256(\"TRANSFER_ROLE\");\n    address private ZERO_ADDRESS = 0x0000000000000000000000000000000000000000;\n\n    mapping(string => address) public contractAddressERC20;\n    mapping(string => address) public contractAddressERC721;\n\n    event RegisterERC20Token(string indexed name, address tokenAddress);\n    event UnRegisterERC20Token(string indexed name);\n    event RegisterERC721Token(string indexed name, address tokenAddress);\n    event UnRegisterERC721Token(string indexed name);\n\n    event DepositERC20Token(string indexed tokenName, address to, uint256 amount);\n    event WithdrawERC20Token(string indexed tokenName, address to, uint256 amount);\n    event DepositERC721Token(string indexed tokenName, address to, uint256 amount);\n    event WithdrawERC721Token(string indexed tokenName, address to, uint256 tokenId);\n    event DepositEther(address indexed from, uint256 amount);\n    event WithdrawEther(address indexed to, uint256 amount);\n\n    /**\n     * @notice  Modifier to require 'tokenName' is not empty\n     * @param   tokenNameToCheck Token name to be checked\n     */\n    modifier tokenNameIsNotEmpty(string memory tokenNameToCheck) {\n        bytes memory bytesTokenName = bytes(tokenNameToCheck);\n        require(bytesTokenName.length != 0, \"SwapManager: tokenName can't be empty\");\n        _;\n    }\n\n    /**\n     * @notice Constructor to assigns all roles to contract creator\n     */\n    constructor() public {\n        _setupRole(DEFAULT_ADMIN_ROLE, _msgSender());\n        _setupRole(REGISTER_ROLE, _msgSender());\n        _setupRole(TRANSFER_ROLE, _msgSender());\n    }\n    \n    /**\n     * @notice  Register the contract address of an ERC20 Token\n     * @dev     - User must have REGISTER_ROLE\n     *          - Token name and address can't be already registered\n     * @param   tokenName Name of the token to be registered (e.g.: DAI, UNI)\n     * @param   tokenContractAddress Contract address of the ERC20 Token\n     */\n    function registerTokenERC20(string memory tokenName, address tokenContractAddress) public tokenNameIsNotEmpty(tokenName) {\n        require(hasRole(REGISTER_ROLE, _msgSender()), \n            \"SwapManager: must have REGISTER_ROLE to register a token\");\n        require(contractAddressERC20[tokenName] == ZERO_ADDRESS, \n            \"SwapManager: token address is already registered\");\n        require(bytes(tokenName).length < 25, \n            \"SwapManager: token name too long\");\n        contractAddressERC20[tokenName] = tokenContractAddress;\n        emit RegisterERC20Token(tokenName, tokenContractAddress);\n    }\n    \n    /**\n     * @notice  Unregister the contract address of an ERC20 Token\n     * @dev     - User must have REGISTER_ROLE\n     *          - Token name and address must be already registered\n     * @param   tokenName Name of the token to be unregistered (e.g.: DAI, UNI)\n     */\n    function unRegisterTokenERC20(string memory tokenName) public tokenNameIsNotEmpty(tokenName) {\n        require(hasRole(REGISTER_ROLE, _msgSender()), \n            \"SwapManager: must have REGISTER_ROLE to unregister a token\");\n        require(contractAddressERC20[tokenName] != ZERO_ADDRESS, \n            \"SwapManager: token address is not registered yet\");\n        contractAddressERC20[tokenName] = ZERO_ADDRESS;\n        emit UnRegisterERC20Token(tokenName);\n    }\n\n    /**\n     * @notice  Register the contract address of an ERC721 Token\n     * @dev     - User must have REGISTER_ROLE\n     *          - Token name and address can't be already registered\n     * @param   tokenName Name of the token to be registered\n     * @param   tokenContractAddress Contract address of the ERC721 Token\n     */\n    function registerTokenERC721(string memory tokenName, address tokenContractAddress) public tokenNameIsNotEmpty(tokenName) {\n        require(hasRole(REGISTER_ROLE, _msgSender()), \n            \"SwapManager: must have REGISTER_ROLE to register a token\");\n        require(contractAddressERC721[tokenName] == ZERO_ADDRESS, \n            \"SwapManager: token address is already registered\");\n        require(bytes(tokenName).length < 25, \n            \"SwapManager: token name too long\");\n        contractAddressERC721[tokenName] = tokenContractAddress;\n        emit RegisterERC721Token(tokenName, tokenContractAddress);\n    }\n\n    /**\n     * @notice  Unregister the contract address of an ERC721 Token\n     * @dev     - User must have REGISTER_ROLE\n     *          - Token name and address must be already registered\n     * @param   tokenName Name of the token to be unregistered\n     */\n    function unRegisterTokenERC721(string memory tokenName) public tokenNameIsNotEmpty(tokenName) {\n        require(hasRole(REGISTER_ROLE, _msgSender()), \n            \"SwapManager: must have REGISTER_ROLE to unregister a token\");\n        require(contractAddressERC721[tokenName] != ZERO_ADDRESS, \n            \"SwapManager: token address is not registered yet\");\n        contractAddressERC721[tokenName] = ZERO_ADDRESS;\n        emit UnRegisterERC721Token(tokenName);\n    }\n\n    /**\n     * @notice  Transfer ERC20 token from sender address (User) to contract address (PRIVI)\n     * @dev     - User must have TRANSFER_ROLE\n     *          - Token to be transferred must be already registered\n     *          - User has to approve first the amount to be transferred WITHIN the original ERC20 token contract,\n     *          and not from this contract. Otherwise, transaction will always fail\n     * @param   tokenName Name of the token to be transferred\n     * @param   amount Amount of tokens to be transferred\n     */\n    function depositERC20Token(string memory tokenName, uint256 amount) public {\n        require(hasRole(TRANSFER_ROLE, _msgSender()), \n            \"SwapManager: must have TRANSFER_ROLE to deposit token\");\n        require(contractAddressERC20[tokenName] != ZERO_ADDRESS, \n            \"SwapManager: token is not registered into the platform\");\n        require(IERC20(contractAddressERC20[tokenName]).allowance(_msgSender(), address(this)) >= amount, \n            \"SwapManager: token amount to be transferred to PRIVI is not yet approved by User\"); \n        IERC20(contractAddressERC20[tokenName]).transferFrom(_msgSender(), address(this), amount);\n        emit DepositERC20Token(tokenName, _msgSender(), amount);\n    }\n\n    /**\n     * @notice  Transfer ERC20 token from contract address (PRIVI) to sender address (User)\n     * @dev     - User must have TRANSFER_ROLE\n     *          - PRIVI must have enough tokens to transfer them back to User\n     * @param   tokenName Name of the token to be transferred\n     * @param   to Destination address to receive the tokens\n     * @param   amount Amount of tokens to be transferred\n     */\n    function withdrawERC20Token(string memory tokenName, address to, uint256 amount) public {\n        require(hasRole(TRANSFER_ROLE, _msgSender()), \n            \"SwapManager: must have TRANSFER_ROLE to withdraw token\");\n        require(IERC20(contractAddressERC20[tokenName]).balanceOf(address(this)) > 0, \n            \"SwapManager: insufficient funds in PRIVI contract\");\n        IERC20(contractAddressERC20[tokenName]).approve(address(this), amount);\n        IERC20(contractAddressERC20[tokenName]).transferFrom(address(this), to, amount);\n        emit WithdrawERC20Token(tokenName, to, amount);\n    }\n\n    /**\n     * @notice  Transfer ERC721 token from sender address (User) to contract address (PRIVI)\n     * @dev     - User must have TRANSFER_ROLE\n     *          - Token to be transferred must be already registered\n     *          - User has to approve first the amount to be transferred WITHIN the original ERC721 token contract,\n     *          and not from this contract. Otherwise, transaction will always fail\n     * @param   tokenName Name of the token to be transferred\n     * @param   to Destination address to receive the tokens\n     * @param   tokenId Token identifier to be transferred\n     */\n    function depositERC721Token(string memory tokenName, address to, uint256 tokenId) public {\n        require(hasRole(TRANSFER_ROLE, _msgSender()), \n            \"SwapManager: must have TRANSFER_ROLE to deposit token\");\n        require(contractAddressERC721[tokenName] != ZERO_ADDRESS, \n            \"SwapManager: token is not registered into the platform\");\n        /* TO BE TESTED */\n        require(IERC721(contractAddressERC721[tokenName]).getApproved(tokenId) == address(this), \n            \"SwapManager: token to be transferred to PRIVI is not yet approved by User\"); \n        IERC721(contractAddressERC721[tokenName]).transferFrom(msg.sender, to, tokenId);\n        emit DepositERC721Token(tokenName, to, tokenId);\n    }\n\n    /**\n     * @notice  Transfer ERC721 token from contract address (PRIVI) to sender address (User)\n     * @dev     - User must have TRANSFER_ROLE\n     *          - PRIVI must have enough tokens to transfer them back to User\n     * @param   tokenName Name of the token to be transferred\n     * @param   to Destination address to receive the tokens\n     * @param   tokenId Token identifier to be transferred\n     */\n    function withdrawERC721Token(string memory tokenName, address to, uint256 tokenId) public {\n        require(hasRole(TRANSFER_ROLE, _msgSender()), \n            \"SwapManager: must have TRANSFER_ROLE to withdraw token\");\n        require(IERC721(contractAddressERC721[tokenName]).balanceOf(address(this)) > 0, \n            \"SwapManager: insufficient funds in PRIVI contract\");\n        IERC721(contractAddressERC721[tokenName]).approve(address(this), tokenId);\n        IERC721(contractAddressERC721[tokenName]).transferFrom(address(this), to, tokenId);\n        emit WithdrawERC721Token(tokenName, to, tokenId);\n    }\n    \n    /**\n     * @notice  Transfer ether from sender address to contract address\n     * @dev     - Amount to be deposited must be greater than 0 ethers \n     */\n    function depositEther() external payable {\n        //TODO: save mapping with address & amount, to track how much every sender put\n        require(msg.value > 0, \"SwapManager: amount must be greater than 0 ethers\");\n        emit DepositEther(_msgSender(), msg.value);  \n    }\n    \n    /**\n     * @notice  Transfer ether from contract address to sender address\n     * @dev     - Sender must have TRANSFER_ROLE\n     *          - Contract must have enough balance to do the transfer\n     * @param   to Destination address to receive the ether\n     * @param   amount Amount of ether to be transferred\n     */\n    function withdrawEther(address to, uint256 amount) public {\n        require(hasRole(TRANSFER_ROLE, _msgSender()), \n            \"SwapManager: must have TRANSFER_ROLE to tranfer Eth\");\n        require(payable(address(this)).balance >= amount, \n            \"SwapManager: not enough contract balance for the transfer\");\n        address payable recipient = address(uint160(to));\n        recipient.transfer(amount);\n        emit WithdrawEther(to, amount);\n    }\n\n    /**\n     * @return  Contract balance in weis\n     */\n    function getBalance() public view returns (uint256) {\n        return payable(address(this)).balance;\n    }\n\n        function getBalance2() public view returns (uint256) {\n        return payable(address(this)).balance;\n    }\n}",
  "sourcePath": "/Users/sergijuanati/Dropbox/Docs/2. Work/14. Bitacoras/19. Solidity/3. SwapManager/contracts/SwapManager.sol",
  "compiler": {
    "name": "solc",
    "version": "0.6.5+commit.f956cc89.Emscripten.clang"
  },
  "schemaVersion": "3.2.5",
  "updatedAt": "2020-11-11T09:53:55.282Z",
  "networkType": "ethereum",
  "devdoc": {
    "author": "The PRIVI Blockchain team",
    "methods": {
      "depositERC20Token(string,uint256)": {
        "details": "- User must have TRANSFER_ROLE         - Token to be transferred must be already registered         - User has to approve first the amount to be transferred WITHIN the original ERC20 token contract,         and not from this contract. Otherwise, transaction will always fail",
        "params": {
          "amount": "Amount of tokens to be transferred",
          "tokenName": "Name of the token to be transferred"
        }
      },
      "depositERC721Token(string,address,uint256)": {
        "details": "- User must have TRANSFER_ROLE         - Token to be transferred must be already registered         - User has to approve first the amount to be transferred WITHIN the original ERC721 token contract,         and not from this contract. Otherwise, transaction will always fail",
        "params": {
          "to": "Destination address to receive the tokens",
          "tokenId": "Token identifier to be transferred",
          "tokenName": "Name of the token to be transferred"
        }
      },
      "depositEther()": {
        "details": "- Amount to be deposited must be greater than 0 ethers "
      },
      "getRoleAdmin(bytes32)": {
        "details": "Returns the admin role that controls `role`. See {grantRole} and {revokeRole}.     * To change a role's admin, use {_setRoleAdmin}."
      },
      "getRoleMember(bytes32,uint256)": {
        "details": "Returns one of the accounts that have `role`. `index` must be a value between 0 and {getRoleMemberCount}, non-inclusive.     * Role bearers are not sorted in any particular way, and their ordering may change at any point.     * WARNING: When using {getRoleMember} and {getRoleMemberCount}, make sure you perform all queries on the same block. See the following https://forum.openzeppelin.com/t/iterating-over-elements-on-enumerableset-in-openzeppelin-contracts/2296[forum post] for more information."
      },
      "getRoleMemberCount(bytes32)": {
        "details": "Returns the number of accounts that have `role`. Can be used together with {getRoleMember} to enumerate all bearers of a role."
      },
      "grantRole(bytes32,address)": {
        "details": "Grants `role` to `account`.     * If `account` had not been already granted `role`, emits a {RoleGranted} event.     * Requirements:     * - the caller must have ``role``'s admin role."
      },
      "hasRole(bytes32,address)": {
        "details": "Returns `true` if `account` has been granted `role`."
      },
      "registerTokenERC20(string,address)": {
        "details": "- User must have REGISTER_ROLE         - Token name and address can't be already registered",
        "params": {
          "tokenContractAddress": "Contract address of the ERC20 Token",
          "tokenName": "Name of the token to be registered (e.g.: DAI, UNI)"
        }
      },
      "registerTokenERC721(string,address)": {
        "details": "- User must have REGISTER_ROLE         - Token name and address can't be already registered",
        "params": {
          "tokenContractAddress": "Contract address of the ERC721 Token",
          "tokenName": "Name of the token to be registered"
        }
      },
      "renounceRole(bytes32,address)": {
        "details": "Revokes `role` from the calling account.     * Roles are often managed via {grantRole} and {revokeRole}: this function's purpose is to provide a mechanism for accounts to lose their privileges if they are compromised (such as when a trusted device is misplaced).     * If the calling account had been granted `role`, emits a {RoleRevoked} event.     * Requirements:     * - the caller must be `account`."
      },
      "revokeRole(bytes32,address)": {
        "details": "Revokes `role` from `account`.     * If `account` had been granted `role`, emits a {RoleRevoked} event.     * Requirements:     * - the caller must have ``role``'s admin role."
      },
      "unRegisterTokenERC20(string)": {
        "details": "- User must have REGISTER_ROLE         - Token name and address must be already registered",
        "params": {
          "tokenName": "Name of the token to be unregistered (e.g.: DAI, UNI)"
        }
      },
      "unRegisterTokenERC721(string)": {
        "details": "- User must have REGISTER_ROLE         - Token name and address must be already registered",
        "params": {
          "tokenName": "Name of the token to be unregistered"
        }
      },
      "withdrawERC20Token(string,address,uint256)": {
        "details": "- User must have TRANSFER_ROLE         - PRIVI must have enough tokens to transfer them back to User",
        "params": {
          "amount": "Amount of tokens to be transferred",
          "to": "Destination address to receive the tokens",
          "tokenName": "Name of the token to be transferred"
        }
      },
      "withdrawERC721Token(string,address,uint256)": {
        "details": "- User must have TRANSFER_ROLE         - PRIVI must have enough tokens to transfer them back to User",
        "params": {
          "to": "Destination address to receive the tokens",
          "tokenId": "Token identifier to be transferred",
          "tokenName": "Name of the token to be transferred"
        }
      },
      "withdrawEther(address,uint256)": {
        "details": "- Sender must have TRANSFER_ROLE         - Contract must have enough balance to do the transfer",
        "params": {
          "amount": "Amount of ether to be transferred",
          "to": "Destination address to receive the ether"
        }
      }
    },
    "title": "Manages swap and withdraw of Ethers, ERC20 tokens and ERC721 tokens between Users and PRIVI platform"
  },
  "userdoc": {
    "methods": {
      "constructor": "Constructor to assigns all roles to contract creator",
      "depositERC20Token(string,uint256)": {
        "notice": "Transfer ERC20 token from sender address (User) to contract address (PRIVI)"
      },
      "depositERC721Token(string,address,uint256)": {
        "notice": "Transfer ERC721 token from sender address (User) to contract address (PRIVI)"
      },
      "depositEther()": {
        "notice": "Transfer ether from sender address to contract address"
      },
      "registerTokenERC20(string,address)": {
        "notice": "Register the contract address of an ERC20 Token"
      },
      "registerTokenERC721(string,address)": {
        "notice": "Register the contract address of an ERC721 Token"
      },
      "unRegisterTokenERC20(string)": {
        "notice": "Unregister the contract address of an ERC20 Token"
      },
      "unRegisterTokenERC721(string)": {
        "notice": "Unregister the contract address of an ERC721 Token"
      },
      "withdrawERC20Token(string,address,uint256)": {
        "notice": "Transfer ERC20 token from contract address (PRIVI) to sender address (User)"
      },
      "withdrawERC721Token(string,address,uint256)": {
        "notice": "Transfer ERC721 token from contract address (PRIVI) to sender address (User)"
      },
      "withdrawEther(address,uint256)": {
        "notice": "Transfer ether from contract address to sender address"
      }
    }
  }
}